{
  "_format": "hh-sol-artifact-1",
  "contractName": "DecryptVerifier",
  "sourceName": "contracts/shuffle/decrypt/DecryptVerifier.sol",
  "abi": [
    {
      "inputs": [],
      "name": "InvalidProof",
      "type": "error"
    },
    {
      "inputs": [
        {
          "internalType": "uint256[2]",
          "name": "a",
          "type": "uint256[2]"
        },
        {
          "internalType": "uint256[2][2]",
          "name": "b",
          "type": "uint256[2][2]"
        },
        {
          "internalType": "uint256[2]",
          "name": "c",
          "type": "uint256[2]"
        },
        {
          "internalType": "uint256[8]",
          "name": "input",
          "type": "uint256[8]"
        }
      ],
      "name": "verifyProof",
      "outputs": [],
      "stateMutability": "view",
      "type": "function"
    }
  ],
  "bytecode": "0x608060405234801561001057600080fd5b5061191f806100206000396000f3fe608060405234801561001057600080fd5b506004361061002b5760003560e01c8063c9219a7a14610030575b600080fd5b61004a60048036038101906100459190611718565b61004c565b005b6100546112e8565b60405180604001604052808660006002811061007357610072611781565b5b602002015181526020018660016002811061009157610090611781565b5b6020020151815250816000018190525060405180604001604052806040518060400160405280876000600281106100cb576100ca611781565b5b60200201516000600281106100e3576100e2611781565b5b602002015181526020018760006002811061010157610100611781565b5b602002015160016002811061011957610118611781565b5b6020020151815250815260200160405180604001604052808760016002811061014557610144611781565b5b602002015160006002811061015d5761015c611781565b5b602002015181526020018760016002811061017b5761017a611781565b5b602002015160016002811061019357610192611781565b5b602002015181525081525081602001819052506040518060400160405280846000600281106101c5576101c4611781565b5b60200201518152602001846001600281106101e3576101e2611781565b5b6020020151815250816040018190525060006101fd6104cf565b90508060800151516001600861021391906117df565b1461024a576040517f09bde33900000000000000000000000000000000000000000000000000000000815260040160405180910390fd5b6000816080015160008151811061026457610263611781565b5b6020026020010151905060005b60088110156102e3576102ce826102c9856080015160018561029391906117df565b815181106102a4576102a3611781565b5b60200260200101518885600881106102bf576102be611781565b5b6020020151610c1b565b610d37565b915080806102db90611813565b915050610271565b506000600467ffffffffffffffff8111156103015761030061144f565b5b60405190808252806020026020018201604052801561033a57816020015b61032761131b565b81526020019060019003908161031f5790505b5090506000600467ffffffffffffffff81111561035a5761035961144f565b5b60405190808252806020026020018201604052801561039357816020015b610380611335565b8152602001906001900390816103785790505b5090506103a38560000151610e20565b826000815181106103b7576103b6611781565b5b60200260200101819052508460200151816000815181106103db576103da611781565b5b60200260200101819052508360000151826001815181106103ff576103fe611781565b5b602002602001018190525083602001518160018151811061042357610422611781565b5b6020026020010181905250828260028151811061044357610442611781565b5b602002602001018190525083604001518160028151811061046757610466611781565b5b602002602001018190525084604001518260038151811061048b5761048a611781565b5b60200260200101819052508360600151816003815181106104af576104ae611781565b5b60200260200101819052506104c48282610f41565b505050505050505050565b6104d761135b565b60405180604001604052807f1fca1bffff5750f207496f33135c888c3dc6c589c3eb1d0f44d774c08ae320f081526020017f2a05aee3af55d392d74cedb842b695f3806cd2f828f69569cd08041b0688a1288152508160000181905250604051806040016040528060405180604001604052807f0d1700570d923e05206d96ccc16acb0e3254f2457e45ebe17b61606a08cb2ab481526020017f1aa71292d71a3848cf3465f3d525a5e3b1e6a768e0129bdda9af0f7d148c033a815250815260200160405180604001604052807f15723e47d438024acc79a1ae32c51a2d97e88a6dd21ef853ee90d366b9cd6eea81526020017f1f90a741bce27cebb5713e13fad2aab919d50f67a4d45030705abe845c96adee8152508152508160200181905250604051806040016040528060405180604001604052807f198e9393920d483a7260bfb731fb5d25f1aa493335a9e71297e485b7aef312c281526020017f1800deef121f1e76426a00665e5c4479674322d4f75edadd46debd5cd992f6ed815250815260200160405180604001604052807f090689d0585ff075ec9e99ad690c3395bc4b313370b38ef355acdadcd122975b81526020017f12c85ea5db8c6deb4aab71808dcb408fe3d1e7690c43d37b4ce6cc0166fa7daa8152508152508160400181905250604051806040016040528060405180604001604052807f22e67fc582c43f8b17297218788bdadf7aa84a8d2ef4ca1442c9ec6dbfdf9bbd81526020017f2417080bbb3622c94ff5598d1c058af3cc0cd24cf52305473f250403e8ca5546815250815260200160405180604001604052807f08184cf377a5f7c2610a3a7460b290cf05463e0e908b9c3ed20ad8e0d109f4e681526020017f27ed47c00c3c5ad6657a0e7cba5bdfe408d270214468e3e2de3ca76a97b3d12e8152508152508160600181905250600967ffffffffffffffff81111561079e5761079d61144f565b5b6040519080825280602002602001820160405280156107d757816020015b6107c461131b565b8152602001906001900390816107bc5790505b50816080018190525060405180604001604052807f0d1d68724ab5a7b1454b1523723f8ca4d5a805d29c6352ebc21b6cbb65fb232181526020017f1687a7c1b4fa2fc5973cc49bf27e903155f76b4432385916d9abbe7edeced79d815250816080015160008151811061084d5761084c611781565b5b602002602001018190525060405180604001604052807f29b68893ef0c5c4ea2cf7ad4850676675aaf6ffa52a20a2ec63b8b56ad7bf98881526020017f22017d4bf98e16fb8b81b3b08018575367ad8148b106643b92b2084418a6978b81525081608001516001815181106108c5576108c4611781565b5b602002602001018190525060405180604001604052807f18f3ef9fb08836fbdb9cf830ac7e6c0b904588799ff3348d7606a725959c090581526020017f058215ee0c2d3f58cb77be64189fb3172cb0d2c515dd80c14521fe858ad86db0815250816080015160028151811061093d5761093c611781565b5b602002602001018190525060405180604001604052807f0744a4e422d6837325548cebf046fac2d96e02dbb211d176323149d9cc0b215381526020017f130f58206215e47b49fffbe9f2ac3718bf84aa9411195f5b35b0cf6504fa7c6e81525081608001516003815181106109b5576109b4611781565b5b602002602001018190525060405180604001604052807f1dd0efb129bc9b059e6d01676b96d8c76fc64aeeb952e809e2f7519b2cdbb18c81526020017f2eb24f470266206dc431bfd311d884a592691f5aea931b3a2e719cfec79dcca38152508160800151600481518110610a2d57610a2c611781565b5b602002602001018190525060405180604001604052807f1f319128b8ac0202b3c52f46b012884fd0a1ce19eb2349f9053247f97eed68fa81526020017f256b04ab287c44eace306ade8f7457c7f0a8c6384e11d593834e5bda49957ebf8152508160800151600581518110610aa557610aa4611781565b5b602002602001018190525060405180604001604052807f078f95e2f4165b83dc8a25b93e1c380369dc504a5a81332f3baaf337624597ff81526020017f09b098afd49b57f7f2cd75aa29a7801f3c355350ce4bdb20cbe8a8b4a54c59a28152508160800151600681518110610b1d57610b1c611781565b5b602002602001018190525060405180604001604052807f0720b2c6195d51df22b854067a1807030626046209aa563c6ce169735c8b29d481526020017f238e9743a155e380df3c183d572c333d35447cf3f31a923ea9c9d5f1eea065198152508160800151600781518110610b9557610b94611781565b5b602002602001018190525060405180604001604052807f13b4a2471d4f179f374b397c321849b65a00bc21f0d0027a7176eaf9111b57df81526020017f01a50430a04c01e1d711f2de6ad6075ec98865e93185a772e7645e97a620ed738152508160800151600881518110610c0d57610c0c611781565b5b602002602001018190525090565b610c2361131b565b7f30644e72e131a029b85045b68181585d2833e84879b9709143e1f593f00000018210610c7c576040517f09bde33900000000000000000000000000000000000000000000000000000000815260040160405180910390fd5b610c846113a2565b836000015181600060038110610c9d57610c9c611781565b5b602002018181525050836020015181600160038110610cbf57610cbe611781565b5b6020020181815250508281600260038110610cdd57610cdc611781565b5b602002018181525050600060608360808460076107d05a03fa905080610d2f576040517f09bde33900000000000000000000000000000000000000000000000000000000815260040160405180910390fd5b505092915050565b610d3f61131b565b610d476113c4565b836000015181600060048110610d6057610d5f611781565b5b602002018181525050836020015181600160048110610d8257610d81611781565b5b602002018181525050826000015181600260048110610da457610da3611781565b5b602002018181525050826020015181600360048110610dc657610dc5611781565b5b602002018181525050600060608360c08460066107d05a03fa905080610e18576040517f09bde33900000000000000000000000000000000000000000000000000000000815260040160405180910390fd5b505092915050565b610e2861131b565b60008260000151148015610e40575060008260200151145b15610e635760405180604001604052806000815260200160008152509050610f3c565b7f30644e72e131a029b85045b68181585d97816a916871ca8d3c208c16d87cfd478260000151101580610eba57507f30644e72e131a029b85045b68181585d97816a916871ca8d3c208c16d87cfd47826020015110155b15610ef1576040517f09bde33900000000000000000000000000000000000000000000000000000000815260040160405180910390fd5b60405180604001604052808360000151815260200183602001517f30644e72e131a029b85045b68181585d97816a916871ca8d3c208c16d87cfd47610f36919061185b565b81525090505b919050565b8051825114610f7c576040517f09bde33900000000000000000000000000000000000000000000000000000000815260040160405180910390fd5b6000825190506000600682610f91919061188f565b905060008167ffffffffffffffff811115610faf57610fae61144f565b5b604051908082528060200260200182016040528015610fdd5781602001602082028036833780820191505090505b50905060005b8381101561126257858181518110610ffe57610ffd611781565b5b60200260200101516000015182600060068461101a919061188f565b61102491906117df565b8151811061103557611034611781565b5b60200260200101818152505085818151811061105457611053611781565b5b602002602001015160200151826001600684611070919061188f565b61107a91906117df565b8151811061108b5761108a611781565b5b6020026020010181815250508481815181106110aa576110a9611781565b5b6020026020010151600001516000600281106110c9576110c8611781565b5b60200201518260026006846110de919061188f565b6110e891906117df565b815181106110f9576110f8611781565b5b60200260200101818152505084818151811061111857611117611781565b5b60200260200101516000015160016002811061113757611136611781565b5b602002015182600360068461114c919061188f565b61115691906117df565b8151811061116757611166611781565b5b60200260200101818152505084818151811061118657611185611781565b5b6020026020010151602001516000600281106111a5576111a4611781565b5b60200201518260046006846111ba919061188f565b6111c491906117df565b815181106111d5576111d4611781565b5b6020026020010181815250508481815181106111f4576111f3611781565b5b60200260200101516020015160016002811061121357611212611781565b5b6020020151826005600684611228919061188f565b61123291906117df565b8151811061124357611242611781565b5b602002602001018181525050808061125a90611813565b915050610fe3565b5061126b6113e6565b6000602082602086026020860160086107d05a03fa90508015806112a857506001826000600181106112a05761129f611781565b5b602002015114155b156112df576040517f09bde33900000000000000000000000000000000000000000000000000000000815260040160405180910390fd5b50505050505050565b60405180606001604052806112fb61131b565b8152602001611308611335565b815260200161131561131b565b81525090565b604051806040016040528060008152602001600081525090565b6040518060400160405280611348611408565b8152602001611355611408565b81525090565b6040518060a0016040528061136e61131b565b815260200161137b611335565b8152602001611388611335565b8152602001611395611335565b8152602001606081525090565b6040518060600160405280600390602082028036833780820191505090505090565b6040518060800160405280600490602082028036833780820191505090505090565b6040518060200160405280600190602082028036833780820191505090505090565b6040518060400160405280600290602082028036833780820191505090505090565b6000604051905090565b600080fd5b600080fd5b6000601f19601f8301169050919050565b7f4e487b7100000000000000000000000000000000000000000000000000000000600052604160045260246000fd5b6114878261143e565b810181811067ffffffffffffffff821117156114a6576114a561144f565b5b80604052505050565b60006114b961142a565b90506114c5828261147e565b919050565b600067ffffffffffffffff8211156114e5576114e461144f565b5b602082029050919050565b600080fd5b6000819050919050565b611508816114f5565b811461151357600080fd5b50565b600081359050611525816114ff565b92915050565b600061153e611539846114ca565b6114af565b90508060208402830185811115611558576115576114f0565b5b835b81811015611581578061156d8882611516565b84526020840193505060208101905061155a565b5050509392505050565b600082601f8301126115a05761159f611439565b5b60026115ad84828561152b565b91505092915050565b600067ffffffffffffffff8211156115d1576115d061144f565b5b602082029050919050565b60006115ef6115ea846115b6565b6114af565b90508060408402830185811115611609576116086114f0565b5b835b81811015611632578061161e888261158b565b84526020840193505060408101905061160b565b5050509392505050565b600082601f83011261165157611650611439565b5b600261165e8482856115dc565b91505092915050565b600067ffffffffffffffff8211156116825761168161144f565b5b602082029050919050565b60006116a061169b84611667565b6114af565b905080602084028301858111156116ba576116b96114f0565b5b835b818110156116e357806116cf8882611516565b8452602084019350506020810190506116bc565b5050509392505050565b600082601f83011261170257611701611439565b5b600861170f84828561168d565b91505092915050565b600080600080610200858703121561173357611732611434565b5b60006117418782880161158b565b94505060406117528782880161163c565b93505060c06117638782880161158b565b925050610100611775878288016116ed565b91505092959194509250565b7f4e487b7100000000000000000000000000000000000000000000000000000000600052603260045260246000fd5b7f4e487b7100000000000000000000000000000000000000000000000000000000600052601160045260246000fd5b60006117ea826114f5565b91506117f5836114f5565b925082820190508082111561180d5761180c6117b0565b5b92915050565b600061181e826114f5565b91507fffffffffffffffffffffffffffffffffffffffffffffffffffffffffffffffff82036118505761184f6117b0565b5b600182019050919050565b6000611866826114f5565b9150611871836114f5565b9250828203905081811115611889576118886117b0565b5b92915050565b600061189a826114f5565b91506118a5836114f5565b9250817fffffffffffffffffffffffffffffffffffffffffffffffffffffffffffffffff04831182151516156118de576118dd6117b0565b5b82820290509291505056fea26469706673582212208ad7107fdeb41a6bd25bf8bbc207c055bd8ea66bcbacb6b93f264e087f8c69cc64736f6c63430008100033",
  "linkReferences": {},
  "deployedLinkReferences": {}
}