{
  "_format": "hh-sol-artifact-1",
  "contractName": "HiLo",
  "sourceName": "contracts/game/HiLo.sol",
  "abi": [
    {
      "inputs": [
        {
          "internalType": "address",
          "name": "shuffle_",
          "type": "address"
        }
      ],
      "stateMutability": "nonpayable",
      "type": "constructor"
    },
    {
      "anonymous": false,
      "inputs": [
        {
          "indexed": false,
          "internalType": "uint256",
          "name": "gameId",
          "type": "uint256"
        },
        {
          "indexed": false,
          "internalType": "uint256",
          "name": "cardIdx",
          "type": "uint256"
        },
        {
          "indexed": false,
          "internalType": "address",
          "name": "player",
          "type": "address"
        }
      ],
      "name": "DealCard",
      "type": "event"
    },
    {
      "anonymous": false,
      "inputs": [
        {
          "indexed": false,
          "internalType": "uint256",
          "name": "gameId",
          "type": "uint256"
        },
        {
          "indexed": false,
          "internalType": "address",
          "name": "playerAddress",
          "type": "address"
        }
      ],
      "name": "GameCreated",
      "type": "event"
    },
    {
      "anonymous": false,
      "inputs": [
        {
          "indexed": false,
          "internalType": "uint256",
          "name": "gameId",
          "type": "uint256"
        },
        {
          "indexed": false,
          "internalType": "address",
          "name": "playerAddress",
          "type": "address"
        }
      ],
      "name": "GameJoined",
      "type": "event"
    },
    {
      "anonymous": false,
      "inputs": [
        {
          "indexed": false,
          "internalType": "uint256",
          "name": "gameId",
          "type": "uint256"
        },
        {
          "indexed": false,
          "internalType": "enum Selection",
          "name": "selection",
          "type": "uint8"
        },
        {
          "indexed": false,
          "internalType": "address",
          "name": "player",
          "type": "address"
        }
      ],
      "name": "Guess",
      "type": "event"
    },
    {
      "anonymous": false,
      "inputs": [
        {
          "indexed": true,
          "internalType": "address",
          "name": "previousOwner",
          "type": "address"
        },
        {
          "indexed": true,
          "internalType": "address",
          "name": "newOwner",
          "type": "address"
        }
      ],
      "name": "OwnershipTransferred",
      "type": "event"
    },
    {
      "anonymous": false,
      "inputs": [
        {
          "indexed": false,
          "internalType": "uint256",
          "name": "gameId",
          "type": "uint256"
        },
        {
          "indexed": false,
          "internalType": "uint256",
          "name": "cardIdx",
          "type": "uint256"
        },
        {
          "indexed": false,
          "internalType": "uint256",
          "name": "cardValue",
          "type": "uint256"
        },
        {
          "indexed": false,
          "internalType": "address",
          "name": "player",
          "type": "address"
        }
      ],
      "name": "ShowCard",
      "type": "event"
    },
    {
      "anonymous": false,
      "inputs": [
        {
          "indexed": false,
          "internalType": "uint256",
          "name": "gameId",
          "type": "uint256"
        },
        {
          "indexed": false,
          "internalType": "address",
          "name": "player",
          "type": "address"
        }
      ],
      "name": "ShuffleDeck",
      "type": "event"
    },
    {
      "inputs": [],
      "name": "INVALID_CARD_INDEX",
      "outputs": [
        {
          "internalType": "uint256",
          "name": "",
          "type": "uint256"
        }
      ],
      "stateMutability": "view",
      "type": "function"
    },
    {
      "inputs": [
        {
          "internalType": "uint256[2]",
          "name": "pk",
          "type": "uint256[2]"
        }
      ],
      "name": "createGame",
      "outputs": [],
      "stateMutability": "nonpayable",
      "type": "function"
    },
    {
      "inputs": [
        {
          "internalType": "uint256",
          "name": "gameId",
          "type": "uint256"
        },
        {
          "internalType": "uint256",
          "name": "cardIdx",
          "type": "uint256"
        },
        {
          "internalType": "uint256[8]",
          "name": "proof",
          "type": "uint256[8]"
        },
        {
          "internalType": "uint256[2]",
          "name": "decryptedCard",
          "type": "uint256[2]"
        },
        {
          "internalType": "uint256[2]",
          "name": "initDelta",
          "type": "uint256[2]"
        }
      ],
      "name": "dealHandCard",
      "outputs": [],
      "stateMutability": "nonpayable",
      "type": "function"
    },
    {
      "inputs": [
        {
          "internalType": "uint256",
          "name": "gameId",
          "type": "uint256"
        },
        {
          "internalType": "uint256",
          "name": "cardIdx",
          "type": "uint256"
        }
      ],
      "name": "getCardValue",
      "outputs": [
        {
          "internalType": "uint256",
          "name": "",
          "type": "uint256"
        }
      ],
      "stateMutability": "view",
      "type": "function"
    },
    {
      "inputs": [
        {
          "internalType": "uint256",
          "name": "gameId",
          "type": "uint256"
        }
      ],
      "name": "getGameInfo",
      "outputs": [
        {
          "components": [
            {
              "internalType": "address[2]",
              "name": "players",
              "type": "address[2]"
            },
            {
              "internalType": "uint256[2]",
              "name": "cardValues",
              "type": "uint256[2]"
            },
            {
              "internalType": "bool[2]",
              "name": "guessed",
              "type": "bool[2]"
            },
            {
              "internalType": "enum Selection[2]",
              "name": "guess",
              "type": "uint8[2]"
            }
          ],
          "internalType": "struct Game",
          "name": "",
          "type": "tuple"
        }
      ],
      "stateMutability": "view",
      "type": "function"
    },
    {
      "inputs": [
        {
          "internalType": "uint256",
          "name": "gameId",
          "type": "uint256"
        },
        {
          "internalType": "address",
          "name": "player",
          "type": "address"
        }
      ],
      "name": "getPlayerIndex",
      "outputs": [
        {
          "internalType": "uint256",
          "name": "",
          "type": "uint256"
        }
      ],
      "stateMutability": "view",
      "type": "function"
    },
    {
      "inputs": [
        {
          "internalType": "uint256",
          "name": "gameId",
          "type": "uint256"
        },
        {
          "internalType": "enum Selection",
          "name": "selection",
          "type": "uint8"
        }
      ],
      "name": "guess",
      "outputs": [],
      "stateMutability": "nonpayable",
      "type": "function"
    },
    {
      "inputs": [
        {
          "internalType": "uint256",
          "name": "gameId",
          "type": "uint256"
        },
        {
          "internalType": "address",
          "name": "player",
          "type": "address"
        }
      ],
      "name": "isGuessRight",
      "outputs": [
        {
          "internalType": "bool",
          "name": "",
          "type": "bool"
        }
      ],
      "stateMutability": "view",
      "type": "function"
    },
    {
      "inputs": [
        {
          "internalType": "uint256",
          "name": "gameId",
          "type": "uint256"
        },
        {
          "internalType": "uint256[2]",
          "name": "pk",
          "type": "uint256[2]"
        }
      ],
      "name": "joinGame",
      "outputs": [],
      "stateMutability": "nonpayable",
      "type": "function"
    },
    {
      "inputs": [],
      "name": "largestGameId",
      "outputs": [
        {
          "internalType": "uint256",
          "name": "",
          "type": "uint256"
        }
      ],
      "stateMutability": "view",
      "type": "function"
    },
    {
      "inputs": [],
      "name": "owner",
      "outputs": [
        {
          "internalType": "address",
          "name": "",
          "type": "address"
        }
      ],
      "stateMutability": "view",
      "type": "function"
    },
    {
      "inputs": [
        {
          "internalType": "uint256",
          "name": "gameId",
          "type": "uint256"
        }
      ],
      "name": "queryAggregatedPk",
      "outputs": [
        {
          "internalType": "uint256[2]",
          "name": "",
          "type": "uint256[2]"
        }
      ],
      "stateMutability": "view",
      "type": "function"
    },
    {
      "inputs": [
        {
          "internalType": "uint256",
          "name": "gameId",
          "type": "uint256"
        },
        {
          "internalType": "uint256",
          "name": "cardIdx",
          "type": "uint256"
        }
      ],
      "name": "queryCardFromDeck",
      "outputs": [
        {
          "internalType": "uint256[4]",
          "name": "",
          "type": "uint256[4]"
        }
      ],
      "stateMutability": "view",
      "type": "function"
    },
    {
      "inputs": [
        {
          "internalType": "uint256",
          "name": "gameId",
          "type": "uint256"
        },
        {
          "internalType": "uint256",
          "name": "cardIdx",
          "type": "uint256"
        }
      ],
      "name": "queryCardInDeal",
      "outputs": [
        {
          "internalType": "uint256[4]",
          "name": "",
          "type": "uint256[4]"
        }
      ],
      "stateMutability": "view",
      "type": "function"
    },
    {
      "inputs": [
        {
          "internalType": "uint256",
          "name": "gameId",
          "type": "uint256"
        }
      ],
      "name": "queryDeck",
      "outputs": [
        {
          "components": [
            {
              "internalType": "uint256[52]",
              "name": "X0",
              "type": "uint256[52]"
            },
            {
              "internalType": "uint256[52]",
              "name": "X1",
              "type": "uint256[52]"
            },
            {
              "internalType": "uint256[2]",
              "name": "Selector",
              "type": "uint256[2]"
            }
          ],
          "internalType": "struct Deck",
          "name": "",
          "type": "tuple"
        }
      ],
      "stateMutability": "view",
      "type": "function"
    },
    {
      "inputs": [],
      "name": "renounceOwnership",
      "outputs": [],
      "stateMutability": "nonpayable",
      "type": "function"
    },
    {
      "inputs": [
        {
          "internalType": "uint256",
          "name": "gameId",
          "type": "uint256"
        },
        {
          "internalType": "uint256",
          "name": "cardIdx",
          "type": "uint256"
        },
        {
          "internalType": "uint256[8]",
          "name": "proof",
          "type": "uint256[8]"
        },
        {
          "internalType": "uint256[2]",
          "name": "decryptedCard",
          "type": "uint256[2]"
        }
      ],
      "name": "showHand",
      "outputs": [],
      "stateMutability": "nonpayable",
      "type": "function"
    },
    {
      "inputs": [
        {
          "internalType": "uint256[8]",
          "name": "proof",
          "type": "uint256[8]"
        },
        {
          "internalType": "uint256[107]",
          "name": "shuffleData",
          "type": "uint256[107]"
        },
        {
          "internalType": "uint256",
          "name": "gameId",
          "type": "uint256"
        }
      ],
      "name": "shuffle",
      "outputs": [],
      "stateMutability": "nonpayable",
      "type": "function"
    },
    {
      "inputs": [],
      "name": "shuffleStateMachine",
      "outputs": [
        {
          "internalType": "contract IShuffle",
          "name": "",
          "type": "address"
        }
      ],
      "stateMutability": "view",
      "type": "function"
    },
    {
      "inputs": [
        {
          "internalType": "address",
          "name": "newOwner",
          "type": "address"
        }
      ],
      "name": "transferOwnership",
      "outputs": [],
      "stateMutability": "nonpayable",
      "type": "function"
    }
  ],
  "bytecode": "0x60806040523480156200001157600080fd5b506040516200366338038062003663833981810160405281019062000037919062000250565b620000576200004b6200011a60201b60201c565b6200012260201b60201c565b600073ffffffffffffffffffffffffffffffffffffffff168173ffffffffffffffffffffffffffffffffffffffff1603620000c9576040517f08c379a0000000000000000000000000000000000000000000000000000000008152600401620000c090620002e3565b60405180910390fd5b80600160006101000a81548173ffffffffffffffffffffffffffffffffffffffff021916908373ffffffffffffffffffffffffffffffffffffffff1602179055506127106002819055505062000305565b600033905090565b60008060009054906101000a900473ffffffffffffffffffffffffffffffffffffffff169050816000806101000a81548173ffffffffffffffffffffffffffffffffffffffff021916908373ffffffffffffffffffffffffffffffffffffffff1602179055508173ffffffffffffffffffffffffffffffffffffffff168173ffffffffffffffffffffffffffffffffffffffff167f8be0079c531659141344cd1fd0a4f28419497f9722a3daafe3b4186f6b6457e060405160405180910390a35050565b600080fd5b600073ffffffffffffffffffffffffffffffffffffffff82169050919050565b60006200021882620001eb565b9050919050565b6200022a816200020b565b81146200023657600080fd5b50565b6000815190506200024a816200021f565b92915050565b600060208284031215620002695762000268620001e6565b5b6000620002798482850162000239565b91505092915050565b600082825260208201905092915050565b7f656d707479206164647265737300000000000000000000000000000000000000600082015250565b6000620002cb600d8362000282565b9150620002d88262000293565b602082019050919050565b60006020820190508181036000830152620002fe81620002bc565b9050919050565b61334e80620003156000396000f3fe608060405234801561001057600080fd5b506004361061012c5760003560e01c8063b0befddd116100ad578063d8fe61fa11610071578063d8fe61fa14610341578063e489a3a814610371578063eaaeda8e1461038f578063f2fde38b146103ab578063fe8ed579146103c75761012c565b8063b0befddd1461028d578063b42c2488146102a9578063b5348e0b146102d9578063ba91fd7f146102f5578063d5b17622146103115761012c565b80637a4e011a116100f45780637a4e011a146101d757806387aa5fef146102075780638da5cb5b1461023757806397a304da14610255578063a0d50479146102715761012c565b8063291c42401461013157806347e1d5501461016157806351cb1a9c1461019157806362aaa0a9146101af578063715018a6146101cd575b600080fd5b61014b60048036038101906101469190611c53565b6103f7565b6040516101589190611d3e565b60405180910390f35b61017b60048036038101906101769190611d59565b6104a5565b6040516101889190612107565b60405180910390f35b610199610676565b6040516101a69190612182565b60405180910390f35b6101b761069c565b6040516101c491906121ac565b60405180910390f35b6101d56106a3565b005b6101f160048036038101906101ec9190611c53565b6106b7565b6040516101fe91906121ac565b60405180910390f35b610221600480360381019061021c9190611d59565b61075f565b60405161022e9190612229565b60405180910390f35b61023f610809565b60405161024c9190612253565b60405180910390f35b61026f600480360381019061026a9190612293565b610832565b005b61028b6004803603810190610286919061241a565b6109e4565b005b6102a760048036038101906102a2919061245a565b610b1b565b005b6102c360048036038101906102be9190611d59565b610cff565b6040516102d09190612550565b60405180910390f35b6102f360048036038101906102ee919061261d565b610dab565b005b61030f600480360381019061030a9190612686565b611165565b005b61032b60048036038101906103269190612730565b611294565b60405161033891906121ac565b60405180910390f35b61035b60048036038101906103569190612730565b61141d565b604051610368919061277f565b60405180910390f35b61037961161d565b60405161038691906121ac565b60405180910390f35b6103a960048036038101906103a491906127bc565b611623565b005b6103c560048036038101906103c09190612812565b611853565b005b6103e160048036038101906103dc9190611c53565b6118d6565b6040516103ee9190611d3e565b60405180910390f35b6103ff611ace565b600160009054906101000a900473ffffffffffffffffffffffffffffffffffffffff1673ffffffffffffffffffffffffffffffffffffffff1663291c424083856040518363ffffffff1660e01b815260040161045c92919061283f565b608060405180830381865afa158015610479573d6000803e3d6000fd5b505050506040513d601f19601f8201168201806040525081019061049d919061292e565b905092915050565b6104ad611af0565b600360008381526020019081526020016000206040518060800160405290816000820160028060200260405190810160405280929190826002801561053d576020028201915b8160009054906101000a900473ffffffffffffffffffffffffffffffffffffffff1673ffffffffffffffffffffffffffffffffffffffff16815260200190600101908083116104f3575b5050505050815260200160028201600280602002604051908101604052809291908260028015610582576020028201915b81548152602001906001019080831161056e575b50505050508152602001600482016002806020026040519081016040528092919082600280156105ec576020028201916000905b82829054906101000a900460ff161515815260200190600101906020826000010492830192600103820291508084116105b65790505b5050505050815260200160058201600280602002604051908101604052809291908260028015610666576020028201916000905b82829054906101000a900460ff1660018111156106405761063f611fbe565b5b815260200190600101906020826000010492830192600103820291508084116106205790505b5050505050815250509050919050565b600160009054906101000a900473ffffffffffffffffffffffffffffffffffffffff1681565b620f423f81565b6106ab611984565b6106b56000611a02565b565b6000600160009054906101000a900473ffffffffffffffffffffffffffffffffffffffff1673ffffffffffffffffffffffffffffffffffffffff1663c68ee9cd83856040518363ffffffff1660e01b815260040161071692919061283f565b602060405180830381865afa158015610733573d6000803e3d6000fd5b505050506040513d601f19601f82011682018060405250810190610757919061295b565b905092915050565b610767611b30565b600160009054906101000a900473ffffffffffffffffffffffffffffffffffffffff1673ffffffffffffffffffffffffffffffffffffffff166387aa5fef836040518263ffffffff1660e01b81526004016107c291906121ac565b6040805180830381865afa1580156107de573d6000803e3d6000fd5b505050506040513d601f19601f820116820180604052508101906108029190612a13565b9050919050565b60008060009054906101000a900473ffffffffffffffffffffffffffffffffffffffff16905090565b600061083e8333611294565b9050620f423f8103610885576040517f08c379a000000000000000000000000000000000000000000000000000000000815260040161087c90612a9d565b60405180910390fd5b6003600084815260200190815260200160002060040181600281106108ad576108ac612abd565b5b602091828204019190069054906101000a900460ff1615610903576040517f08c379a00000000000000000000000000000000000000000000000000000000081526004016108fa90612b38565b60405180910390fd5b8160036000858152602001908152602001600020600501826002811061092c5761092b612abd565b5b602091828204019190066101000a81548160ff0219169083600181111561095657610955611fbe565b5b0217905550600160036000858152602001908152602001600020600401826002811061098557610984612abd565b5b602091828204019190066101000a81548160ff0219169083151502179055507f94370201ea9a5fd7befc660d3c4172b3d3e68efde9335b37ba509be39f03806f8383336040516109d793929190612b67565b60405180910390a1505050565b3360036000848152602001908152602001600020600001600160028110610a0e57610a0d612abd565b5b0160006101000a81548173ffffffffffffffffffffffffffffffffffffffff021916908373ffffffffffffffffffffffffffffffffffffffff160217905550600160009054906101000a900473ffffffffffffffffffffffffffffffffffffffff1673ffffffffffffffffffffffffffffffffffffffff1663e1ede94f3383856040518463ffffffff1660e01b8152600401610aac93929190612b9e565b600060405180830381600087803b158015610ac657600080fd5b505af1158015610ada573d6000803e3d6000fd5b505050507f45c4f9cbafe186141862608c493f28b823fde4c2142bedc3f5169961a73fdd228233604051610b0f929190612bd5565b60405180910390a15050565b600260008154610b2a90612c2d565b91905081905550600060025490503360036000838152602001908152602001600020600001600060028110610b6257610b61612abd565b5b0160006101000a81548173ffffffffffffffffffffffffffffffffffffffff021916908373ffffffffffffffffffffffffffffffffffffffff160217905550600160009054906101000a900473ffffffffffffffffffffffffffffffffffffffff1673ffffffffffffffffffffffffffffffffffffffff1663175a2bd16002836040518363ffffffff1660e01b8152600401610bff929190612cb0565b600060405180830381600087803b158015610c1957600080fd5b505af1158015610c2d573d6000803e3d6000fd5b50505050600160009054906101000a900473ffffffffffffffffffffffffffffffffffffffff1673ffffffffffffffffffffffffffffffffffffffff1663e1ede94f3384846040518463ffffffff1660e01b8152600401610c9093929190612b9e565b600060405180830381600087803b158015610caa57600080fd5b505af1158015610cbe573d6000803e3d6000fd5b505050507fc3e0f84839dc888c892a013d10c8f9d6dc05a21a879d0ce468ca558013e9121c8133604051610cf3929190612bd5565b60405180910390a15050565b610d07611b52565b600160009054906101000a900473ffffffffffffffffffffffffffffffffffffffff1673ffffffffffffffffffffffffffffffffffffffff1663b42c2488836040518263ffffffff1660e01b8152600401610d6291906121ac565b610d4060405180830381865afa158015610d80573d6000803e3d6000fd5b505050506040513d601f19601f82011682018060405250810190610da49190612df6565b9050919050565b6000610db78533611294565b9050620f423f8103610dfe576040517f08c379a0000000000000000000000000000000000000000000000000000000008152600401610df590612a9d565b60405180910390fd5b60036000868152602001908152602001600020600401600060028110610e2757610e26612abd565b5b602091828204019190069054906101000a900460ff168015610e84575060036000868152602001908152602001600020600401600160028110610e6d57610e6c612abd565b5b602091828204019190069054906101000a900460ff165b610ec3576040517f08c379a0000000000000000000000000000000000000000000000000000000008152600401610eba90612e70565b60405180910390fd5b600160009054906101000a900473ffffffffffffffffffffffffffffffffffffffff1673ffffffffffffffffffffffffffffffffffffffff1663f5e357dd338684878760405180604001604052806000815260200160008152508c6040518863ffffffff1660e01b8152600401610f409796959493929190612f14565b600060405180830381600087803b158015610f5a57600080fd5b505af1158015610f6e573d6000803e3d6000fd5b505050506000600160009054906101000a900473ffffffffffffffffffffffffffffffffffffffff1673ffffffffffffffffffffffffffffffffffffffff1663c68ee9cd86886040518363ffffffff1660e01b8152600401610fd192919061283f565b602060405180830381865afa158015610fee573d6000803e3d6000fd5b505050506040513d601f19601f82011682018060405250810190611012919061295b565b9050600160009054906101000a900473ffffffffffffffffffffffffffffffffffffffff1673ffffffffffffffffffffffffffffffffffffffff166362aaa0a96040518163ffffffff1660e01b8152600401602060405180830381865afa158015611081573d6000803e3d6000fd5b505050506040513d601f19601f820116820180604052508101906110a5919061295b565b81036110e6576040517f08c379a00000000000000000000000000000000000000000000000000000000081526004016110dd90612fd3565b60405180910390fd5b6001816110f39190612ff3565b60036000888152602001908152602001600020600201836002811061111b5761111a612abd565b5b01819055507fa1e483ec2222aa24c29817345766bb82630b4cfd9faef75d8d7460c4bbdc6bf9868683336040516111559493929190613027565b60405180910390a1505050505050565b60006111718633611294565b9050620f423f81036111b8576040517f08c379a00000000000000000000000000000000000000000000000000000000081526004016111af90612a9d565b60405180910390fd5b600160009054906101000a900473ffffffffffffffffffffffffffffffffffffffff1673ffffffffffffffffffffffffffffffffffffffff1663f5e357dd3387848888888d6040518863ffffffff1660e01b815260040161121f9796959493929190612f14565b600060405180830381600087803b15801561123957600080fd5b505af115801561124d573d6000803e3d6000fd5b505050507f493e334cc75eb1f3d35f3947d0e2dcb32312f379b2027b2a3d064a929347be1d8686336040516112849392919061306c565b60405180910390a1505050505050565b60008073ffffffffffffffffffffffffffffffffffffffff168273ffffffffffffffffffffffffffffffffffffffff1603611304576040517f08c379a00000000000000000000000000000000000000000000000000000000081526004016112fb906130ef565b60405180910390fd5b8173ffffffffffffffffffffffffffffffffffffffff166003600085815260200190815260200160002060000160006002811061134457611343612abd565b5b0160009054906101000a900473ffffffffffffffffffffffffffffffffffffffff1673ffffffffffffffffffffffffffffffffffffffff160361138a5760009050611417565b8173ffffffffffffffffffffffffffffffffffffffff16600360008581526020019081526020016000206000016001600281106113ca576113c9612abd565b5b0160009054906101000a900473ffffffffffffffffffffffffffffffffffffffff1673ffffffffffffffffffffffffffffffffffffffff16036114105760019050611417565b620f423f90505b92915050565b60008061142a8484611294565b9050620f423f8103611471576040517f08c379a000000000000000000000000000000000000000000000000000000000815260040161146890612a9d565b60405180910390fd5b60006003600086815260200190815260200160002060020160006002811061149c5761149b612abd565b5b0154141580156114d757506000600360008681526020019081526020016000206002016001600281106114d2576114d1612abd565b5b015414155b6114e057600080fd5b600060018111156114f4576114f3611fbe565b5b60036000868152602001908152602001600020600501826002811061151c5761151b612abd565b5b602091828204019190069054906101000a900460ff16600181111561154457611543611fbe565b5b036115b2576003600085815260200190815260200160002060020181600161156c919061310f565b6002811061157d5761157c612abd565b5b01546003600086815260200190815260200160002060020182600281106115a7576115a6612abd565b5b015411915050611617565b600360008581526020019081526020016000206002018160016115d5919061310f565b600281106115e6576115e5612abd565b5b01546003600086815260200190815260200160002060020182600281106116105761160f612abd565b5b0154109150505b92915050565b60025481565b600061162d611b85565b611635611b85565b61163d611b30565b856000606b811061165157611650612abd565b5b6020020135935060005b60348110156116b757866001826116729190612ff3565b606b811061168357611682612abd565b5b602002013584826034811061169b5761169a612abd565b5b60200201818152505080806116af90612c2d565b91505061165b565b5060005b603481101561171757866035826116d29190612ff3565b606b81106116e3576116e2612abd565b5b60200201358382603481106116fb576116fa612abd565b5b602002018181525050808061170f90612c2d565b9150506116bb565b5060005b600281101561177757866069826117329190612ff3565b606b811061174357611742612abd565b5b602002013582826002811061175b5761175a612abd565b5b602002018181525050808061176f90612c2d565b91505061171b565b50600160009054906101000a900473ffffffffffffffffffffffffffffffffffffffff1673ffffffffffffffffffffffffffffffffffffffff166352c09b113389878787878c6040518863ffffffff1660e01b81526004016117df97969594939291906131a5565b600060405180830381600087803b1580156117f957600080fd5b505af115801561180d573d6000803e3d6000fd5b505050507f030a50f6612d1c98ccd93fb94928fb7aa4c2101f7f861e0f3531f08ad38f02ab8533604051611842929190612bd5565b60405180910390a150505050505050565b61185b611984565b600073ffffffffffffffffffffffffffffffffffffffff168173ffffffffffffffffffffffffffffffffffffffff16036118ca576040517f08c379a00000000000000000000000000000000000000000000000000000000081526004016118c19061328c565b60405180910390fd5b6118d381611a02565b50565b6118de611ace565b600160009054906101000a900473ffffffffffffffffffffffffffffffffffffffff1673ffffffffffffffffffffffffffffffffffffffff1663fe8ed57983856040518363ffffffff1660e01b815260040161193b92919061283f565b608060405180830381865afa158015611958573d6000803e3d6000fd5b505050506040513d601f19601f8201168201806040525081019061197c919061292e565b905092915050565b61198c611ac6565b73ffffffffffffffffffffffffffffffffffffffff166119aa610809565b73ffffffffffffffffffffffffffffffffffffffff1614611a00576040517f08c379a00000000000000000000000000000000000000000000000000000000081526004016119f7906132f8565b60405180910390fd5b565b60008060009054906101000a900473ffffffffffffffffffffffffffffffffffffffff169050816000806101000a81548173ffffffffffffffffffffffffffffffffffffffff021916908373ffffffffffffffffffffffffffffffffffffffff1602179055508173ffffffffffffffffffffffffffffffffffffffff168173ffffffffffffffffffffffffffffffffffffffff167f8be0079c531659141344cd1fd0a4f28419497f9722a3daafe3b4186f6b6457e060405160405180910390a35050565b600033905090565b6040518060800160405280600490602082028036833780820191505090505090565b6040518060800160405280611b03611ba8565b8152602001611b10611b30565b8152602001611b1d611bca565b8152602001611b2a611bec565b81525090565b6040518060400160405280600290602082028036833780820191505090505090565b6040518060600160405280611b65611b85565b8152602001611b72611b85565b8152602001611b7f611b30565b81525090565b604051806106800160405280603490602082028036833780820191505090505090565b6040518060400160405280600290602082028036833780820191505090505090565b6040518060400160405280600290602082028036833780820191505090505090565b6040518060400160405280600290602082028036833780820191505090505090565b6000604051905090565b600080fd5b6000819050919050565b611c3081611c1d565b8114611c3b57600080fd5b50565b600081359050611c4d81611c27565b92915050565b60008060408385031215611c6a57611c69611c18565b5b6000611c7885828601611c3e565b9250506020611c8985828601611c3e565b9150509250929050565b600060049050919050565b600081905092915050565b6000819050919050565b611cbc81611c1d565b82525050565b6000611cce8383611cb3565b60208301905092915050565b6000602082019050919050565b611cf081611c93565b611cfa8184611c9e565b9250611d0582611ca9565b8060005b83811015611d36578151611d1d8782611cc2565b9650611d2883611cda565b925050600181019050611d09565b505050505050565b6000608082019050611d536000830184611ce7565b92915050565b600060208284031215611d6f57611d6e611c18565b5b6000611d7d84828501611c3e565b91505092915050565b600060029050919050565b600081905092915050565b6000819050919050565b600073ffffffffffffffffffffffffffffffffffffffff82169050919050565b6000611dd182611da6565b9050919050565b611de181611dc6565b82525050565b6000611df38383611dd8565b60208301905092915050565b6000602082019050919050565b611e1581611d86565b611e1f8184611d91565b9250611e2a82611d9c565b8060005b83811015611e5b578151611e428782611de7565b9650611e4d83611dff565b925050600181019050611e2e565b505050505050565b600060029050919050565b600081905092915050565b6000819050919050565b6000602082019050919050565b611e9981611e63565b611ea38184611e6e565b9250611eae82611e79565b8060005b83811015611edf578151611ec68782611cc2565b9650611ed183611e83565b925050600181019050611eb2565b505050505050565b600060029050919050565b600081905092915050565b6000819050919050565b60008115159050919050565b611f1c81611f07565b82525050565b6000611f2e8383611f13565b60208301905092915050565b6000602082019050919050565b611f5081611ee7565b611f5a8184611ef2565b9250611f6582611efd565b8060005b83811015611f96578151611f7d8782611f22565b9650611f8883611f3a565b925050600181019050611f69565b505050505050565b600060029050919050565b600081905092915050565b6000819050919050565b7f4e487b7100000000000000000000000000000000000000000000000000000000600052602160045260246000fd5b60028110611ffe57611ffd611fbe565b5b50565b600081905061200f82611fed565b919050565b600061201f82612001565b9050919050565b61202f81612014565b82525050565b60006120418383612026565b60208301905092915050565b6000602082019050919050565b61206381611f9e565b61206d8184611fa9565b925061207882611fb4565b8060005b838110156120a95781516120908782612035565b965061209b8361204d565b92505060018101905061207c565b505050505050565b610100820160008201516120c86000850182611e0c565b5060208201516120db6040850182611e90565b5060408201516120ee6080850182611f47565b50606082015161210160c085018261205a565b50505050565b60006101008201905061211d60008301846120b1565b92915050565b6000819050919050565b600061214861214361213e84611da6565b612123565b611da6565b9050919050565b600061215a8261212d565b9050919050565b600061216c8261214f565b9050919050565b61217c81612161565b82525050565b60006020820190506121976000830184612173565b92915050565b6121a681611c1d565b82525050565b60006020820190506121c1600083018461219d565b92915050565b600081905092915050565b6121db81611e63565b6121e581846121c7565b92506121f082611e79565b8060005b838110156122215781516122088782611cc2565b965061221383611e83565b9250506001810190506121f4565b505050505050565b600060408201905061223e60008301846121d2565b92915050565b61224d81611dc6565b82525050565b60006020820190506122686000830184612244565b92915050565b6002811061227b57600080fd5b50565b60008135905061228d8161226e565b92915050565b600080604083850312156122aa576122a9611c18565b5b60006122b885828601611c3e565b92505060206122c98582860161227e565b9150509250929050565b600080fd5b6000601f19601f8301169050919050565b7f4e487b7100000000000000000000000000000000000000000000000000000000600052604160045260246000fd5b612321826122d8565b810181811067ffffffffffffffff821117156123405761233f6122e9565b5b80604052505050565b6000612353611c0e565b905061235f8282612318565b919050565b600067ffffffffffffffff82111561237f5761237e6122e9565b5b602082029050919050565b600080fd5b60006123a261239d84612364565b612349565b905080602084028301858111156123bc576123bb61238a565b5b835b818110156123e557806123d18882611c3e565b8452602084019350506020810190506123be565b5050509392505050565b600082601f830112612404576124036122d3565b5b600261241184828561238f565b91505092915050565b6000806060838503121561243157612430611c18565b5b600061243f85828601611c3e565b9250506020612450858286016123ef565b9150509250929050565b6000604082840312156124705761246f611c18565b5b600061247e848285016123ef565b91505092915050565b600060349050919050565b600081905092915050565b6000819050919050565b6000602082019050919050565b6124bd81612487565b6124c78184612492565b92506124d28261249d565b8060005b838110156125035781516124ea8782611cc2565b96506124f5836124a7565b9250506001810190506124d6565b505050505050565b610d408201600082015161252260008501826124b4565b5060208201516125366106808501826124b4565b50604082015161254a610d00850182611e90565b50505050565b6000610d4082019050612566600083018461250b565b92915050565b600067ffffffffffffffff821115612587576125866122e9565b5b602082029050919050565b60006125a56125a08461256c565b612349565b905080602084028301858111156125bf576125be61238a565b5b835b818110156125e857806125d48882611c3e565b8452602084019350506020810190506125c1565b5050509392505050565b600082601f830112612607576126066122d3565b5b6008612614848285612592565b91505092915050565b600080600080610180858703121561263857612637611c18565b5b600061264687828801611c3e565b945050602061265787828801611c3e565b9350506040612668878288016125f2565b92505061014061267a878288016123ef565b91505092959194509250565b60008060008060006101c086880312156126a3576126a2611c18565b5b60006126b188828901611c3e565b95505060206126c288828901611c3e565b94505060406126d3888289016125f2565b9350506101406126e5888289016123ef565b9250506101806126f7888289016123ef565b9150509295509295909350565b61270d81611dc6565b811461271857600080fd5b50565b60008135905061272a81612704565b92915050565b6000806040838503121561274757612746611c18565b5b600061275585828601611c3e565b92505060206127668582860161271b565b9150509250929050565b61277981611f07565b82525050565b60006020820190506127946000830184612770565b92915050565b6000819050826020606b02820111156127b6576127b561238a565b5b92915050565b6000806000610e8084860312156127d6576127d5611c18565b5b60006127e4868287016125f2565b9350506101006127f68682870161279a565b925050610e6061280886828701611c3e565b9150509250925092565b60006020828403121561282857612827611c18565b5b60006128368482850161271b565b91505092915050565b6000604082019050612854600083018561219d565b612861602083018461219d565b9392505050565b600067ffffffffffffffff821115612883576128826122e9565b5b602082029050919050565b60008151905061289d81611c27565b92915050565b60006128b66128b184612868565b612349565b905080602084028301858111156128d0576128cf61238a565b5b835b818110156128f957806128e5888261288e565b8452602084019350506020810190506128d2565b5050509392505050565b600082601f830112612918576129176122d3565b5b60046129258482856128a3565b91505092915050565b60006080828403121561294457612943611c18565b5b600061295284828501612903565b91505092915050565b60006020828403121561297157612970611c18565b5b600061297f8482850161288e565b91505092915050565b600061299b61299684612364565b612349565b905080602084028301858111156129b5576129b461238a565b5b835b818110156129de57806129ca888261288e565b8452602084019350506020810190506129b7565b5050509392505050565b600082601f8301126129fd576129fc6122d3565b5b6002612a0a848285612988565b91505092915050565b600060408284031215612a2957612a28611c18565b5b6000612a37848285016129e8565b91505092915050565b600082825260208201905092915050565b7f696e76616c696420706c61796572000000000000000000000000000000000000600082015250565b6000612a87600e83612a40565b9150612a9282612a51565b602082019050919050565b60006020820190508181036000830152612ab681612a7a565b9050919050565b7f4e487b7100000000000000000000000000000000000000000000000000000000600052603260045260246000fd5b7f706c6179657220616c7265616479206775657373656400000000000000000000600082015250565b6000612b22601683612a40565b9150612b2d82612aec565b602082019050919050565b60006020820190508181036000830152612b5181612b15565b9050919050565b612b6181612014565b82525050565b6000606082019050612b7c600083018661219d565b612b896020830185612b58565b612b966040830184612244565b949350505050565b6000608082019050612bb36000830186612244565b612bc060208301856121d2565b612bcd606083018461219d565b949350505050565b6000604082019050612bea600083018561219d565b612bf76020830184612244565b9392505050565b7f4e487b7100000000000000000000000000000000000000000000000000000000600052601160045260246000fd5b6000612c3882611c1d565b91507fffffffffffffffffffffffffffffffffffffffffffffffffffffffffffffffff8203612c6a57612c69612bfe565b5b600182019050919050565b6000819050919050565b6000612c9a612c95612c9084612c75565b612123565b611c1d565b9050919050565b612caa81612c7f565b82525050565b6000604082019050612cc56000830185612ca1565b612cd2602083018461219d565b9392505050565b600080fd5b600067ffffffffffffffff821115612cf957612cf86122e9565b5b602082029050919050565b6000612d17612d1284612cde565b612349565b90508060208402830185811115612d3157612d3061238a565b5b835b81811015612d5a5780612d46888261288e565b845260208401935050602081019050612d33565b5050509392505050565b600082601f830112612d7957612d786122d3565b5b6034612d86848285612d04565b91505092915050565b6000610d408284031215612da657612da5612cd9565b5b612db06060612349565b90506000612dc084828501612d64565b600083015250610680612dd584828501612d64565b602083015250610d00612dea848285016129e8565b60408301525092915050565b6000610d408284031215612e0d57612e0c611c18565b5b6000612e1b84828501612d8f565b91505092915050565b7f6e6f742067756573732079657400000000000000000000000000000000000000600082015250565b6000612e5a600d83612a40565b9150612e6582612e24565b602082019050919050565b60006020820190508181036000830152612e8981612e4d565b9050919050565b600060089050919050565b600081905092915050565b6000819050919050565b6000602082019050919050565b612ec681612e90565b612ed08184612e9b565b9250612edb82612ea6565b8060005b83811015612f0c578151612ef38782611cc2565b9650612efe83612eb0565b925050600181019050612edf565b505050505050565b600061020082019050612f2a600083018a612244565b612f37602083018961219d565b612f44604083018861219d565b612f516060830187612ebd565b612f5f6101608301866121d2565b612f6d6101a08301856121d2565b612f7b6101e083018461219d565b98975050505050505050565b7f496e76616c696420636172642076616c75650000000000000000000000000000600082015250565b6000612fbd601283612a40565b9150612fc882612f87565b602082019050919050565b60006020820190508181036000830152612fec81612fb0565b9050919050565b6000612ffe82611c1d565b915061300983611c1d565b925082820190508082111561302157613020612bfe565b5b92915050565b600060808201905061303c600083018761219d565b613049602083018661219d565b613056604083018561219d565b6130636060830184612244565b95945050505050565b6000606082019050613081600083018661219d565b61308e602083018561219d565b61309b6040830184612244565b949350505050565b7f656d707479206164647265737300000000000000000000000000000000000000600082015250565b60006130d9600d83612a40565b91506130e4826130a3565b602082019050919050565b60006020820190508181036000830152613108816130cc565b9050919050565b600061311a82611c1d565b915061312583611c1d565b925082820390508181111561313d5761313c612bfe565b5b92915050565b600081905092915050565b61315781612487565b6131618184613143565b925061316c8261249d565b8060005b8381101561319d5781516131848782611cc2565b965061318f836124a7565b925050600181019050613170565b505050505050565b6000610ea0820190506131bb600083018a612244565b6131c86020830189612ebd565b6131d661012083018861219d565b6131e461014083018761314e565b6131f26107c083018661314e565b613200610e408301856121d2565b61320e610e8083018461219d565b98975050505050505050565b7f4f776e61626c653a206e6577206f776e657220697320746865207a65726f206160008201527f6464726573730000000000000000000000000000000000000000000000000000602082015250565b6000613276602683612a40565b91506132818261321a565b604082019050919050565b600060208201905081810360008301526132a581613269565b9050919050565b7f4f776e61626c653a2063616c6c6572206973206e6f7420746865206f776e6572600082015250565b60006132e2602083612a40565b91506132ed826132ac565b602082019050919050565b60006020820190508181036000830152613311816132d5565b905091905056fea2646970667358221220fbc2e0e821d65de25df686c38518f7b1a3686a17e2014f287807724cd70d5bcd64736f6c63430008100033",
  "linkReferences": {},
  "deployedLinkReferences": {}
}