{
  "_format": "hh-sol-artifact-1",
  "contractName": "ShuffleEncryptV2VerifierKey",
  "sourceName": "contracts/shuffle/encrypt/shuffle_encrypt_v2.sol",
  "abi": [
    {
      "inputs": [],
      "name": "vkeyPart2",
      "outputs": [
        {
          "components": [
            {
              "internalType": "uint256",
              "name": "X",
              "type": "uint256"
            },
            {
              "internalType": "uint256",
              "name": "Y",
              "type": "uint256"
            }
          ],
          "internalType": "struct Shuffle_encrypt_v2Pairing.G1Point[116]",
          "name": "IC",
          "type": "tuple[116]"
        }
      ],
      "stateMutability": "pure",
      "type": "function"
    }
  ],
  "bytecode": "0x613541610053600b82828239805160001a607314610046577f4e487b7100000000000000000000000000000000000000000000000000000000600052600060045260246000fd5b30600052607381538281f3fe73000000000000000000000000000000000000000030146080604052600436106100355760003560e01c8063e835aec61461003a575b600080fd5b610042610058565b60405161004f91906134c0565b60405180910390f35b610060613394565b60405180604001604052807f010061c23ede771ae9bdf199b2d5f9fc7b11eabe6b457c5fab54ba3613dc265581526020017f2d84bdc03d679fd146e5e7ad7dc2d4b295bbc41e3ef5a1d2eb884d76b096d846815250816000607481106100c9576100c86134dc565b5b602002018190525060405180604001604052807f0d8b66f7be60cb18a4f0653bcc08681186a399ccd9f6e007403d190110aa0aae81526020017f095788025974edb098c37cca746fc360c920c43972633c5fcd40aee0538ae59e8152508160016074811061013a576101396134dc565b5b602002018190525060405180604001604052807e1c9200ffb89e3538a419aa3dcbdf6909b3c25ace9e2826d9633a6266ba3ffd81526020017f0eb9d4c66ed5c2e1b9e82830db78ee9bb378fc77f23db62b2ad6f6b7f388321a815250816002607481106101aa576101a96134dc565b5b602002018190525060405180604001604052807f17895afd4fe4354133554975e786d5970262d37352be59c2f6533e665c066c4681526020017f175b692b0ac1f39345db6568f04d06548003e1af98bc7830fe1f6b8e79a24ea48152508160036074811061021b5761021a6134dc565b5b602002018190525060405180604001604052807f0bc7ce273412799795e0f4be8e8897e33c3536d3106f37f6c78ea038138648a981526020017f1c9c473a6c255e04b2f0a33753f1fe0f068884c89437066328a089b19142feaf8152508160046074811061028c5761028b6134dc565b5b602002018190525060405180604001604052807f2d979f8a4d2e05542c6e4fa19f1ecf741310e572b67c0bbf2b5a9c4b5c2d82c481526020017f2d26e5967a9358e4912e83b997aca345181e0e3b920aabb1b8b7b2f71349824e815250816005607481106102fd576102fc6134dc565b5b602002018190525060405180604001604052807f03e68c9d52eeb9295851a39f261815d4e1e8a7417cbd138a5c920d2a66d49dc581526020017f1b7caf6cd570de876825f27110c198c678552b892415c690fdd8bbb04236a79e8152508160066074811061036e5761036d6134dc565b5b602002018190525060405180604001604052807f1d9b06281cb1a01e44bf0abcee1903a8b8a88fb0b3aff5d3fd73250b8ed01c8181526020017f0ed8865b5b00c793a2ca7cb50dee7ab4dd488f1979e035f837e96ada5f9ee3b2815250816007607481106103df576103de6134dc565b5b602002018190525060405180604001604052807f06db6af53c9ab370743f2df304812ba8dd67ab6ed3e5e4a39a78f85af923e7fe81526020017f227b381b296f8b3f460ac999f15ee3330146e484dadd7f72924fa769e2907bdc815250816008607481106104505761044f6134dc565b5b602002018190525060405180604001604052807f1855ee94a0d7ef6839304d5ae138636b32157ea3572b0fbf2ecde822a24822b081526020017f2c3595dc8eb31c2687ce48b87a1dd35100987b1d4abfe872101bc79cde2031c4815250816009607481106104c1576104c06134dc565b5b602002018190525060405180604001604052807f181c10dae5d82685b0177cfb86db8a037fb4a75e3f1f2f847f6c84f4341a463781526020017f1a0d26b581b1d64255b02d6b182154ad67d75cce275e6c594ad3e6ac870f66ed81525081600a60748110610532576105316134dc565b5b602002018190525060405180604001604052807f2a4a5afdf6e3895264db28ecf2e0db2943252d8b14753b7d0ccac7f56b9e907381526020017f0c002ac734f30cd894fd4b5a4133dbff30d48a9c5f7e55f3ffcc0c4a0fc4882f81525081600b607481106105a3576105a26134dc565b5b602002018190525060405180604001604052807f295b731c5f09f0ff29da9429ea89e7df2f2b42f560c316a4b6d28c963dac6a4581526020017f2d8de6d205e25e194a08170b8885728277445fb00fc09bf412d0f269ae86d1ce81525081600c60748110610614576106136134dc565b5b602002018190525060405180604001604052807f2be1d7a3848276fcab93364af6f694f58f866f7fb317e32b30253e4e1ed3b33c81526020017f305869d97bce344b2f155974b60a8e0fd6ebf2d01238b6dc473c58dd004968dd81525081600d60748110610685576106846134dc565b5b602002018190525060405180604001604052807f1b4ee688a36941d4d989468198ed71cd93ec494a260c5893551dc4996399088381526020017f2c53388a4e8fb522c91c8e039dd180178229e538a8e89c93b96eb658dd24b9b381525081600e607481106106f6576106f56134dc565b5b602002018190525060405180604001604052807f2200a9cf07a8719cce47e7d31e6bb1ab3aa6bcc52379d1f9afbf21cfd959a8c381526020017f167b033b7f0c67540a803cc994df14a6ff2807779e5d89b05a830dc2441522fd81525081600f60748110610767576107666134dc565b5b602002018190525060405180604001604052807f190dade4012ab3eb0f7c6d827b73d594e2537bb8cab660bce6bf48e5cbb088cf81526020017f2fb96080e323f2c551e94f4d8d773dbf6502a04e442c36596ef3ca0952ed91de815250816010607481106107d8576107d76134dc565b5b602002018190525060405180604001604052807f0f988c56ea1dd268eea9f09d0a7778bc0f2a277fe91409968265ba9365f6a83f81526020017f1468a0d076af6ebddf270484c310741f539fb52f1cddc96aecac4c47ae9f8ce081525081601160748110610849576108486134dc565b5b602002018190525060405180604001604052807f24ee2269a814c774d93cf34b15ade797c86f1c3778a9e7d6daa87e5a95fd859981526020017f163497444e5fe71d0b63629397ef67caee220c9ea1fdb6bf663018826026707d815250816012607481106108ba576108b96134dc565b5b602002018190525060405180604001604052807f05dfbe9dbe62003b97a5eb1441f980321bf8008a98e04dd5bd8bec38a1b9d12c81526020017f16e9f09dc8cce69cb36a05718dc8dbfbf40c4a536b6c3ce96c47f3fa7a3b6bb38152508160136074811061092b5761092a6134dc565b5b602002018190525060405180604001604052807f1521d5728d122940600e43958b40030a148041f3b62e52f0a5ce51691a12d11381526020017f05070133cf62fc9250d089d2611130927c15ba87b19ffa21b4b07ced86ea449b8152508160146074811061099c5761099b6134dc565b5b602002018190525060405180604001604052807f2cf5e2b94c79c9614b66bb9c71c7cd598ff03cde16995cd759afa7afd347fb6381526020017f068d7f34498ed5ce71d08e27694bbee6cbf82825f1bc7efadbdb63c848583c2d81525081601560748110610a0d57610a0c6134dc565b5b602002018190525060405180604001604052807f1a42bc2088b3c0a97afbbfd392c40b49b27229a6d22b71c8eff7425d6846121781526020017f0f9dcf140d31d7e95fe5a47f0e03ce8cb696cd9cba33355f5c47bc861b688dd381525081601660748110610a7e57610a7d6134dc565b5b602002018190525060405180604001604052807f2fdca693113f659d799bae4c2f85221addaeaa5c36398caca72b91393d495ab781526020017f1da98d55944056fc5799d83cef6632ef4102af3802f3f4a9ef39ddd9f934d75981525081601760748110610aef57610aee6134dc565b5b602002018190525060405180604001604052807f1766d1c39e6a632c842947ba5d8f2ebef1d3a596df208444b7308c9aa06d0a6a81526020017f235dafca7b761dd48fa124230f5b662c5979672fa6d7aa04c3d392a9ad1913a481525081601860748110610b6057610b5f6134dc565b5b602002018190525060405180604001604052807f2f0f8d1ea5a58954492201ad40d730126ccd357b24761229a5176afa19df671481526020017f0271af8fa091ee510680f4babbeb86f9b75e14044637aad73b81401edf7bca9581525081601960748110610bd157610bd06134dc565b5b602002018190525060405180604001604052807f21db38d599e3f15d4e2c66fcccc55419a029ca9949b86ebd04c4130916d933dd81526020017f0dc490c543b977e9cb0f352a7c973d2c72e01c20f4e699db4a1a7ae08d85dabf81525081601a60748110610c4257610c416134dc565b5b602002018190525060405180604001604052807f2f6880234d0722fb77af2639c8e1739e06ae5c63fe6a58d3ef7952135e20ab1d81526020017f24e9ade3720b0ad45fc78c19f12b40413f6f27fbceb95d3b44ad289edbb4336681525081601b60748110610cb357610cb26134dc565b5b602002018190525060405180604001604052807f1cbed68f77afe3b7a2d1f60a693aee99d673f04f8b8ff04d5ffd88bed83dee7b81526020017f0f40e4df2f119c8a05f0d4b1b8ac0763b7b84f15aff22e4f0b37befa94d0ecc881525081601c60748110610d2457610d236134dc565b5b602002018190525060405180604001604052807f1f820571dc26bcbdc9216e1c7d204c11b75b5957b3ec8134135979bb46c1bc8181526020017f08d31b436af2f9196335c51376f8ef9328ccb3dc2c9891825df5373cc6fe634d81525081601d60748110610d9557610d946134dc565b5b602002018190525060405180604001604052807f2b350364e0553907f8f7618c5bfc87356a1efaece99143668f4853483c68027181526020017e3461c1019603a8884ce1ce9f6f53447a84b047e37758360091de6b549ae43b81525081601e60748110610e0557610e046134dc565b5b602002018190525060405180604001604052807f0c02962421e143e9a7178680286fd15801e3236c6fe63421c5b350f6eff56ee181526020017f195aa5522bccc8c72ab419b24760893e81df565b5f746714d9cfb70a9628018e81525081601f60748110610e7657610e756134dc565b5b602002018190525060405180604001604052807f2e5c363b4ded603e1183b5fd79bb728aa3675316969014d19fe90fd08a49bdb381526020017f297c7f5596627f1059bf198ac4b70cab8cc66ad7ce408c67f8940884dde6ec2681525081602060748110610ee757610ee66134dc565b5b602002018190525060405180604001604052807f18343735388f277d8c78168607b6238b8d2216dd9eb38c1867a2151c1c74ff8b81526020017f152d641d47904f1c2cbc02c9383488a65b630d281a0af59200fe214069323d7081525081602160748110610f5857610f576134dc565b5b602002018190525060405180604001604052807f06cf0d11da3f2472783adb34e778899b877654162d24855975228b5f121678a081526020017f1b782359bd8eb2e63931f935762e6eea98c87c7366e57c5d0fe0aaa5c086091381525081602260748110610fc957610fc86134dc565b5b602002018190525060405180604001604052807f25983da53a0be7faecf4983da8e64adccb6b20e009f76904ea967119f2716b0f81526020017f11ba3c3d076e59fad3c21506032d01cb9b1b3fe238f07dd0afc0c00eb90972fb8152508160236074811061103a576110396134dc565b5b602002018190525060405180604001604052807f0a5afa87defafc4ac346d4fd43bef1f0f2626f690603657efaff708da2221e3681526020017f0366bc5524bbe4d40a2494ede34a598bda823d7da178ffaf07bcbf806ccd7c94815250816024607481106110ab576110aa6134dc565b5b602002018190525060405180604001604052807f0b8ed33f425b4cf52bd465789edd91b2c26535fb8df98195920235d0c540983b81526020017f2ed3ac4cb64be9bef16228e85c9ded58d349783e4b1699c84da16c217c83f8e28152508160256074811061111c5761111b6134dc565b5b602002018190525060405180604001604052807f26d4034cd1288942b2b9b25a9dce8c095007c78dc9f913252c0909e857109d8a81526020017f0420e835a42d0acdf1fcfb5c8c7a3942f13200a97f32d66e068ba31b63e0987a8152508160266074811061118d5761118c6134dc565b5b602002018190525060405180604001604052807f179c18cef702c7ac13555180c4f4927835c56e784cc051a54d486ec40037798c81526020017f1188c24dc86e9b1a9dd36c68e8b01f08ee3671ef60253d981ef04fcc14231da8815250816027607481106111fe576111fd6134dc565b5b602002018190525060405180604001604052807f0f896673b5cfe5346f22627bb5d15c0e16a11ddeb35f7990289f1b31f8a5292c81526020017f1565082db2813e7a1ff15b341ff5c4e40712f8805fc8db6838c794c1e231b5228152508160286074811061126f5761126e6134dc565b5b602002018190525060405180604001604052807f2dce95390a3322027931b26086f0370056f05f2d42f6f70c3d54ef7d95c8abe781526020017f2d36ec8465df03dc18753b2c80abf178b9d22c8aa8ae97ef0e1dfa64d08aeb63815250816029607481106112e0576112df6134dc565b5b602002018190525060405180604001604052807f1e3e19a7dc1b8a913eceb2cb3d70f76e0bd191e4239f0af9c1935c39b8dfdf1a81526020017f1463f87de130942ae31f7790ca1f477f6148d0ba9b941f08d7bf2a16a61fe4e281525081602a60748110611351576113506134dc565b5b602002018190525060405180604001604052807f1dfcac9b2a7d2a978cb208fb422c2ff1a72ceef7e3e444ba94b0772e2c4da05981526020017f0914ab1a232af2936c2c6f17b502f2aa739013843bef521e02646049d082422281525081602b607481106113c2576113c16134dc565b5b602002018190525060405180604001604052807f01f556c25a67faff5577611f58f57eedb5d8146e52f27cc5350b39887708c1a781526020017f03eca89f94388821b7d796cdec13ca5f6a4d493d58830aceb5d1fc6b826db4c081525081602c60748110611433576114326134dc565b5b602002018190525060405180604001604052807f207d48c7c3a95174acb72c8616667cef76a97bfff426d51c150b60d579dc593081526020017f24a05d4e1d9eaeacd8a53e4a2c5390e89125ad6c6c282dedb077b2d0cd7554b681525081602d607481106114a4576114a36134dc565b5b602002018190525060405180604001604052807f08a93a9c247ac660a262510de4223cf2ca1a52f761090d8121b0e0f0c2a43fd181526020017f1ee20eddd5f9ab471812cb667920db44b8916a78809a759b7bb502d97d97c04081525081602e60748110611515576115146134dc565b5b602002018190525060405180604001604052807f029515be25c72278111afa3076a22a65254213372d228d91ee73c588bcaa365d81526020017f0db6d48ce90907b5b9d7db244dc732fe709efc92d4e8f5997e4ae303df3f870f81525081602f60748110611586576115856134dc565b5b602002018190525060405180604001604052807f0d4a6400e5b8ceaab8c3cccae8d4515bafc015bbdb44795293c459e534442ff181526020017f2a25faccf9f64716e609555caee470b5278fad6b27f0cd2b69cb9a35c2d6b3e5815250816030607481106115f7576115f66134dc565b5b602002018190525060405180604001604052807f26d03ddbc84ae5c3849950c2d3fa87840b82ac4b50293312c2f9db276fd74cd581526020017f2696c3841501911b384805e6baf400104ae9777e1c37a5a19280ee0cb713102981525081603160748110611668576116676134dc565b5b602002018190525060405180604001604052807f0aaaaed8c968f88bd1673a96967e732686cbd623627f09ab70a88182314a25bb81526020017f26463f28eee5d24c649ae01c5f545a4448e7b4a50bf37369904a9f7d8ba88f4d815250816032607481106116d9576116d86134dc565b5b602002018190525060405180604001604052807f14a25772bcd3467231df140134b728dec5821595090d3a9f5509e6e1c05418eb81526020017f29665d0ae5d8e0ab5d69609f02055f2a987a6a9b915eef0b122d9ed3706a66c78152508160336074811061174a576117496134dc565b5b602002018190525060405180604001604052807f302431772b6a6ab161f7f54edacf25d4e1fae5815d4e0c58a8242800cbb92b2d81526020017f170e3ef4ae56c92a976481faa3906c1f6738587daae5962dccda2f9b406515b3815250816034607481106117bb576117ba6134dc565b5b602002018190525060405180604001604052807f23b1920f970fc0542c8ed4887b91ac0afd855019c6e17658c0b7bbe877eb30fa81526020017f1e13995bae0feda2a9e7bf3df1b310b22f8047c9e4d6dde69465381f8b95d8078152508160356074811061182c5761182b6134dc565b5b602002018190525060405180604001604052807f30365e9bcf8c64f46116e1576d255ae4271b5ca4347af14ff7138ff8af4641c681526020017f0ee00de3f18dba2a713fec8c82be0fc7f07adcc10d88a9edd06f6441f62b04758152508160366074811061189d5761189c6134dc565b5b602002018190525060405180604001604052807f2d0e829d1876cc9e4cc863f49c827bb714ccdde288a2966c1dcd0dce51e7560681526020017f1f3da90f3fb4c7a3c5acd9f5c19e0875e36d06c5401c3254cd64adf0ed3b109a8152508160376074811061190e5761190d6134dc565b5b602002018190525060405180604001604052807f21d0b5dde5faeefed3866eeb44a6fe193261d2e936d18d5560651f657c909b0981526020017f179db309d24f09df80dfcaa15bdaeeb96b60a66aff4e22747b2a6afe8e735b9b8152508160386074811061197f5761197e6134dc565b5b602002018190525060405180604001604052807f11d193e316f5ef9a53d6a4224cf3478b0c7c7d6d0f981dee9cd2a6a234bd4c7181526020017f2232cee4b84524f3cae0e3ac545f2d7bd86f8d20a5ffaddd3af3a64e09b235cb815250816039607481106119f0576119ef6134dc565b5b602002018190525060405180604001604052807f1f1522c6c5d168d2615d8fd3f5393efc508417a417abb199cf69646ba877840c81526020017e15cceadd3f1e26d73688518ac4522b6884125e3addcd674519a95c7041387c81525081603a60748110611a6057611a5f6134dc565b5b602002018190525060405180604001604052807f1f27ce44da132b8163bca9cb5a27e626de34d04889bbb12c1687eedd38597ecc81526020017f29b7eef8d59e804b153ff74542a506ad7b63de522ae0c6ab68312196c58b187e81525081603b60748110611ad157611ad06134dc565b5b602002018190525060405180604001604052807f144d687c97e5f6359e22fe6e1a51197e90ef061778205403fcebdcf3e6761aac81526020017f06218c81995c85bf5e8a6e711cf92db87d749b772d2fa0f0b36cf375ddcbe79b81525081603c60748110611b4257611b416134dc565b5b602002018190525060405180604001604052807f2de670b05006db1d2d5ac8cc6c8d527eda8f5a3ca0a37a7667b4388fd99d2f0b81526020017f176d9de34654bcd88ebc7d56ea1d554829629e441b6759662bb3aeccb4f4816a81525081603d60748110611bb357611bb26134dc565b5b602002018190525060405180604001604052807f02acd21c916ad793ca4ba6f49840372db3e62a9fbe375855b424a271ff5c1c8481526020017f149b8c9980b2d9dbb4d104456c61c22f69bf02ba9900968299d79ee616adc08081525081603e60748110611c2457611c236134dc565b5b602002018190525060405180604001604052807f3059d6f8a8836528c64e0c229a4ef4bca87e885c587d38c8103936cbc4bf8ea281526020017f250e7713ac70579dc7e27205464e24283b1406e09a3b58d6df84d9a361b2fa2b81525081603f60748110611c9557611c946134dc565b5b602002018190525060405180604001604052807f2902482a0815ecfcbe76172e23b3e66283cdd12234248770e59fa4762aa9368681526020017f023ac47f761388a32c4fc20af57171649a0fef022662e4ef7a2b203b07cc3c2981525081604060748110611d0657611d056134dc565b5b602002018190525060405180604001604052807f26ee5bf67d599391f285ff83328bd77faaf002c62502e266ea14b67c4ba714c981526020017f094bee8443f01c9f796d64d8f40607bbbd6b54475486663a563bc100e83780a981525081604160748110611d7757611d766134dc565b5b602002018190525060405180604001604052807f03e0b0d53c18af372a6669a8a6919001384f9634154a0b4d9365f1ddf0a6765a81526020017f03b8f027d5c0cc95a0f1b464cb572de15c2b0cacd87fe0fd5554be6194178ba981525081604260748110611de857611de76134dc565b5b602002018190525060405180604001604052807f1f64898e1a360524162a84e756b6c78b69ba0b493d046929a0ffe62adadcb74181526020017f2d49ad68b003db3ad81de7a7f02b520c228aed97525a4a753a816377a8169eca81525081604360748110611e5957611e586134dc565b5b602002018190525060405180604001604052807f241d20b57fc0805f15fe25879b0b2341d660c0790d5ba9de6e97c61bc6a9ddd781526020017f145d849623712af3d5158dd0804ddee21ac9b8f6d0ec2c41dc0078851571b29c81525081604460748110611eca57611ec96134dc565b5b602002018190525060405180604001604052807f26a6ab23f2d02ec5a3c061e21680ddb1e73700e0e7cfc4e5772a3be6895237fb81526020017f0bddf0b24ad78a71fefcc48f0fa78d9630a70d188868801048ade3ead21582af81525081604560748110611f3b57611f3a6134dc565b5b602002018190525060405180604001604052807f0475a0ac8151304e661814921cf4863f40b9ace5515c21507f3bd5f4067b61bb81526020017f0e74fcffb0efd8eb387f492dcd1939fdaa5b4fcd220d89657d25b47e7429684e81525081604660748110611fac57611fab6134dc565b5b602002018190525060405180604001604052807f2b67d86ae3d79dfa4054738741bd3e59faf39c8b22a6a48f7308db3cff4bee4281526020017f090d57effe037dd285a98908318af8a1d549829fa0eb6f0b88978603e8a7d30f8152508160476074811061201d5761201c6134dc565b5b602002018190525060405180604001604052807f19677ca44b1d9648ac3d40f6086029aed46fd0c2df56426fd0d426c189cf6b6181526020017f2b2b5f9017351f90da92e019e03d70f402986ea88b7b330036f12d9ef6ff927f8152508160486074811061208e5761208d6134dc565b5b602002018190525060405180604001604052807f1c0a425a0f7af115b99ff020b425cebeeed2352e53b0e469559dd65333b7370181526020017f231d7812308b46069f01613e017c8683ed371674beddbd6eb2f8dfb8d7caefe8815250816049607481106120ff576120fe6134dc565b5b602002018190525060405180604001604052807f29c42459dcac758904fb5d6b675497676010554c0dcb0e8a8d6fcac53218630d81526020017f0d77274910bc2984673f972ec180c689559fde0b12e5a8f5329b5a5838e6621781525081604a607481106121705761216f6134dc565b5b602002018190525060405180604001604052807f28d7eed819c9ac459fd0c18aa5dccadb617508bac73ee2182c5b08e86fdf8c0481526020017f2095c89aaf4a0b6dbb26bdf6f3d06e91e43395855ff9322559bd75cc5b15a1bb81525081604b607481106121e1576121e06134dc565b5b602002018190525060405180604001604052807f1eb82b29de6385dc3c6d43646ec0f95653003ad48350bfdfb2ec10901be4bb2781526020017f0b24a36073790322839fbcc5c2bd1faf993c5fdda0eca8c4a7c20d5b9df3c5f281525081604c60748110612252576122516134dc565b5b602002018190525060405180604001604052807f180de43a93cb136b7cd5b93124172ffacba4a9eb3424c6807ec4a36276c5841581526020017f191b8665aa9ed7d556d7d9d88b3f8927432dce0e766a77f13701fdd90eac435981525081604d607481106122c3576122c26134dc565b5b602002018190525060405180604001604052807f19bc647cad4cc700666979c308babd3742e16464b5d596c76c67f434ba24ea7a81526020017f068824ed707625dfa780687ceac20192a6e95645b6f0f83c6985a012baed759381525081604e60748110612334576123336134dc565b5b602002018190525060405180604001604052807f18f6df35eaf52b4a76367c628301747e9c9309137d4228cccc3dcee408ed480181526020017f268df2a1bb6e9872b973e4643c3684b1eedb03083d5f906a49333bc578f4104c81525081604f607481106123a5576123a46134dc565b5b602002018190525060405180604001604052807f2109c65aef07ca4164dcfcfbe865036632dea9ddb0d587b8e257624d4702a13081526020017f232889be0b553d42fe5251f7bb81362ba80b243e1e079dc10d1f507bf87c759781525081605060748110612416576124156134dc565b5b602002018190525060405180604001604052807f1abf718eac90027f7db3b47b7def839f1114a92473b00ccd49aca25dc8d2e40081526020017f20dc7d8fc19f09c23d57a19d2dede780bd421b20c0a422aa337aa490f3c9c12081525081605160748110612487576124866134dc565b5b602002018190525060405180604001604052807f19a6b340a1a9953fb214b78db06e5a1550aed18fc1b1a54137b0a7d1ccf1a8a081526020017f0a42f422b637587c10cd7c90830fe75ce043ce61a2ad8af5d889600c1bf5a16c815250816052607481106124f8576124f76134dc565b5b602002018190525060405180604001604052807f1fcc2a68e48455b544409b54e028cc153e3de1bfc6b195930ece1e12bf216da681526020017f215b635659a1d88de3ee8afead7286adf95edbaabd3e279fb9719caae9f77c7181525081605360748110612569576125686134dc565b5b602002018190525060405180604001604052807f1fc00a1aa59982ef515d408258bbb34bcf95589389f9039c2d69ba9d3a48726481526020017f0dd65366cc8fdd15f4fd2fc498a34a7c34c73445c32f105421789b0b57d51e32815250816054607481106125da576125d96134dc565b5b602002018190525060405180604001604052807f2caf898a148c807bf30a4312e74bb36e491398c5b90cf237cd7962234cfd970181526020017f0fefe3d2a1ae789297f8c5334c883b4ea3514dc127d929a25072aac3398f44438152508160556074811061264b5761264a6134dc565b5b602002018190525060405180604001604052807f0c82b01e28b912640ba8187a02d249daf265834e430c395b79021328889cf5be81526020017f0744514d7d1b95d86a7aef0c284bf7832fa71429e0024fd9603cffac40656d07815250816056607481106126bc576126bb6134dc565b5b602002018190525060405180604001604052807f0287da52313481e44c264662761a75a16167495e35450c78a18c0ae3d54b066181526020017f03a42e7d44059bd80995ec67611afcf9aff438db6881b8f7fbdaf358ae9a18178152508160576074811061272d5761272c6134dc565b5b602002018190525060405180604001604052807f02f8fa67f2b7025dd80878993c9eeebbb57d41d7b6cf13b7701ce05d8186f4e581526020017f10feca05495deec965db5471bf48aa58f116a53ae39ff5c9793750d13b85ca868152508160586074811061279e5761279d6134dc565b5b602002018190525060405180604001604052807f249ea82649e02595a738c71493a3ed47c1cd5d8f724b96b76e5fa3b5af90f66481526020017f0cd2db968ca0bf796270c40bf1c78620397fcbb091fb83c422276bf4342f909a8152508160596074811061280f5761280e6134dc565b5b602002018190525060405180604001604052807f162eef4ee512990561894a2db83db06986218e24d0e022057e090e5f546347fe81526020017f277debce47ad3ee6adb76065458dbdae51dac3cc27b84194dd2c359c8eefab2981525081605a607481106128805761287f6134dc565b5b602002018190525060405180604001604052807f0b8697924a8b78d507838e3382edcf124382e981c65010f81a626e4f27423df281526020017f2f7b65e0b1f7d14d82899d36ba84f91ebb1417c7250c0bf2c7768a39b15be01681525081605b607481106128f1576128f06134dc565b5b602002018190525060405180604001604052807f28f39e842ae605bddc54bc0d4381f75475efce0c84f7be296201cca4480651eb81526020017f13bbaf0e46cdef77621d87be1fdb1e62119f14406088473436dc0d5c208fb42a81525081605c60748110612962576129616134dc565b5b602002018190525060405180604001604052807f278cc1fc7b2f2470a1a0147245bbe64cf40a418fe795e70b944106802d5a126a81526020017f09d65a055fab7c97c277dfbff1a484e70047339b035b833be8bd2d7ca0839bed81525081605d607481106129d3576129d26134dc565b5b602002018190525060405180604001604052807f2c51238bb6a3c1119f841214395f771a44a8ab310e83a1c0728d897c1aea7b6481526020017f0a4e2dfc31ba7b0875db20d0c53d1f58193fb4ebd959415974a253036da8fbea81525081605e60748110612a4457612a436134dc565b5b602002018190525060405180604001604052807f2a594b7214b26b53d21c5c180a1014987ac268e568e751edaf795e603076296081526020017f2734366ac53662cac180592ea204487b42385ea3e23ae4524df490ae5242d82581525081605f60748110612ab557612ab46134dc565b5b602002018190525060405180604001604052807f273ed77a170b0877f1261db2d3abac0f67fc04897a3cfc6beb4114d9f108903c81526020017f096b98f6ea1855dceae3f6f6e648cd1a3550f57af6d9b0781577fef4b31374c081525081606060748110612b2657612b256134dc565b5b602002018190525060405180604001604052807f1025499f92640576bd372b89dfb75efdeaf892904444d212825e6bb798c0197281526020017f1bec87cd294e69c2a93cc9f7db8d30032fc65c14c8fe8d9318e6258c8d3f4ab281525081606160748110612b9757612b966134dc565b5b602002018190525060405180604001604052807f0ac75724e473a2bf21bda436f48c337cc89ffc5d4263db9f8587a1a087af91bd81526020017f0dbb8cdc411f650a355f981cf77a332e6a511ad13cb978dd3634d554700eb0b481525081606260748110612c0857612c076134dc565b5b602002018190525060405180604001604052807f23927bb6627a9f303da84450cedf1a69f70a3213c952d73e7152b8400187408881526020017f073d80e855ea4ebf25b961843096c56e3b661e19fa72ecd7b12f5dc99f18b17f81525081606360748110612c7957612c786134dc565b5b602002018190525060405180604001604052807f06e88484ee4112f36d60a5b8eb924a14a7014179714fcdb86a104cd6af04603281526020017f0dbb9c342426764786594bd4b6240d0c83b219d19d3d73d4095c67763d1a1adc81525081606460748110612cea57612ce96134dc565b5b602002018190525060405180604001604052807f141e8ffc3a35f69acb9f0d2cc45ac77faa14e4a8a7de1df2c0c9a7dc7aee38ff81526020017f29dad5730cc093d69859acc102675fc44186644e1ef64ab7933984496eeb384281525081606560748110612d5b57612d5a6134dc565b5b602002018190525060405180604001604052807f0aa8836f478353a8c2a89d2d2299f168b0f11afc9430c0a2931b6fe320a5445f81526020017f2e64b338f6a253cdde76d315537f46d44d35cd57e6938c03fd917a8265d1637781525081606660748110612dcc57612dcb6134dc565b5b602002018190525060405180604001604052807f2769923a601bf013336ad3bbd36307d2f41386165ecc3acf6ea88529d11b2c4781526020017f15595b73aab68a78e0047b7e72f28d19ad8c61adc00cd663aebc230f4cc5a19c81525081606760748110612e3d57612e3c6134dc565b5b602002018190525060405180604001604052807f09da759c369b6671909b8bdbb1f8bf4b47da6e13ebe80b2455373c6a6a9028fd81526020017f07ff5e41f91285bb925962cf53199c3c8146363818652200bb618be8d8cd012c81525081606860748110612eae57612ead6134dc565b5b602002018190525060405180604001604052807f1262b9ec74b20d5045b9f5f15c840abb04f86d881417a92ae6cb70e727bae21d81526020017f1cc2cb37c4f0ab3a0b9eb614d4957d253ad1e26ab626c3b80c1eab005f7e5cc681525081606960748110612f1f57612f1e6134dc565b5b602002018190525060405180604001604052807f1ed07ea9e1cca19d76da308c99e5c35c2d1f51c8a31a920da4d322c2ab8c267481526020017f18df37e2702eb9f21ef9f829c77210c05c043f7a92290abcd2e8ccc47c776bb881525081606a60748110612f9057612f8f6134dc565b5b602002018190525060405180604001604052807f02201249608d61d7fa620ce797fc1c84a658f980f4be1fa6640ecb6b0baa743181526020017f1d83c4efe225831221387e4d161b610d562115c0dd5c9a1934cf32e1b7a9ade681525081606b60748110613001576130006134dc565b5b602002018190525060405180604001604052807f242dbed310b519f67ce34bb99154ecb806bc01d2345a6e622641ce01d417c42581526020017f04d8d5052bb40a9ab53e6a93b466db7eb645988382cb801c3876bae269ba28b681525081606c60748110613072576130716134dc565b5b602002018190525060405180604001604052807f2b5035dcd6798ef664e87e0e93982827e3142699ec7c023a5e332428c211bca781526020017f04fb2749798a369dbec18a8b68474b64b21b937a4e149560009ecf71ed73a1b581525081606d607481106130e3576130e26134dc565b5b602002018190525060405180604001604052807f163e96a271a1944fbc710e9dd5e889ca2cc4691a3f1e1795880b92133e08082381526020017f049bdf6504a136886c6f7d479054dc8e60921d10fa91021c3420cc987ca3416e81525081606e60748110613154576131536134dc565b5b602002018190525060405180604001604052807f0b28b4357ab2f4561eb8b4291f55a4b18665fe02e1c39bce962c8c175d23043e81526020017f0af2c45dc74efbc45e80fa285641f745b50841c23833ab64eeb90ebf6b99f41881525081606f607481106131c5576131c46134dc565b5b602002018190525060405180604001604052807f1a0b41e57f6da822690371a29a5b53d6cd753d3f4317fc7125c4d959ef9cfd9e81526020017f03d018bd0c6e676ea797b1120956a94f8a6f7095ff3ba0fd7ec4d10518a9ec5d81525081607060748110613236576132356134dc565b5b602002018190525060405180604001604052807f0302cff2e427ac415cac5d4cf8b1ebb7bc73f91476c8b264c6d842087bb8adf381526020017f0316482c42e5cf2daf0e38077fe732895dfa6038688f4e03cdf24a7468085c40815250816071607481106132a7576132a66134dc565b5b602002018190525060405180604001604052807f19b2941b373af8fe8ac5fced730649e66f26ef28e32d43c729583c7e0ca889b781526020017f1812dd3cb4477d6975227a2370be7409d21d112ac2f38ad7a976855c745fab3081525081607260748110613318576133176134dc565b5b602002018190525060405180604001604052807f0d8a813ba0310139fb0548d1e2257f62510ded4de6e0b54b15b371521bb42a0281526020017f19c42ac512be7df80f9f5fb9405e3d6e6d6f19d04f5794b64c8697991198576781525081607360748110613389576133886134dc565b5b602002018190525090565b60405180610e8001604052806074905b6133ac6133c2565b8152602001906001900390816133a45790505090565b604051806040016040528060008152602001600081525090565b600060749050919050565b600081905092915050565b6000819050919050565b6000819050919050565b61340f816133fc565b82525050565b60408201600082015161342b6000850182613406565b50602082015161343e6020850182613406565b50505050565b60006134508383613415565b60408301905092915050565b6000602082019050919050565b613472816133dc565b61347c81846133e7565b9250613487826133f2565b8060005b838110156134b857815161349f8782613444565b96506134aa8361345c565b92505060018101905061348b565b505050505050565b6000611d00820190506134d66000830184613469565b92915050565b7f4e487b7100000000000000000000000000000000000000000000000000000000600052603260045260246000fdfea264697066735822122094f397e899a6135d1759b46810db2dbf2767818a841f5d66f2131a34d911ad8a64736f6c63430008100033",
  "linkReferences": {},
  "deployedLinkReferences": {}
}