{
  "_format": "hh-sol-artifact-1",
  "contractName": "HearthStone",
  "sourceName": "artifacts/cache/solpp-generated-contracts/examples/HearthStone.sol",
  "abi": [
    {
      "inputs": [
        {
          "internalType": "contract IShuffleStateManager",
          "name": "_shuffle",
          "type": "address"
        }
      ],
      "stateMutability": "nonpayable",
      "type": "constructor"
    },
    {
      "anonymous": false,
      "inputs": [
        {
          "indexed": true,
          "internalType": "uint256",
          "name": "hsId",
          "type": "uint256"
        },
        {
          "indexed": false,
          "internalType": "address",
          "name": "player",
          "type": "address"
        },
        {
          "indexed": false,
          "internalType": "uint256",
          "name": "playerIdx",
          "type": "uint256"
        },
        {
          "indexed": false,
          "internalType": "uint256",
          "name": "cardIdx",
          "type": "uint256"
        }
      ],
      "name": "ChooseCard",
      "type": "event"
    },
    {
      "anonymous": false,
      "inputs": [
        {
          "indexed": true,
          "internalType": "uint256",
          "name": "hsId",
          "type": "uint256"
        },
        {
          "indexed": false,
          "internalType": "uint256",
          "name": "shuffleId",
          "type": "uint256"
        },
        {
          "indexed": false,
          "internalType": "address",
          "name": "creator",
          "type": "address"
        }
      ],
      "name": "CreateGame",
      "type": "event"
    },
    {
      "anonymous": false,
      "inputs": [
        {
          "indexed": true,
          "internalType": "uint256",
          "name": "hsId",
          "type": "uint256"
        },
        {
          "indexed": false,
          "internalType": "address",
          "name": "player",
          "type": "address"
        },
        {
          "indexed": false,
          "internalType": "uint256",
          "name": "playerIdx",
          "type": "uint256"
        }
      ],
      "name": "DealEnd",
      "type": "event"
    },
    {
      "anonymous": false,
      "inputs": [
        {
          "indexed": true,
          "internalType": "uint256",
          "name": "hsId",
          "type": "uint256"
        },
        {
          "indexed": false,
          "internalType": "address",
          "name": "player",
          "type": "address"
        },
        {
          "indexed": false,
          "internalType": "uint256",
          "name": "playerIdx",
          "type": "uint256"
        }
      ],
      "name": "EndGame",
      "type": "event"
    },
    {
      "anonymous": false,
      "inputs": [
        {
          "indexed": true,
          "internalType": "uint256",
          "name": "hsId",
          "type": "uint256"
        },
        {
          "indexed": false,
          "internalType": "uint256",
          "name": "shuffleId",
          "type": "uint256"
        },
        {
          "indexed": false,
          "internalType": "address",
          "name": "joiner",
          "type": "address"
        }
      ],
      "name": "JoinGame",
      "type": "event"
    },
    {
      "anonymous": false,
      "inputs": [
        {
          "indexed": true,
          "internalType": "uint256",
          "name": "hsId",
          "type": "uint256"
        },
        {
          "indexed": false,
          "internalType": "address",
          "name": "player",
          "type": "address"
        },
        {
          "indexed": false,
          "internalType": "uint256",
          "name": "playerIdx",
          "type": "uint256"
        }
      ],
      "name": "NextPlayer",
      "type": "event"
    },
    {
      "anonymous": false,
      "inputs": [
        {
          "indexed": true,
          "internalType": "uint256",
          "name": "hsId",
          "type": "uint256"
        },
        {
          "indexed": false,
          "internalType": "address",
          "name": "player",
          "type": "address"
        },
        {
          "indexed": false,
          "internalType": "uint256",
          "name": "playerIdx",
          "type": "uint256"
        },
        {
          "indexed": false,
          "internalType": "uint256",
          "name": "cardIdx",
          "type": "uint256"
        },
        {
          "indexed": false,
          "internalType": "uint256",
          "name": "cardValue",
          "type": "uint256"
        }
      ],
      "name": "OpenCard",
      "type": "event"
    },
    {
      "inputs": [],
      "name": "INVALID_INDEX",
      "outputs": [
        {
          "internalType": "uint256",
          "name": "",
          "type": "uint256"
        }
      ],
      "stateMutability": "view",
      "type": "function"
    },
    {
      "inputs": [],
      "name": "cardConfig",
      "outputs": [
        {
          "internalType": "enum DeckConfig",
          "name": "",
          "type": "uint8"
        }
      ],
      "stateMutability": "pure",
      "type": "function"
    },
    {
      "inputs": [
        {
          "internalType": "uint256",
          "name": "hsId",
          "type": "uint256"
        },
        {
          "internalType": "uint256",
          "name": "playerIdx",
          "type": "uint256"
        },
        {
          "internalType": "uint256",
          "name": "cardIdx",
          "type": "uint256"
        }
      ],
      "name": "chooseCard",
      "outputs": [],
      "stateMutability": "nonpayable",
      "type": "function"
    },
    {
      "inputs": [
        {
          "internalType": "uint256",
          "name": "pkX",
          "type": "uint256"
        },
        {
          "internalType": "uint256",
          "name": "pkY",
          "type": "uint256"
        }
      ],
      "name": "createShuffleForCreator",
      "outputs": [],
      "stateMutability": "nonpayable",
      "type": "function"
    },
    {
      "inputs": [
        {
          "internalType": "uint256",
          "name": "hsId",
          "type": "uint256"
        },
        {
          "internalType": "uint256",
          "name": "pkX",
          "type": "uint256"
        },
        {
          "internalType": "uint256",
          "name": "pkY",
          "type": "uint256"
        }
      ],
      "name": "createShuffleForJoiner",
      "outputs": [],
      "stateMutability": "nonpayable",
      "type": "function"
    },
    {
      "inputs": [
        {
          "internalType": "uint256",
          "name": "hsId",
          "type": "uint256"
        },
        {
          "internalType": "uint256",
          "name": "shuffleId",
          "type": "uint256"
        },
        {
          "internalType": "uint256",
          "name": "playerIdx",
          "type": "uint256"
        }
      ],
      "name": "dealCardsToPlayer",
      "outputs": [],
      "stateMutability": "nonpayable",
      "type": "function"
    },
    {
      "inputs": [
        {
          "internalType": "uint256",
          "name": "hsId",
          "type": "uint256"
        }
      ],
      "name": "getGameInfo",
      "outputs": [
        {
          "components": [
            {
              "internalType": "address[2]",
              "name": "players",
              "type": "address[2]"
            },
            {
              "internalType": "uint256[2]",
              "name": "health",
              "type": "uint256[2]"
            },
            {
              "internalType": "uint256[2]",
              "name": "shield",
              "type": "uint256[2]"
            },
            {
              "internalType": "uint256[2]",
              "name": "shuffleIds",
              "type": "uint256[2]"
            },
            {
              "internalType": "uint256",
              "name": "curPlayerIndex",
              "type": "uint256"
            },
            {
              "internalType": "uint256",
              "name": "pkX",
              "type": "uint256"
            },
            {
              "internalType": "uint256",
              "name": "pkY",
              "type": "uint256"
            }
          ],
          "internalType": "struct Game",
          "name": "",
          "type": "tuple"
        }
      ],
      "stateMutability": "view",
      "type": "function"
    },
    {
      "inputs": [],
      "name": "largestHSId",
      "outputs": [
        {
          "internalType": "uint256",
          "name": "",
          "type": "uint256"
        }
      ],
      "stateMutability": "view",
      "type": "function"
    },
    {
      "inputs": [
        {
          "internalType": "uint256",
          "name": "hsId",
          "type": "uint256"
        },
        {
          "internalType": "uint256",
          "name": "playerIdx",
          "type": "uint256"
        }
      ],
      "name": "moveToChooseStage",
      "outputs": [],
      "stateMutability": "nonpayable",
      "type": "function"
    },
    {
      "inputs": [
        {
          "internalType": "uint256",
          "name": "hsId",
          "type": "uint256"
        },
        {
          "internalType": "uint256",
          "name": "shuffleId",
          "type": "uint256"
        },
        {
          "internalType": "uint256",
          "name": "playerIdx",
          "type": "uint256"
        }
      ],
      "name": "moveToShuffleStage",
      "outputs": [],
      "stateMutability": "nonpayable",
      "type": "function"
    },
    {
      "inputs": [
        {
          "internalType": "uint256",
          "name": "hsId",
          "type": "uint256"
        },
        {
          "internalType": "uint256",
          "name": "playerIdx",
          "type": "uint256"
        },
        {
          "internalType": "uint256",
          "name": "cardIdx",
          "type": "uint256"
        }
      ],
      "name": "settle",
      "outputs": [],
      "stateMutability": "nonpayable",
      "type": "function"
    },
    {
      "inputs": [],
      "name": "shuffle",
      "outputs": [
        {
          "internalType": "contract IShuffleStateManager",
          "name": "",
          "type": "address"
        }
      ],
      "stateMutability": "view",
      "type": "function"
    }
  ],
  "bytecode": "0x608060405234801561001057600080fd5b5060405161194738038061194783398101604081905261002f91610059565b600080546001600160a01b0319166001600160a01b03929092169190911790556064600155610087565b60006020828403121561006a578081fd5b81516001600160a01b0381168114610080578182fd5b9392505050565b6118b1806100966000396000f3fe608060405234801561001057600080fd5b50600436106100b45760003560e01c806342506c471161007157806342506c471461014a57806344f244941461015d57806347e1d55014610170578063574cdded14610190578063da01cba4146101a3578063fc7d6667146101b657600080fd5b806309a9851d146100b95780631ff13b6f146100ce5780632520bf04146100e157806325c48db0146101115780632cbaa93a1461012857806337cf53311461013b575b600080fd5b6100cc6100c73660046115d0565b6101c0565b005b6100cc6100dc3660046115af565b6103c6565b6000546100f4906001600160a01b031681565b6040516001600160a01b0390911681526020015b60405180910390f35b61011a60015481565b604051908152602001610108565b6100cc6101363660046115d0565b610668565b60016040516101089190611669565b6100cc6101583660046115d0565b61074e565b6100cc61016b3660046115af565b610b77565b61018361017e36600461157f565b610c1f565b60405161010891906116c8565b6100cc61019e3660046115d0565b610d44565b6100cc6101b13660046115d0565b610f92565b61011a620f423f81565b600083815260026020819052604090912090839081106101f057634e487b7160e01b600052603260045260246000fd5b01546001600160a01b031633146102455760405162461bcd60e51b81526020600482015260146024820152730d2dcecc2d8d2c840e0d8c2f2cae440d2dcc8caf60631b60448201526064015b60405180910390fd5b60008381526002602052604090206008015482146102985760405162461bcd60e51b815260206004820152601060248201526f3737ba1034b7103cb7bab9103a3ab93760811b604482015260640161023c565b60408051602481018590526044810184905260648082018490528251808303909101815260849091018252602080820180516001600160e01b031663574cdded60e01b1790526000805487825260029283905293902091926001600160a01b03169163b608151e916006909101908690811061032457634e487b7160e01b600052603260045260246000fd5b015460006001856040518563ffffffff1660e01b815260040161034a94939291906117a3565b600060405180830381600087803b15801561036457600080fd5b505af1158015610378573d6000803e3d6000fd5b505060408051338152602081018790529081018590528692507fb717821f236b2f06d37ae90addc550b7b4a4403dca8d2d6f52b5ebb858bc551891506060015b60405180910390a250505050565b6001600081546103d59061184a565b9091555060018054600090815260026020819052604080832080546001600160a01b0319163317905592548252828220601e9082015590549151635a3b27ab60e11b815260048101919091526001600160a01b03919091169063b4764f5690602401602060405180830381600087803b15801561045157600080fd5b505af1158015610465573d6000803e3d6000fd5b505050506040513d601f19601f820116820180604052508101906104899190611597565b6001805460009081526002602081815260408084206006908101969096558454845280842060090188905584548452808420600a01879055935480845284842090950154845160248101879052604481018290526064808201869052865180830390910181526084909101865280830180516001600160e01b031663368072e960e21b179052845496909452919052915163765718d760e01b815290926001600160a01b03169163765718d79161054591908590600401611782565b600060405180830381600087803b15801561055f57600080fd5b505af1158015610573573d6000803e3d6000fd5b50506000805460015482526002602052604091829020600601549151632e14c1d560e21b81526001600160a01b03909116935063b853075492506105c0919033908890889060040161175e565b602060405180830381600087803b1580156105da57600080fd5b505af11580156105ee573d6000803e3d6000fd5b505050506040513d601f19601f820116820180604052508101906106129190611597565b5060015460008181526002602052604081207f16dca524ff25a377d2e6cecca0f661869e5237f50a4de1699a507346bc5184ea9160069091010154604080519182523360208301520160405180910390a2505050565b6000546001600160a01b031633146106925760405162461bcd60e51b815260040161023c90611691565b60408051602080820183526103ff82528251602481018790526044808201869052845180830390910181526064909101845290810180516001600160e01b031663113c912560e21b1790526000805493516318e82a2b60e11b8152929391926001600160a01b03909216916331d0545691610715918891879187906004016117d5565b600060405180830381600087803b15801561072f57600080fd5b505af1158015610743573d6000803e3d6000fd5b505050505050505050565b6000838152600260205260409020546001600160a01b03161580159061078c57506000838152600260205260408120600101546001600160a01b0316145b6107c85760405162461bcd60e51b815260206004820152600d60248201526c1a5b9d985b1a59081adcc81a59609a1b604482015260640161023c565b60008381526002602081905260408083206001810180546001600160a01b03191633179055601e6003820155600a60059091015591549151635a3b27ab60e11b815260048101919091526001600160a01b03919091169063b4764f5690602401602060405180830381600087803b15801561084257600080fd5b505af1158015610856573d6000803e3d6000fd5b505050506040513d601f19601f8201168201806040525081019061087a9190611597565b6000848152600260208181526040808420600701859055805160248101899052604481018690526001606480830191909152825180830390910181526084909101825280830180516001600160e01b031663368072e960e21b179052845494899052929091525163765718d760e01b815290926001600160a01b039092169163765718d79161090e91908590600401611782565b600060405180830381600087803b15801561092857600080fd5b505af115801561093c573d6000803e3d6000fd5b5050600080548782526002602052604091829020600601549151632e14c1d560e21b81526001600160a01b03909116935063b85307549250610987919033908890889060040161175e565b602060405180830381600087803b1580156109a157600080fd5b505af11580156109b5573d6000803e3d6000fd5b505050506040513d601f19601f820116820180604052508101906109d99190611597565b50600080548582526002602052604091829020600701549151632e14c1d560e21b81526001600160a01b039091169163b853075491610a21919033908890889060040161175e565b602060405180830381600087803b158015610a3b57600080fd5b505af1158015610a4f573d6000803e3d6000fd5b505050506040513d601f19601f82011682018060405250810190610a739190611597565b50600080548582526002602052604091829020600781015481546009830154600a909301549451632e14c1d560e21b81526001600160a01b039485169563b853075495610ac6959316929160040161175e565b602060405180830381600087803b158015610ae057600080fd5b505af1158015610af4573d6000803e3d6000fd5b505050506040513d601f19601f82011682018060405250810190610b189190611597565b50600084815260026020526040812060098101829055600a81019190915560018054917f6381813fbaf8e97409adf6e29a2058b85bbd2b336a3449ef16b01d1c64dfa84a916006909101015460408051918252336020830152016103b8565b6000546001600160a01b03163314610ba15760405162461bcd60e51b815260040161023c90611691565b817f1c558caf720f34c8be89bbf853eb90fc0e66e2f294b60c0879ee23f762004480600260008581526020019081526020016000206000018360028110610bf857634e487b7160e01b600052603260045260246000fd5b0154604080516001600160a01b039092168252602082018590520160405180910390a25050565b610c2761150c565b6000828152600260208190526040918290208251610120810193849052929091839160e0830191849182845b81546001600160a01b03168152600190910190602001808311610c5357505050918352505060408051808201918290526020909201919060028481019182845b815481526020019060010190808311610c93575050509183525050604080518082019182905260209092019190600484019060029082845b815481526020019060010190808311610ccb575050509183525050604080518082019182905260209092019190600684019060029082845b815481526020019060010190808311610d0357505050505081526020016008820154815260200160098201548152602001600a820154815250509050919050565b6000546001600160a01b03163314610d6e5760405162461bcd60e51b815260040161023c90611691565b6000805484825260026020819052604083206001600160a01b039092169163261fe4ca9160069091019086908110610db657634e487b7160e01b600052603260045260246000fd5b0154846040518363ffffffff1660e01b8152600401610ddf929190918252602082015260400190565b60206040518083038186803b158015610df757600080fd5b505afa158015610e0b573d6000803e3d6000fd5b505050506040513d601f19601f82011682018060405250810190610e2f9190611597565b905060008054906101000a90046001600160a01b03166001600160a01b031663fc7d66676040518163ffffffff1660e01b815260040160206040518083038186803b158015610e7d57600080fd5b505afa158015610e91573d6000803e3d6000fd5b505050506040513d601f19601f82011682018060405250810190610eb59190611597565b811415610ef95760405162461bcd60e51b8152602060048201526012602482015271696e76616c696420636172642076616c756560701b604482015260640161023c565b837ff5621f375d46a339561169bc5dfc577f25a5a9b224e2f848935a1353ecf03677600260008781526020019081526020016000206000018560028110610f5057634e487b7160e01b600052603260045260246000fd5b0154604080516001600160a01b0390921682526020820187905281018590526060810184905260800160405180910390a2610f8c84848361106a565b50505050565b6000546001600160a01b03163314610fbc5760405162461bcd60e51b815260040161023c90611691565b604080516024810185905260448101849052606480820184905282518083039091018152608490910182526020810180516001600160e01b031663165d549d60e11b179052600054915163f3c7e26d60e01b815290916001600160a01b03169063f3c7e26d906110329086908590600401611782565b600060405180830381600087803b15801561104c57600080fd5b505af1158015611060573d6000803e3d6000fd5b5050505050505050565b6000611075826114a8565b905080602001516002600086815260200190815260200160002060040184600281106110b157634e487b7160e01b600052603260045260246000fd5b0155805160008581526002602052604090206004016110d1856001611833565b600281106110ef57634e487b7160e01b600052603260045260246000fd5b015460008681526002602081905260409091200161110e866001611833565b6002811061112c57634e487b7160e01b600052603260045260246000fd5b015461113891906117fb565b111561138e578051600085815260026020526040902060040161115c856001611833565b6002811061117a57634e487b7160e01b600052603260045260246000fd5b0154106111d8578051600085815260026020526040902060040161119f856001611833565b600281106111bd57634e487b7160e01b600052603260045260246000fd5b0160008282546111cd9190611833565b909155506112ad9050565b60008481526002602052604090206004016111f4846001611833565b6002811061121257634e487b7160e01b600052603260045260246000fd5b015481516112209190611833565b60008581526002602081905260409091200161123d856001611833565b6002811061125b57634e487b7160e01b600052603260045260246000fd5b01600082825461126b9190611833565b9091555050600084815260026020526040812060040161128c856001611833565b600281106112aa57634e487b7160e01b600052603260045260246000fd5b01555b60008481526002602052604081206008018054916112ca8361184a565b909155505060008481526002602081905260409091206008015414156112fd576000848152600260205260408120600801555b6000848152600260208190526040909120600881015486927fb739a060405243a67b6cdad444e1b2570a0c7bc00ff19d2c7099f441854ad912929190811061135557634e487b7160e01b600052603260045260246000fd5b01546000878152600260209081526040918290206008015482516001600160a01b039094168452908301520160405180910390a2610f8c565b60008481526002602081905260408220016113aa856001611833565b600281106113c857634e487b7160e01b600052603260045260246000fd5b0155600084815260026020819052604090912085917fd4775d747509ff43f3176c54e6b58580a996a608cd7b59156d6dd4dd8631f2bb91908690811061141e57634e487b7160e01b600052603260045260246000fd5b0154604080516001600160a01b039092168252602082018790520160405180910390a2600080548582526002602081905260409092206001600160a01b039091169163d0399bb891600601908690811061148857634e487b7160e01b600052603260045260246000fd5b01546040518263ffffffff1660e01b815260040161103291815260200190565b604080518082019091526000808252602082015260006114c9600a84611813565b9050806114dc5760108252600560208301525b80600114156114f157600b8252600a60208301525b80600214156115065760038252601260208301525b50919050565b6040518060e0016040528061151f611561565b815260200161152c611561565b8152602001611539611561565b8152602001611546611561565b81526020016000815260200160008152602001600081525090565b60405180604001604052806002906020820280368337509192915050565b600060208284031215611590578081fd5b5035919050565b6000602082840312156115a8578081fd5b5051919050565b600080604083850312156115c1578081fd5b50508035926020909101359150565b6000806000606084860312156115e4578081fd5b505081359360208301359350604090920135919050565b8060005b6002811015610f8c5781518452602093840193909101906001016115ff565b60008151808452815b8181101561164357602081850181015186830182015201611627565b818111156116545782602083870101525b50601f01601f19169290920160200192915050565b602081016003831061168b57634e487b7160e01b600052602160045260246000fd5b91905290565b6020808252601e908201527f43616c6c6572206973206e6f742073687566666c65206d616e616765722e0000604082015260600190565b81516101608201908260005b60028110156116fc5782516001600160a01b03168252602092830192909101906001016116d4565b505050602083015161171160408401826115fb565b50604083015161172460808401826115fb565b50606083015161173760c08401826115fb565b50608083015161010083015260a083015161012083015260c0909201516101409091015290565b9384526001600160a01b039290921660208401526040830152606082015260800190565b82815260406020820152600061179b604083018461161e565b949350505050565b84815283602082015260ff831660408201526080606082015260006117cb608083018461161e565b9695505050505050565b848152835160208201528260408201526080606082015260006117cb608083018461161e565b6000821982111561180e5761180e611865565b500190565b60008261182e57634e487b7160e01b81526012600452602481fd5b500490565b60008282101561184557611845611865565b500390565b600060001982141561185e5761185e611865565b5060010190565b634e487b7160e01b600052601160045260246000fdfea264697066735822122090a3996d7f1a5ab8c34fac148965861d45a78c8b4d08911d1090a14947a974b864736f6c63430008040033",
  "linkReferences": {},
  "deployedLinkReferences": {}
}