{
  "_format": "hh-sol-artifact-1",
  "contractName": "HearthStone",
  "sourceName": "artifacts/cache/solpp-generated-contracts/examples/HearthStone.sol",
  "abi": [
    {
      "inputs": [
        {
          "internalType": "contract IShuffleStateManager",
          "name": "_shuffle",
          "type": "address"
        }
      ],
      "stateMutability": "nonpayable",
      "type": "constructor"
    },
    {
      "anonymous": false,
      "inputs": [
        {
          "indexed": true,
          "internalType": "uint256",
          "name": "hsId",
          "type": "uint256"
        },
        {
          "indexed": false,
          "internalType": "address",
          "name": "player",
          "type": "address"
        },
        {
          "indexed": false,
          "internalType": "uint256",
          "name": "playerIdx",
          "type": "uint256"
        },
        {
          "indexed": false,
          "internalType": "uint256",
          "name": "cardIdx",
          "type": "uint256"
        }
      ],
      "name": "ChooseCard",
      "type": "event"
    },
    {
      "anonymous": false,
      "inputs": [
        {
          "indexed": true,
          "internalType": "uint256",
          "name": "hsId",
          "type": "uint256"
        },
        {
          "indexed": false,
          "internalType": "uint256",
          "name": "shuffleId",
          "type": "uint256"
        },
        {
          "indexed": false,
          "internalType": "address",
          "name": "creator",
          "type": "address"
        }
      ],
      "name": "CreateGame",
      "type": "event"
    },
    {
      "anonymous": false,
      "inputs": [
        {
          "indexed": true,
          "internalType": "uint256",
          "name": "hsId",
          "type": "uint256"
        },
        {
          "indexed": false,
          "internalType": "uint256",
          "name": "playerIdx",
          "type": "uint256"
        }
      ],
      "name": "EndGame",
      "type": "event"
    },
    {
      "anonymous": false,
      "inputs": [
        {
          "indexed": true,
          "internalType": "uint256",
          "name": "hsId",
          "type": "uint256"
        },
        {
          "indexed": false,
          "internalType": "uint256",
          "name": "shuffleId",
          "type": "uint256"
        },
        {
          "indexed": false,
          "internalType": "address",
          "name": "joiner",
          "type": "address"
        }
      ],
      "name": "JoinGame",
      "type": "event"
    },
    {
      "anonymous": false,
      "inputs": [
        {
          "indexed": true,
          "internalType": "uint256",
          "name": "hsId",
          "type": "uint256"
        },
        {
          "indexed": false,
          "internalType": "uint256",
          "name": "playerIdx",
          "type": "uint256"
        }
      ],
      "name": "NextPlayer",
      "type": "event"
    },
    {
      "anonymous": false,
      "inputs": [
        {
          "indexed": true,
          "internalType": "uint256",
          "name": "hsId",
          "type": "uint256"
        },
        {
          "indexed": false,
          "internalType": "uint256",
          "name": "playerIdx",
          "type": "uint256"
        },
        {
          "indexed": false,
          "internalType": "uint256",
          "name": "cardIdx",
          "type": "uint256"
        },
        {
          "indexed": false,
          "internalType": "uint256",
          "name": "cardValue",
          "type": "uint256"
        }
      ],
      "name": "OpenCard",
      "type": "event"
    },
    {
      "inputs": [],
      "name": "INVALID_INDEX",
      "outputs": [
        {
          "internalType": "uint256",
          "name": "",
          "type": "uint256"
        }
      ],
      "stateMutability": "view",
      "type": "function"
    },
    {
      "inputs": [],
      "name": "cardConfig",
      "outputs": [
        {
          "internalType": "enum DeckConfig",
          "name": "",
          "type": "uint8"
        }
      ],
      "stateMutability": "pure",
      "type": "function"
    },
    {
      "inputs": [
        {
          "internalType": "uint256",
          "name": "hsId",
          "type": "uint256"
        },
        {
          "internalType": "uint256",
          "name": "playerIdx",
          "type": "uint256"
        },
        {
          "internalType": "uint256",
          "name": "cardIdx",
          "type": "uint256"
        }
      ],
      "name": "chooseCard",
      "outputs": [],
      "stateMutability": "nonpayable",
      "type": "function"
    },
    {
      "inputs": [
        {
          "internalType": "uint256",
          "name": "pkX",
          "type": "uint256"
        },
        {
          "internalType": "uint256",
          "name": "pkY",
          "type": "uint256"
        }
      ],
      "name": "createShuffleForCreator",
      "outputs": [],
      "stateMutability": "nonpayable",
      "type": "function"
    },
    {
      "inputs": [
        {
          "internalType": "uint256",
          "name": "hsId",
          "type": "uint256"
        },
        {
          "internalType": "uint256",
          "name": "pkX",
          "type": "uint256"
        },
        {
          "internalType": "uint256",
          "name": "pkY",
          "type": "uint256"
        }
      ],
      "name": "createShuffleForJoiner",
      "outputs": [],
      "stateMutability": "nonpayable",
      "type": "function"
    },
    {
      "inputs": [
        {
          "internalType": "uint256",
          "name": "shuffleId",
          "type": "uint256"
        }
      ],
      "name": "dealCardsToPlayer",
      "outputs": [],
      "stateMutability": "nonpayable",
      "type": "function"
    },
    {
      "inputs": [
        {
          "internalType": "uint256",
          "name": "hsId",
          "type": "uint256"
        }
      ],
      "name": "getGameInfo",
      "outputs": [
        {
          "components": [
            {
              "internalType": "address[2]",
              "name": "players",
              "type": "address[2]"
            },
            {
              "internalType": "uint256[2]",
              "name": "health",
              "type": "uint256[2]"
            },
            {
              "internalType": "uint256[2]",
              "name": "shield",
              "type": "uint256[2]"
            },
            {
              "internalType": "uint256[2]",
              "name": "shuffleIds",
              "type": "uint256[2]"
            },
            {
              "internalType": "uint256",
              "name": "curPlayerIndex",
              "type": "uint256"
            },
            {
              "internalType": "uint256",
              "name": "pkX",
              "type": "uint256"
            },
            {
              "internalType": "uint256",
              "name": "pkY",
              "type": "uint256"
            }
          ],
          "internalType": "struct Game",
          "name": "",
          "type": "tuple"
        }
      ],
      "stateMutability": "view",
      "type": "function"
    },
    {
      "inputs": [],
      "name": "largestHSId",
      "outputs": [
        {
          "internalType": "uint256",
          "name": "",
          "type": "uint256"
        }
      ],
      "stateMutability": "view",
      "type": "function"
    },
    {
      "inputs": [
        {
          "internalType": "uint256",
          "name": "shuffleId",
          "type": "uint256"
        }
      ],
      "name": "moveToShuffleStage",
      "outputs": [],
      "stateMutability": "nonpayable",
      "type": "function"
    },
    {
      "inputs": [
        {
          "internalType": "uint256",
          "name": "hsId",
          "type": "uint256"
        },
        {
          "internalType": "uint256",
          "name": "playerIdx",
          "type": "uint256"
        },
        {
          "internalType": "uint256",
          "name": "cardIdx",
          "type": "uint256"
        }
      ],
      "name": "settle",
      "outputs": [],
      "stateMutability": "nonpayable",
      "type": "function"
    },
    {
      "inputs": [],
      "name": "shuffle",
      "outputs": [
        {
          "internalType": "contract IShuffleStateManager",
          "name": "",
          "type": "address"
        }
      ],
      "stateMutability": "view",
      "type": "function"
    }
  ],
  "bytecode": "0x608060405234801561001057600080fd5b5060405161179a38038061179a83398101604081905261002f91610059565b600080546001600160a01b0319166001600160a01b03929092169190911790556064600155610087565b60006020828403121561006a578081fd5b81516001600160a01b0381168114610080578182fd5b9392505050565b611704806100966000396000f3fe608060405234801561001057600080fd5b50600436106100a95760003560e01c806337cf53311161007157806337cf53311461013057806342506c471461013f57806347e1d550146101525780634d116d6f14610172578063574cdded14610185578063fc7d66671461019857600080fd5b806309a9851d146100ae5780631ff13b6f146100c35780632520bf04146100d657806325c48db01461010657806336e665af1461011d575b600080fd5b6100c16100bc366004611423565b6101a2565b005b6100c16100d1366004611402565b6103a8565b6000546100e9906001600160a01b031681565b6040516001600160a01b0390911681526020015b60405180910390f35b61010f60015481565b6040519081526020016100fd565b6100c161012b3660046113d2565b61063c565b60016040516100fd91906114bc565b6100c161014d366004611423565b6106e6565b6101656101603660046113d2565b610b0d565b6040516100fd919061151b565b6100c16101803660046113d2565b610c32565b6100c1610193366004611423565b610cfa565b61010f620f423f81565b600083815260026020819052604090912090839081106101d257634e487b7160e01b600052603260045260246000fd5b01546001600160a01b031633146102275760405162461bcd60e51b81526020600482015260146024820152730d2dcecc2d8d2c840e0d8c2f2cae440d2dcc8caf60631b60448201526064015b60405180910390fd5b600083815260026020526040902060080154821461027a5760405162461bcd60e51b815260206004820152601060248201526f3737ba1034b7103cb7bab9103a3ab93760811b604482015260640161021e565b60408051602481018590526044810184905260648082018490528251808303909101815260849091018252602080820180516001600160e01b031663574cdded60e01b1790526000805487825260029283905293902091926001600160a01b03169163b608151e916006909101908690811061030657634e487b7160e01b600052603260045260246000fd5b015460006001856040518563ffffffff1660e01b815260040161032c94939291906115f6565b600060405180830381600087803b15801561034657600080fd5b505af115801561035a573d6000803e3d6000fd5b505060408051338152602081018790529081018590528692507fb717821f236b2f06d37ae90addc550b7b4a4403dca8d2d6f52b5ebb858bc551891506060015b60405180910390a250505050565b6001600081546103b79061169d565b9091555060018054600090815260026020819052604080832080546001600160a01b0319163317905592548252828220601e9082015590549151635a3b27ab60e11b815260048101919091526001600160a01b03919091169063b4764f5690602401602060405180830381600087803b15801561043357600080fd5b505af1158015610447573d6000803e3d6000fd5b505050506040513d601f19601f8201168201806040525081019061046b91906113ea565b6001805460009081526002602081815260408084206006908101969096558454845280842060090188905584548452808420600a0187905593548084528484209095015484516024808201839052865180830390910181526044909101865280830180516001600160e01b0316634d116d6f60e01b179052845496909452919052915163765718d760e01b815290926001600160a01b03169163765718d791610519919085906004016115d5565b600060405180830381600087803b15801561053357600080fd5b505af1158015610547573d6000803e3d6000fd5b50506000805460015482526002602052604091829020600601549151632e14c1d560e21b81526001600160a01b03909116935063b8530754925061059491903390889088906004016115b1565b602060405180830381600087803b1580156105ae57600080fd5b505af11580156105c2573d6000803e3d6000fd5b505050506040513d601f19601f820116820180604052508101906105e691906113ea565b5060015460008181526002602052604081207f16dca524ff25a377d2e6cecca0f661869e5237f50a4de1699a507346bc5184ea9160069091010154604080519182523360208301520160405180910390a2505050565b6000546001600160a01b031633146106665760405162461bcd60e51b815260040161021e906114e4565b604080516020810182526103ff81526000805492516318e82a2b60e11b815291926060926001600160a01b03909116916331d05456916106af9187918791908790600401611628565b600060405180830381600087803b1580156106c957600080fd5b505af11580156106dd573d6000803e3d6000fd5b50505050505050565b6000838152600260205260409020546001600160a01b03161580159061072457506000838152600260205260408120600101546001600160a01b0316145b6107605760405162461bcd60e51b815260206004820152600d60248201526c1a5b9d985b1a59081adcc81a59609a1b604482015260640161021e565b6000838152600260208190526040808320600190810180546001600160a01b0319163317905580548452818420601e600390910155548352808320600a60059091015591549151635a3b27ab60e11b815260048101919091526001600160a01b03919091169063b4764f5690602401602060405180830381600087803b1580156107e957600080fd5b505af11580156107fd573d6000803e3d6000fd5b505050506040513d601f19601f8201168201806040525081019061082191906113ea565b600084815260026020818152604080842060070185905580516024808201879052825180830390910181526044909101825280830180516001600160e01b0316634d116d6f60e01b179052845494899052929091525163765718d760e01b815290926001600160a01b039092169163765718d7916108a4919085906004016115d5565b600060405180830381600087803b1580156108be57600080fd5b505af11580156108d2573d6000803e3d6000fd5b5050600080548782526002602052604091829020600601549151632e14c1d560e21b81526001600160a01b03909116935063b8530754925061091d91903390889088906004016115b1565b602060405180830381600087803b15801561093757600080fd5b505af115801561094b573d6000803e3d6000fd5b505050506040513d601f19601f8201168201806040525081019061096f91906113ea565b50600080548582526002602052604091829020600701549151632e14c1d560e21b81526001600160a01b039091169163b8530754916109b791903390889088906004016115b1565b602060405180830381600087803b1580156109d157600080fd5b505af11580156109e5573d6000803e3d6000fd5b505050506040513d601f19601f82011682018060405250810190610a0991906113ea565b50600080548582526002602052604091829020600781015481546009830154600a909301549451632e14c1d560e21b81526001600160a01b039485169563b853075495610a5c95931692916004016115b1565b602060405180830381600087803b158015610a7657600080fd5b505af1158015610a8a573d6000803e3d6000fd5b505050506040513d601f19601f82011682018060405250810190610aae91906113ea565b50600084815260026020526040812060098101829055600a81019190915560018054917f6381813fbaf8e97409adf6e29a2058b85bbd2b336a3449ef16b01d1c64dfa84a9160069091010154604080519182523360208301520161039a565b610b1561135f565b6000828152600260208190526040918290208251610120810193849052929091839160e0830191849182845b81546001600160a01b03168152600190910190602001808311610b4157505050918352505060408051808201918290526020909201919060028481019182845b815481526020019060010190808311610b81575050509183525050604080518082019182905260209092019190600484019060029082845b815481526020019060010190808311610bb9575050509183525050604080518082019182905260209092019190600684019060029082845b815481526020019060010190808311610bf157505050505081526020016008820154815260200160098201548152602001600a820154815250509050919050565b6000546001600160a01b03163314610c5c5760405162461bcd60e51b815260040161021e906114e4565b60408051602480820184905282518083039091018152604490910182526020810180516001600160e01b03166336e665af60e01b179052600054915163f3c7e26d60e01b815290916001600160a01b03169063f3c7e26d90610cc490859085906004016115d5565b600060405180830381600087803b158015610cde57600080fd5b505af1158015610cf2573d6000803e3d6000fd5b505050505050565b6000546001600160a01b03163314610d245760405162461bcd60e51b815260040161021e906114e4565b6000805484825260026020819052604083206001600160a01b039092169163261fe4ca9160069091019086908110610d6c57634e487b7160e01b600052603260045260246000fd5b0154846040518363ffffffff1660e01b8152600401610d95929190918252602082015260400190565b60206040518083038186803b158015610dad57600080fd5b505afa158015610dc1573d6000803e3d6000fd5b505050506040513d601f19601f82011682018060405250810190610de591906113ea565b905060008054906101000a90046001600160a01b03166001600160a01b031663fc7d66676040518163ffffffff1660e01b815260040160206040518083038186803b158015610e3357600080fd5b505afa158015610e47573d6000803e3d6000fd5b505050506040513d601f19601f82011682018060405250810190610e6b91906113ea565b811415610eaf5760405162461bcd60e51b8152602060048201526012602482015271696e76616c696420636172642076616c756560701b604482015260640161021e565b604080518481526020810184905290810182905284907f32d0b1d2bc31ac7d33bea0b85d040f7285df127a185af23f39ed39f6368b6cfa9060600160405180910390a2610efd848483610f03565b50505050565b6000610f0e826112fb565b90508060200151600260008681526020019081526020016000206004018460028110610f4a57634e487b7160e01b600052603260045260246000fd5b015580516000858152600260205260409020600401610f6a856001611686565b60028110610f8857634e487b7160e01b600052603260045260246000fd5b0154600086815260026020819052604090912001610fa7866001611686565b60028110610fc557634e487b7160e01b600052603260045260246000fd5b0154610fd1919061164e565b11156111eb5780516000858152600260205260409020600401610ff5856001611686565b6002811061101357634e487b7160e01b600052603260045260246000fd5b0154106110715780516000858152600260205260409020600401611038856001611686565b6002811061105657634e487b7160e01b600052603260045260246000fd5b0160008282546110669190611686565b909155506111469050565b600084815260026020526040902060040161108d846001611686565b600281106110ab57634e487b7160e01b600052603260045260246000fd5b015481516110b99190611686565b6000858152600260208190526040909120016110d6856001611686565b600281106110f457634e487b7160e01b600052603260045260246000fd5b0160008282546111049190611686565b90915550506000848152600260205260408120600401611125856001611686565b6002811061114357634e487b7160e01b600052603260045260246000fd5b01555b60008481526002602052604081206008018054916111638361169d565b90915550506000848152600260208190526040909120600801541415611196576000848152600260205260408120600801555b837fab1f15a07106ea82d514d294fd467f3db0ed74957a1037e9c8ea91ef50c267e160026000878152602001908152602001600020600801546040516111de91815260200190565b60405180910390a2610efd565b6000848152600260208190526040822001611207856001611686565b6002811061122557634e487b7160e01b600052603260045260246000fd5b015560405183815284907f7a33579220d1c4ac01f744294990d871f5367239589962f184683b3757c874969060200160405180910390a2600080548582526002602081905260409092206001600160a01b039091169163d0399bb89160060190869081106112a357634e487b7160e01b600052603260045260246000fd5b01546040518263ffffffff1660e01b81526004016112c391815260200190565b600060405180830381600087803b1580156112dd57600080fd5b505af11580156112f1573d6000803e3d6000fd5b5050505050505050565b6040805180820190915260008082526020820152600061131c600a84611666565b90508061132f5760108252600560208301525b806001141561134457600b8252600a60208301525b80600214156113595760038252601260208301525b50919050565b6040518060e001604052806113726113b4565b815260200161137f6113b4565b815260200161138c6113b4565b81526020016113996113b4565b81526020016000815260200160008152602001600081525090565b60405180604001604052806002906020820280368337509192915050565b6000602082840312156113e3578081fd5b5035919050565b6000602082840312156113fb578081fd5b5051919050565b60008060408385031215611414578081fd5b50508035926020909101359150565b600080600060608486031215611437578081fd5b505081359360208301359350604090920135919050565b8060005b6002811015610efd578151845260209384019390910190600101611452565b60008151808452815b818110156114965760208185018101518683018201520161147a565b818111156114a75782602083870101525b50601f01601f19169290920160200192915050565b60208101600383106114de57634e487b7160e01b600052602160045260246000fd5b91905290565b6020808252601e908201527f43616c6c6572206973206e6f742073687566666c65206d616e616765722e0000604082015260600190565b81516101608201908260005b600281101561154f5782516001600160a01b0316825260209283019290910190600101611527565b5050506020830151611564604084018261144e565b506040830151611577608084018261144e565b50606083015161158a60c084018261144e565b50608083015161010083015260a083015161012083015260c0909201516101409091015290565b9384526001600160a01b039290921660208401526040830152606082015260800190565b8281526040602082015260006115ee6040830184611471565b949350505050565b84815283602082015260ff8316604082015260806060820152600061161e6080830184611471565b9695505050505050565b8481528351602082015282604082015260806060820152600061161e6080830184611471565b60008219821115611661576116616116b8565b500190565b60008261168157634e487b7160e01b81526012600452602481fd5b500490565b600082821015611698576116986116b8565b500390565b60006000198214156116b1576116b16116b8565b5060010190565b634e487b7160e01b600052601160045260246000fdfea26469706673582212204bc84e196ce930d372c52aadff6670ad1ef14377a9875fa1852cd9b57161fa6464736f6c63430008040033",
  "linkReferences": {},
  "deployedLinkReferences": {}
}