{
  "_format": "hh-sol-artifact-1",
  "contractName": "ShuffleManager",
  "sourceName": "contracts/shuffle/ShuffleManager.sol",
  "abi": [
    {
      "inputs": [
        {
          "internalType": "address",
          "name": "decryptVerifier_",
          "type": "address"
        },
        {
          "internalType": "address",
          "name": "deck52EncVerifier",
          "type": "address"
        },
        {
          "internalType": "address",
          "name": "deck30EncVerifier",
          "type": "address"
        },
        {
          "internalType": "address",
          "name": "deck5EncVerifier",
          "type": "address"
        }
      ],
      "stateMutability": "nonpayable",
      "type": "constructor"
    },
    {
      "anonymous": false,
      "inputs": [
        {
          "indexed": false,
          "internalType": "address",
          "name": "caller",
          "type": "address"
        },
        {
          "indexed": false,
          "internalType": "bytes",
          "name": "data",
          "type": "bytes"
        }
      ],
      "name": "GameContractCallError",
      "type": "event"
    },
    {
      "anonymous": false,
      "inputs": [
        {
          "indexed": true,
          "internalType": "address",
          "name": "previousOwner",
          "type": "address"
        },
        {
          "indexed": true,
          "internalType": "address",
          "name": "newOwner",
          "type": "address"
        }
      ],
      "name": "OwnershipTransferred",
      "type": "event"
    },
    {
      "anonymous": false,
      "inputs": [
        {
          "indexed": false,
          "internalType": "uint256",
          "name": "gameId",
          "type": "uint256"
        },
        {
          "indexed": false,
          "internalType": "uint256",
          "name": "playerIndex",
          "type": "uint256"
        },
        {
          "indexed": false,
          "internalType": "enum BaseState",
          "name": "state",
          "type": "uint8"
        }
      ],
      "name": "PlayerTurn",
      "type": "event"
    },
    {
      "anonymous": false,
      "inputs": [
        {
          "indexed": true,
          "internalType": "uint256",
          "name": "gameId",
          "type": "uint256"
        },
        {
          "indexed": false,
          "internalType": "uint256",
          "name": "playerId",
          "type": "uint256"
        },
        {
          "indexed": false,
          "internalType": "address",
          "name": "playerAddr",
          "type": "address"
        }
      ],
      "name": "Register",
      "type": "event"
    },
    {
      "inputs": [
        {
          "internalType": "uint256",
          "name": "",
          "type": "uint256"
        }
      ],
      "name": "INIT_X1",
      "outputs": [
        {
          "internalType": "uint256",
          "name": "",
          "type": "uint256"
        }
      ],
      "stateMutability": "view",
      "type": "function"
    },
    {
      "inputs": [],
      "name": "INVALID_INDEX",
      "outputs": [
        {
          "internalType": "uint256",
          "name": "",
          "type": "uint256"
        }
      ],
      "stateMutability": "view",
      "type": "function"
    },
    {
      "inputs": [
        {
          "internalType": "uint256",
          "name": "gameId",
          "type": "uint256"
        }
      ],
      "name": "cardConfig",
      "outputs": [
        {
          "internalType": "enum DeckConfig",
          "name": "",
          "type": "uint8"
        }
      ],
      "stateMutability": "view",
      "type": "function"
    },
    {
      "inputs": [
        {
          "internalType": "uint8",
          "name": "numPlayers",
          "type": "uint8"
        }
      ],
      "name": "createShuffleGame",
      "outputs": [
        {
          "internalType": "uint256",
          "name": "",
          "type": "uint256"
        }
      ],
      "stateMutability": "nonpayable",
      "type": "function"
    },
    {
      "inputs": [
        {
          "internalType": "uint256",
          "name": "gameId",
          "type": "uint256"
        }
      ],
      "name": "curPlayerIndex",
      "outputs": [
        {
          "internalType": "uint256",
          "name": "",
          "type": "uint256"
        }
      ],
      "stateMutability": "view",
      "type": "function"
    },
    {
      "inputs": [
        {
          "internalType": "uint256",
          "name": "gameId",
          "type": "uint256"
        },
        {
          "components": [
            {
              "internalType": "uint256",
              "name": "_data",
              "type": "uint256"
            }
          ],
          "internalType": "struct BitMaps.BitMap256",
          "name": "cards",
          "type": "tuple"
        },
        {
          "internalType": "uint256",
          "name": "playerId",
          "type": "uint256"
        },
        {
          "internalType": "bytes",
          "name": "next",
          "type": "bytes"
        }
      ],
      "name": "dealCardsTo",
      "outputs": [],
      "stateMutability": "nonpayable",
      "type": "function"
    },
    {
      "inputs": [],
      "name": "decryptVerifier",
      "outputs": [
        {
          "internalType": "contract IDecryptVerifier",
          "name": "",
          "type": "address"
        }
      ],
      "stateMutability": "view",
      "type": "function"
    },
    {
      "inputs": [
        {
          "internalType": "uint256",
          "name": "gameId",
          "type": "uint256"
        }
      ],
      "name": "endGame",
      "outputs": [],
      "stateMutability": "nonpayable",
      "type": "function"
    },
    {
      "inputs": [
        {
          "internalType": "uint256",
          "name": "gameId",
          "type": "uint256"
        },
        {
          "internalType": "bytes",
          "name": "next",
          "type": "bytes"
        }
      ],
      "name": "error",
      "outputs": [],
      "stateMutability": "nonpayable",
      "type": "function"
    },
    {
      "inputs": [
        {
          "internalType": "uint256",
          "name": "gameId",
          "type": "uint256"
        },
        {
          "internalType": "uint256",
          "name": "cardIdx",
          "type": "uint256"
        }
      ],
      "name": "gameCardDecryptRecord",
      "outputs": [
        {
          "components": [
            {
              "internalType": "uint256",
              "name": "_data",
              "type": "uint256"
            }
          ],
          "internalType": "struct BitMaps.BitMap256",
          "name": "",
          "type": "tuple"
        }
      ],
      "stateMutability": "view",
      "type": "function"
    },
    {
      "inputs": [
        {
          "internalType": "uint256",
          "name": "gameId",
          "type": "uint256"
        }
      ],
      "name": "gameCardNum",
      "outputs": [
        {
          "internalType": "uint256",
          "name": "",
          "type": "uint256"
        }
      ],
      "stateMutability": "view",
      "type": "function"
    },
    {
      "inputs": [
        {
          "internalType": "uint256",
          "name": "gameId",
          "type": "uint256"
        }
      ],
      "name": "gameState",
      "outputs": [
        {
          "internalType": "uint256",
          "name": "",
          "type": "uint256"
        }
      ],
      "stateMutability": "view",
      "type": "function"
    },
    {
      "inputs": [
        {
          "internalType": "uint256",
          "name": "gameId",
          "type": "uint256"
        },
        {
          "internalType": "address",
          "name": "player",
          "type": "address"
        }
      ],
      "name": "getPlayerIdx",
      "outputs": [
        {
          "internalType": "uint256",
          "name": "",
          "type": "uint256"
        }
      ],
      "stateMutability": "view",
      "type": "function"
    },
    {
      "inputs": [],
      "name": "largestGameId",
      "outputs": [
        {
          "internalType": "uint256",
          "name": "",
          "type": "uint256"
        }
      ],
      "stateMutability": "view",
      "type": "function"
    },
    {
      "inputs": [
        {
          "internalType": "uint256",
          "name": "gameId",
          "type": "uint256"
        },
        {
          "internalType": "uint256",
          "name": "playerId",
          "type": "uint256"
        },
        {
          "internalType": "uint8",
          "name": "openningNum",
          "type": "uint8"
        },
        {
          "internalType": "bytes",
          "name": "next",
          "type": "bytes"
        }
      ],
      "name": "openCards",
      "outputs": [],
      "stateMutability": "nonpayable",
      "type": "function"
    },
    {
      "inputs": [],
      "name": "owner",
      "outputs": [
        {
          "internalType": "address",
          "name": "",
          "type": "address"
        }
      ],
      "stateMutability": "view",
      "type": "function"
    },
    {
      "inputs": [
        {
          "internalType": "uint256",
          "name": "gameId",
          "type": "uint256"
        },
        {
          "internalType": "uint256[8][]",
          "name": "proofs",
          "type": "uint256[8][]"
        },
        {
          "components": [
            {
              "internalType": "uint256",
              "name": "X",
              "type": "uint256"
            },
            {
              "internalType": "uint256",
              "name": "Y",
              "type": "uint256"
            }
          ],
          "internalType": "struct Card[]",
          "name": "decryptedCards",
          "type": "tuple[]"
        },
        {
          "internalType": "uint256[2][]",
          "name": "initDeltas",
          "type": "uint256[2][]"
        }
      ],
      "name": "playerDealCards",
      "outputs": [],
      "stateMutability": "nonpayable",
      "type": "function"
    },
    {
      "inputs": [
        {
          "internalType": "uint256",
          "name": "gameId",
          "type": "uint256"
        },
        {
          "components": [
            {
              "internalType": "uint256",
              "name": "_data",
              "type": "uint256"
            }
          ],
          "internalType": "struct BitMaps.BitMap256",
          "name": "cards",
          "type": "tuple"
        },
        {
          "internalType": "uint256[8][]",
          "name": "proofs",
          "type": "uint256[8][]"
        },
        {
          "components": [
            {
              "internalType": "uint256",
              "name": "X",
              "type": "uint256"
            },
            {
              "internalType": "uint256",
              "name": "Y",
              "type": "uint256"
            }
          ],
          "internalType": "struct Card[]",
          "name": "decryptedCards",
          "type": "tuple[]"
        }
      ],
      "name": "playerOpenCards",
      "outputs": [],
      "stateMutability": "nonpayable",
      "type": "function"
    },
    {
      "inputs": [
        {
          "internalType": "uint256",
          "name": "gameId",
          "type": "uint256"
        },
        {
          "internalType": "address",
          "name": "signingAddr",
          "type": "address"
        },
        {
          "internalType": "uint256",
          "name": "pkX",
          "type": "uint256"
        },
        {
          "internalType": "uint256",
          "name": "pkY",
          "type": "uint256"
        }
      ],
      "name": "playerRegister",
      "outputs": [
        {
          "internalType": "uint256",
          "name": "pid",
          "type": "uint256"
        }
      ],
      "stateMutability": "nonpayable",
      "type": "function"
    },
    {
      "inputs": [
        {
          "internalType": "uint256",
          "name": "gameId",
          "type": "uint256"
        },
        {
          "internalType": "uint256[8]",
          "name": "proof",
          "type": "uint256[8]"
        },
        {
          "components": [
            {
              "internalType": "enum DeckConfig",
              "name": "config",
              "type": "uint8"
            },
            {
              "internalType": "uint256[]",
              "name": "X0",
              "type": "uint256[]"
            },
            {
              "internalType": "uint256[]",
              "name": "X1",
              "type": "uint256[]"
            },
            {
              "components": [
                {
                  "internalType": "uint256",
                  "name": "_data",
                  "type": "uint256"
                }
              ],
              "internalType": "struct BitMaps.BitMap256",
              "name": "selector0",
              "type": "tuple"
            },
            {
              "components": [
                {
                  "internalType": "uint256",
                  "name": "_data",
                  "type": "uint256"
                }
              ],
              "internalType": "struct BitMaps.BitMap256",
              "name": "selector1",
              "type": "tuple"
            }
          ],
          "internalType": "struct CompressedDeck",
          "name": "compDeck",
          "type": "tuple"
        }
      ],
      "name": "playerShuffle",
      "outputs": [],
      "stateMutability": "nonpayable",
      "type": "function"
    },
    {
      "inputs": [
        {
          "internalType": "uint256",
          "name": "gameId",
          "type": "uint256"
        }
      ],
      "name": "queryAggregatedPk",
      "outputs": [
        {
          "internalType": "uint256",
          "name": "px",
          "type": "uint256"
        },
        {
          "internalType": "uint256",
          "name": "py",
          "type": "uint256"
        }
      ],
      "stateMutability": "view",
      "type": "function"
    },
    {
      "inputs": [
        {
          "internalType": "uint256",
          "name": "gameId",
          "type": "uint256"
        },
        {
          "internalType": "uint256",
          "name": "cardIndex",
          "type": "uint256"
        }
      ],
      "name": "queryCardValue",
      "outputs": [
        {
          "internalType": "uint256",
          "name": "",
          "type": "uint256"
        }
      ],
      "stateMutability": "view",
      "type": "function"
    },
    {
      "inputs": [
        {
          "internalType": "uint256",
          "name": "gameId",
          "type": "uint256"
        }
      ],
      "name": "queryDeck",
      "outputs": [
        {
          "internalType": "uint256[]",
          "name": "X0",
          "type": "uint256[]"
        },
        {
          "internalType": "uint256[]",
          "name": "X1",
          "type": "uint256[]"
        },
        {
          "internalType": "uint256[]",
          "name": "Y0",
          "type": "uint256[]"
        },
        {
          "internalType": "uint256[]",
          "name": "Y1",
          "type": "uint256[]"
        },
        {
          "components": [
            {
              "internalType": "uint256",
              "name": "_data",
              "type": "uint256"
            }
          ],
          "internalType": "struct BitMaps.BitMap256",
          "name": "selector0",
          "type": "tuple"
        },
        {
          "components": [
            {
              "internalType": "uint256",
              "name": "_data",
              "type": "uint256"
            }
          ],
          "internalType": "struct BitMaps.BitMap256",
          "name": "selector1",
          "type": "tuple"
        },
        {
          "components": [
            {
              "internalType": "uint256",
              "name": "_data",
              "type": "uint256"
            }
          ],
          "internalType": "struct BitMaps.BitMap256",
          "name": "cardsToDeal",
          "type": "tuple"
        }
      ],
      "stateMutability": "view",
      "type": "function"
    },
    {
      "inputs": [
        {
          "internalType": "uint256",
          "name": "gameId",
          "type": "uint256"
        },
        {
          "internalType": "bytes",
          "name": "next",
          "type": "bytes"
        }
      ],
      "name": "register",
      "outputs": [],
      "stateMutability": "nonpayable",
      "type": "function"
    },
    {
      "inputs": [],
      "name": "renounceOwnership",
      "outputs": [],
      "stateMutability": "nonpayable",
      "type": "function"
    },
    {
      "inputs": [
        {
          "internalType": "uint256",
          "name": "gameId",
          "type": "uint256"
        },
        {
          "internalType": "bytes",
          "name": "next",
          "type": "bytes"
        }
      ],
      "name": "shuffle",
      "outputs": [],
      "stateMutability": "nonpayable",
      "type": "function"
    },
    {
      "inputs": [
        {
          "internalType": "address",
          "name": "newOwner",
          "type": "address"
        }
      ],
      "name": "transferOwnership",
      "outputs": [],
      "stateMutability": "nonpayable",
      "type": "function"
    }
  ],
  "bytecode": "0x60806040523480156200001157600080fd5b506040516200475238038062004752833981016040819052620000349162000958565b6200003f3362000891565b603880546001600160a01b038086166001600160a01b0319928316179092556037805485841690831617905560368054848416908316179055603580549287169290911691909117905560408051610680810182527f0bb77a6ad63e739b4eacb2e09d6277c12ab8d8010534e0b62893f3f6bb95705181527f162d7e417903fa1c82f2d227e35b846b1133cfca4f558b5feb9fdcd5f81dd90260208201527f061c1436d1c3008037e887c8234dcf7c33c947ad93695b8000fcb4ab70477e3e918101919091527f1b16e357953d68d73398c838aa883cc65ddae2aef75a4bc437e4232afdbe43c860608201527f1961ff2315812fd2f3e459a258f5ded2dde68cd35c79c8b9fb443e1860e1fbe460808201527f172dba8d231345b865223308fe44ba307c159de512787257113e2a7137f831b460a08201527f2c6bfc7fe056ed38e26ec136ec8aec5f63ecc4b52c44afba967649cf1e6e231160c08201527f10c347ae3592776a678f9fc29ecd029f8297367209a4f28f7cb49b09bffd414560e08201527f0a677185fd6cd905b6a544b1006f4b3ea4a0dd596d47cabdab76a305859d928f6101008201527e56bb35a182e54545be6d1ea242a6b0afdaecc266c1aadfb94d32b8d5c3dc966101208201527f2fc449e2dd0c5349d06092adc126e213858984584e429842d87bcc705837c7656101408201527f1e63a5693d8b144378b08379f7ffdcabeb15e2e1490037b346c892925926574c6101608201527f05d90e36c0fc967d6887b01380ca8f7264e45fd56692179d6346636a0ce10a696101808201527f0ddd95af0dc7f8e96c42e8f3691617c0db82583abe3b5e9187051005b9d6cd616101a08201527f0d2c8ddcfdd735e9fdd0d51538022ba533cfa83b81d2acec70b17f505c17f0486101c08201527f2d66d2bb7bd385a5e2965d03466bc0579ce96b37ef9541be1aff46d0122696486101e08201527f1dfcdbf7e39fd2a9abeb0bba9446dc44db475f7a7533b645b568483ef44445c16102008201527f0973a33d37dcd6bac5fbb80bd94667df758a27a55f74f2f47e9f346dd3599e5b6102208201527f07ea98448dca17ae8d59c3e84258ae1b8e6b603cc01d67c6a65d88ba0119879d6102408201527f28f4a492bbfdf5eed5ad1b304b95fb96040be5e4281bd288b1955f61bfac0afa6102608201527f04c35ccbb891b482efb0d9615a446bf4965e59c524c5e99e5048d21370c4d1716102808201527f0403f4c5f05d58ecdd3cba7f28c8a0cff1200cc996701751bd159f7a929a83ae6102a08201527f080bb2c9aa710cdece43712df035d5580ee2f909f70c86f3ee311a1bf11ec90e6102c08201527f2822909a7b938c9f0f2032d0004b3364f776e7097baf972e96b53a0af21e46cf6102e08201527f0b720cb8666a37228a60d13a78a44d755167cc280f0954db82b110cdec03dd296103008201527f1a0ca12c0b9d5ceaee4e186c1eb77be10992112608ce9b20abeec370ac26a2d86103208201527f216b057078fda7e68f74840d69ddd2d9339fa5087224930aeb7b917c6b177ddd6103408201527f239a26d12954771a03d624b21a260f447412b746b66eede628a2f0af3be0a2126103608201527f2290daef092cdb12c7c1d72dd140aa1025d8e8c07373278b43229b7cc0ca11a36103808201527f1de5305a20483a9b39f575599249f4aef3d3e9fc48c762a9751eebef9612bee26103a08201527f1390b1c9d9a82d2159b46c2bb964b4b2f33fce1689896c95545db5582db57f2e6103c08201527f26fea02c1cb0b62f637363a8456633b4fce66bff1447b0c5b9e86c0d74b80e8f6103e08201527f277f7b5cc9bfe6b5986519722f530a0573e13bb9e79b3d53b89b9bdcb8212d3f6104008201527f1547e0c5efe888ce946b013b8243b78a5f678ea941c867f5892706ff56e481646104208201527f2ad530c497ea4713f4970a7f62956537cfc8588f07ddc027dd4fd0c6c10e5a436104408201527f1056ab97cf05bcdb2105fbc0b84f38b0965027abf7ca5361ac09f68adeb56eed6104608201527f226bea5ceca4c99040ef2ebf3c5c51cfc588f331437889263f1a2b987d24fd846104808201527f0c52c9ec80c576338a26cdde50a9e65e85b87472c7fa91e20e755826d904f62b6104a08201527f2aebb7ffc8598c5238f2fdb7cb853b11eef3b252d7ebe49f6ef75ec72e38ec4f6104c08201527f092d4b125f827c10993cfadbfc2596532d4065212df9f63a767e853152cf13236104e08201527f1cc142514ccfce20877d91b82265542f585acc7abd05bb4ccbba837abced761a6105008201527f06184da392a17823e9c1d38cb50980b17150ffa411965b03f0b0200d9557daa96105208201527f2de1f83ba2bf5ef20a63881b4af4fb1149cc71d27a9d3f7471d3bab13401d72e6105408201527f294b01e9bef3cbeec553d6e01ae9c7e9f0da12a81d5f874fa8820850b29446ef6105608201527f1f5b4e9c9f3998ac1115c24cff5d56475b73fe0600bec2656accb54c6858db106105808201527f15ed766f45161e8cf3f750978ea18828b8cdf8211494307002aac2bb819446426105a08201527f1d98dcee4ad7e854ab175c4c9d2596db3ff4d366f2b4768245f1b191c9abd2dc6105c08201527f0eea43c2e39c9465cfc56a2b80f746b1ff0389129e0eedf33600020246d66e126105e08201527f267076b8c3d79269cb83185bd7758f05fb0029c23e2f429ac2a16cc7b449a1796106008201527f1930694c542b3f428ca02285f978b47ecf06de207dc299736c06766d7f2e17e66106208201527f23f14882a28cc7ba2b752c5eb037c0606451d81fc6a58b4c647e7fca3c3e941c6106408201527f081ee42bc135a4e8e89208103bdf883a591cab8babacfcf201789f78bf9bcb3161066082015262000886906001906034620008e1565b5050505050620009b4565b600080546001600160a01b038381166001600160a01b0319831681178455604051919092169283917f8be0079c531659141344cd1fd0a4f28419497f9722a3daafe3b4186f6b6457e09190a35050565b826034810192821562000912579160200282015b8281111562000912578251825591602001919060010190620008f5565b506200092092915062000924565b5090565b5b8082111562000920576000815560010162000925565b80516001600160a01b03811681146200095357600080fd5b919050565b600080600080608085870312156200096e578384fd5b62000979856200093b565b935062000989602086016200093b565b925062000999604086016200093b565b9150620009a9606086016200093b565b905092959194509250565b613d8e80620009c46000396000f3fe608060405234801561001057600080fd5b50600436106101a95760003560e01c8063b4764f56116100f9578063d8abc3ca11610097578063f09db35711610071578063f09db357146103b9578063f2fde38b146103cc578063f3c7e26d146103df578063fc7d6667146103f257600080fd5b8063d8abc3ca1461037b578063dbd2b2231461039d578063e489a3a8146103b057600080fd5b8063b8530754116100d3578063b853075414610322578063ba284c2114610335578063c043e3b514610348578063d0399bb81461036857600080fd5b8063b4764f56146102e9578063b608151e146102fc578063b74944ea1461030f57600080fd5b8063715018a6116101665780638a9dac80116101405780638a9dac80146102785780638da5cb5b1461028b5780638e692857146102b0578063b42c2488146102c357600080fd5b8063715018a614610235578063765718d71461023d57806387aa5fef1461025057600080fd5b806303d3d0fd146101ae5780631480a7b9146101c3578063261fe4ca146101e957806331d05456146101fc5780634cc2dc7c1461020f5780634e0e1a3e14610222575b600080fd5b6101c16101bc36600461355d565b6103fc565b005b6101d66101d1366004613301565b61047b565b6040519081526020015b60405180910390f35b6101d66101f7366004613687565b6104b5565b6101c161020a366004613621565b610623565b6101c161021d36600461337e565b6107d4565b6101d6610230366004613301565b610bc3565b6101c1610c18565b6101c161024b36600461355d565b610c2c565b61026361025e366004613301565b610d10565b604080519283526020830191909152016101e0565b6101d6610286366004613301565b610db3565b6000546001600160a01b03165b6040516001600160a01b0390911681526020016101e0565b6101c16102be36600461347c565b610dca565b6102d66102d1366004613301565b61124d565b6040516101e0979695949392919061394a565b6101d66102f73660046136f0565b6114be565b6101c161030a3660046136a8565b611892565b6101c161031d3660046135a6565b61199b565b6101d6610330366004613344565b611d08565b6101d6610343366004613319565b611f95565b61035b610356366004613301565b61201b565b6040516101e091906139b6565b6101c1610376366004613301565b6120a0565b61038e610389366004613687565b612153565b604051905181526020016101e0565b6101d66103ab366004613301565b612204565b6101d6603d5481565b603554610298906001600160a01b031681565b6101c16103da3660046131cf565b61223e565b6101c16103ed36600461355d565b6122b7565b6101d6620f423f81565b60008381526039602052604090205483906001600160a01b0316331461043d5760405162461bcd60e51b815260040161043490613a83565b60405180910390fd5b6000848152603b60209081526040808320805460ff19166006179055603c909152902061046b908484612deb565b50610475846123b5565b50505050565b6000603d5482111561049f5760405162461bcd60e51b8152600401610434906139c4565b506000908152603b602052604090206001015490565b6000828152603a602090815260408083208151606081018352905460ff808216835261010082048116838601908152620100009092046001600160a01b031683850152878652603b8552838620825188885260118201875285882086519788019096529454865291519294919381169261053092911661247e565b146105875760405162461bcd60e51b815260206004820152602160248201527f4361726420686173206e6f74206265656e2066756c6c792064656372797074656044820152601960fa1b6064820152608401610434565b600081600a0160020185815481106105af57634e487b7160e01b600052603260045260246000fd5b9060005260206000200154905060005b835160ff168110156106125781600182603481106105ed57634e487b7160e01b600052603260045260246000fd5b0154141561060057935061061d92505050565b8061060a81613cae565b9150506105bf565b50620f423f93505050505b92915050565b60008581526039602052604090205485906001600160a01b0316331461065b5760405162461bcd60e51b815260040161043490613a83565b6000868152603b602052604090206001810154156106ae5760405162461bcd60e51b815260206004820152601060248201526f034b73a32b93730b61032b937b93910960851b6044820152606401610434565b6000878152603a6020526040902054610100900460ff1685106107325760405162461bcd60e51b815260206004820152603660248201527f67616d6520636f6e7472616374206572726f723a206465616c206361726420746044820152751bc8185b881a5b9d985b1a59081c1b185e595c881a5960521b6064820152608401610434565b6004815460ff16600781111561075857634e487b7160e01b600052602160045260246000fd5b1461076957805460ff191660041781555b855160128201556013810185905584610783576001818101555b6000878152603c6020526040902061079c908585612deb565b50600080516020613d3983398151915287826001015460046040516107c393929190613b1f565b60405180910390a150505050505050565b6000848152603b6020526040902054849060049060ff16600781111561080a57634e487b7160e01b600052602160045260246000fd5b81600781111561082a57634e487b7160e01b600052602160045260246000fd5b146108475760405162461bcd60e51b815260040161043490613a14565b6000868152603b60205260409020600181015460068201805489939290811061088057634e487b7160e01b600052603260045260246000fd5b6000918252602090912001546001600160a01b03163314806108dc5750806007018160010154815481106108c457634e487b7160e01b600052603260045260246000fd5b6000918252602090912001546001600160a01b031633145b6108f85760405162461bcd60e51b8152600401610434906139ec565b6000888152603a602090815260408083208151606081018352905460ff80821683526101008204811683860152620100009091046001600160a01b0316828401528c8552603b84528285208351948501909352601283015484528151919492936109649290911661247e565b9050808a51146109b65760405162461bcd60e51b815260206004820152601a60248201527f6e756d626572206f662070726f6f66732069732077726f6e67210000000000006044820152606401610434565b808951146109d65760405162461bcd60e51b815260040161043490613a40565b80885114610a265760405162461bcd60e51b815260206004820152601e60248201527f696e69742064656c7461277320736861706520697320696e76616c69642100006044820152606401610434565b6000805b845160ff16811015610af957604080516020810190915260128501548152610a5290826124c0565b15610ae757610ad98d828e8581518110610a7c57634e487b7160e01b600052603260045260246000fd5b60200260200101518e8681518110610aa457634e487b7160e01b600052603260045260246000fd5b60200260200101518e8781518110610acc57634e487b7160e01b600052603260045260246000fd5b602002602001015161251b565b81610ae381613cae565b9250505b80610af181613cae565b915050610a2a565b50600183018054906000610b0c83613cae565b9091555050601383015460018401541415610b3957600183018054906000610b3383613cae565b91905055505b836020015160ff1683600101541415610b8657600060018401819055601384015481526005840160205260408120805491610b7383613cae565b9190505550610b818c6123b5565b610bb5565b600080516020613d398339815191528c84600101546004604051610bac93929190613b1f565b60405180910390a15b505050505050505050505050565b6000603d54821115610be75760405162461bcd60e51b8152600401610434906139c4565b6000828152603b602052604090205460ff16600781111561061d57634e487b7160e01b600052602160045260246000fd5b610c206129a7565b610c2a6000612a01565b565b60008381526039602052604090205483906001600160a01b03163314610c645760405162461bcd60e51b815260040161043490613a83565b6000848152603b6020526040902054849060019060ff166007811115610c9a57634e487b7160e01b600052602160045260246000fd5b816007811115610cba57634e487b7160e01b600052602160045260246000fd5b14610cd75760405162461bcd60e51b815260040161043490613a14565b6000868152603b60209081526040808320805460ff19166002178155603c909252909120610d06908787612deb565b5050505050505050565b60008060026000848152603b602052604090205460ff166007811115610d4657634e487b7160e01b600052602160045260246000fd5b1415610d945760405162461bcd60e51b815260206004820152601a60248201527f6167677265676174656420706b206973206e6f742072656164790000000000006044820152606401610434565b50506000908152603b6020526040902060028101546003909101549091565b60018160348110610dc357600080fd5b0154905081565b6000838152603b6020526040902054839060039060ff166007811115610e0057634e487b7160e01b600052602160045260246000fd5b816007811115610e2057634e487b7160e01b600052602160045260246000fd5b14610e3d5760405162461bcd60e51b815260040161043490613a14565b6000858152603b602052604090206001810154600682018054889392908110610e7657634e487b7160e01b600052603260045260246000fd5b6000918252602090912001546001600160a01b0316331480610ed2575080600701816001015481548110610eba57634e487b7160e01b600052603260045260246000fd5b6000918252602090912001546001600160a01b031633145b610eee5760405162461bcd60e51b8152600401610434906139ec565b6000878152603a60209081526040808320815160608082018452915460ff8082168352610100820416828601526001600160a01b036201000090910481168285019081528d8752603b8652958490209551845180860186528d5181528d8701518188015285516080810187528e8701518188019081528f87015196820196909652948552855180870190965292969591169363c32e370e9391820190808e6004602002015181526020018e600560088110610fb957634e487b7160e01b600052603260045260246000fd5b60200201519052905260408051808201909152808d6006602002015181526020018d600760088110610ffb57634e487b7160e01b600052603260045260246000fd5b60200201519052604051632cd0e50560e11b8152600a8701600482015273__$a57d74fbaae24d4a1454856ef91bda367d$__9063b5b19c4d908e9083906359a1ca0a9060240160006040518083038186803b15801561105957600080fd5b505af415801561106d573d6000803e3d6000fd5b505050506040513d6000823e601f3d908101601f19168201604052611095919081019061323f565b6004808b015460028c015460038d01546040516001600160e01b031960e089901b1681526110c596959401613aba565b60006040518083038186803b1580156110dd57600080fd5b505af41580156110f1573d6000803e3d6000fd5b505050506040513d6000823e601f3d908101601f1916820160405261111991908101906131e9565b6040518563ffffffff1660e01b81526004016111389493929190613903565b60006040518083038186803b15801561115057600080fd5b505afa158015611164573d6000803e3d6000fd5b50506040516367769b9360e01b815273__$a57d74fbaae24d4a1454856ef91bda367d$__92506367769b9391506111a4908a90600a860190600401613afd565b60006040518083038186803b1580156111bc57600080fd5b505af41580156111d0573d6000803e3d6000fd5b5050505060018160010160008282546111e99190613c0a565b9091555050600681015460018201541415611213576000600182015561120e896123b5565b611242565b600080516020613d39833981519152898260010154600360405161123993929190613b1f565b60405180910390a15b505050505050505050565b6060806060806112696040518060200160405280600081525090565b6040805160208101909152600081526040805160208101909152600081526000888152603b6020908152604091829020600b01805483518184028101840190945280845290918301828280156112de57602002820191906000526020600020905b8154815260200190600101908083116112ca575b50505050509650603b6000898152602001908152602001600020600a0160030180548060200260200160405190810160405280929190818152602001828054801561134857602002820191906000526020600020905b815481526020019060010190808311611334575b50505050509450603b6000898152602001908152602001600020600a016002018054806020026020016040519081016040528092919081815260200182805480156113b257602002820191906000526020600020905b81548152602001906001019080831161139e575b50505050509550603b6000898152602001908152602001600020600a0160040180548060200260200160405190810160405280929190818152602001828054801561141c57602002820191906000526020600020905b815481526020019060010190808311611408575b50505050509350603b6000898152602001908152602001600020600a016005016040518060200160405290816000820154815250509250603b6000898152602001908152602001600020600a016006016040518060200160405290816000820154815250509150603b6000898152602001908152602001600020600a016008016040518060200160405290816000820154815250509050919395979092949650565b600080603d600081546114d090613cae565b91829055506000818152603a60209081526040808320805461ff00191661010060ff8a1602179055603982528083208054336001600160a01b03199091168117909155603b8352818420805460ff1916600117815582516337cf533160e01b815292519596509490926337cf53319260048082019391829003018186803b15801561155a57600080fd5b505afa15801561156e573d6000803e3d6000fd5b505050506040513d601f19601f820116820180604052508101906115929190613223565b60028111156115b157634e487b7160e01b600052602160045260246000fd5b141561160e576036546000838152603a60205260408120805460ff19620100006001600160a01b0390951694909402841661ff01600160b01b0319909116176005179055600a8301805491929091166001835b0217905550611825565b6001336001600160a01b03166337cf53316040518163ffffffff1660e01b815260040160206040518083038186803b15801561164957600080fd5b505afa15801561165d573d6000803e3d6000fd5b505050506040513d601f19601f820116820180604052508101906116819190613223565b60028111156116a057634e487b7160e01b600052602160045260246000fd5b14156116f5576037546000838152603a60205260409020805460ff19620100006001600160a01b0390941693909302831661ff01600160b01b031990911617601e179055600a82018054600192168280611604565b6002336001600160a01b03166337cf53316040518163ffffffff1660e01b815260040160206040518083038186803b15801561173057600080fd5b505afa158015611744573d6000803e3d6000fd5b505050506040513d601f19601f820116820180604052508101906117689190613223565b600281111561178757634e487b7160e01b600052602160045260246000fd5b14156117dd576038546000838152603a60205260409020805460ff19620100006001600160a01b0390941693909302831661ff01600160b01b0319909116176034179055600a8201805460029216600183611604565b60405162461bcd60e51b815260206004820152601960248201527f556e737570706f727465642073697a65206f66206465636b2e000000000000006044820152606401610434565b6040516394c80c6b60e01b8152600a8201600482015273__$a57d74fbaae24d4a1454856ef91bda367d$__906394c80c6b9060240160006040518083038186803b15801561187257600080fd5b505af4158015611886573d6000803e3d6000fd5b50939695505050505050565b60008581526039602052604090205485906001600160a01b031633146118ca5760405162461bcd60e51b815260040161043490613a83565b6000868152603b60209081526040808320888452600581019092529091205460ff8616111561193b5760405162461bcd60e51b815260206004820152601e60248201527f646f6e2774206861766520656e6f756768206361726420746f206f70656e00006044820152606401610434565b805461ff00191661010060ff871602178155600181018690556000878152603c6020526040902061196d908585612deb565b50805460ff191660059081178255604051600080516020613d39833981519152916107c3918a918a91613b1f565b6000848152603b6020526040902054849060059060ff1660078111156119d157634e487b7160e01b600052602160045260246000fd5b8160078111156119f157634e487b7160e01b600052602160045260246000fd5b14611a0e5760405162461bcd60e51b815260040161043490613a14565b6000868152603b602052604090206001810154600682018054899392908110611a4757634e487b7160e01b600052603260045260246000fd5b6000918252602090912001546001600160a01b0316331480611aa3575080600701816001015481548110611a8b57634e487b7160e01b600052603260045260246000fd5b6000918252602090912001546001600160a01b031633145b611abf5760405162461bcd60e51b8152600401610434906139ec565b6000888152603a602090815260408083208151606081018352905460ff80821683526101008204811683860152620100009091046001600160a01b0316828401528c8552603b8452828520835194850190935260128301548452815191949293611b2b9290911661247e565b8254909150610100900460ff168114611ba25760405162461bcd60e51b815260206004820152603360248201527f63617264732070617373656420627920706c6179657220646f65736e2774206d60448201527230ba31b410373ab6b132b9103a379037b832b760691b6064820152608401610434565b80895114611bf25760405162461bcd60e51b815260206004820152601a60248201527f6e756d626572206f662070726f6f66732069732077726f6e67210000000000006044820152606401610434565b80885114611c125760405162461bcd60e51b815260040161043490613a40565b60408051808201909152600080825260208201819052805b855160ff16811015611cc057611c408d826124c0565b15611cae57611ca08e828e8581518110611c6a57634e487b7160e01b600052603260045260246000fd5b60200260200101518e8681518110611c9257634e487b7160e01b600052603260045260246000fd5b60200260200101518761251b565b81611caa81613cae565b9250505b80611cb881613cae565b915050611c2a565b50835461ff0019168455600184015460009081526005850160205260408120805491611ceb83613c5c565b9190505550611cf98d6123b5565b50505050505050505050505050565b6000848152603b6020526040812054859060029060ff166007811115611d3e57634e487b7160e01b600052602160045260246000fd5b816007811115611d5e57634e487b7160e01b600052602160045260246000fd5b14611d7b5760405162461bcd60e51b815260040161043490613a14565b611d858585612a51565b611dc65760405162461bcd60e51b8152602060048201526012602482015271496e76616c6964207075626c6963206b657960701b6044820152606401610434565b6000878152603a602090815260408083208151606081018352905460ff808216835261010082048116838601908152620100009092046001600160a01b0316838501528c8652603b909452919093209051600682015491921611611e585760405162461bcd60e51b815260206004820152600960248201526811d85b5948199d5b1b60ba1b6044820152606401610434565b600681018054600180820183556000928352602080842083018054336001600160a01b03199182161790915560078601805480850182559086528286200180549091166001600160a01b038e161790556008850180548084018255908552818520018b905560098501805492830181558452909220909101879055945084611eed576002810187905560038101869055611f0c565b611f01816002015482600301548989612afb565b600383015560028201555b604080518681523360208201528a917f8c0cb3290f4d566876f8041fca1da8916de98af44c6c93bc495f6e9cebcec8ca910160405180910390a260018260200151611f579190613c39565b60ff16851415611f8957600080516020613d1983398151915281600301548260020154096004820155611f89896123b5565b50505050949350505050565b6000828152603b60205260408120815b600682015481101561200e57816006018181548110611fd457634e487b7160e01b600052603260045260246000fd5b6000918252602090912001546001600160a01b0385811691161415611ffc57915061061d9050565b8061200681613cae565b915050611fa5565b50620f423f949350505050565b60008181526039602090815260408083205481516337cf533160e01b815291516001600160a01b03909116926337cf53319260048082019391829003018186803b15801561206857600080fd5b505afa15801561207c573d6000803e3d6000fd5b505050506040513d601f19601f8201168201806040525081019061061d9190613223565b60008181526039602052604090205481906001600160a01b031633146120d85760405162461bcd60e51b815260040161043490613a83565b6000828152603b60209081526040808320805460ff191660071781556039909252822080546001600160a01b0319169055905b600682015481101561047557600080516020613d398339815191528482600760405161213993929190613b1f565b60405180910390a18061214b81613cae565b91505061210b565b604080516020810190915260008152603d548311156121845760405162461bcd60e51b8152600401610434906139c4565b6000838152603a602052604090205460ff1682106121d65760405162461bcd60e51b815260206004820152600f60248201526e092dcecc2d8d2c840c6c2e4c892c8f608b1b6044820152606401610434565b506000918252603b602090815260408084209284526011909201815291819020815192830190915254815290565b6000603d548211156122285760405162461bcd60e51b8152600401610434906139c4565b506000908152603a602052604090205460ff1690565b6122466129a7565b6001600160a01b0381166122ab5760405162461bcd60e51b815260206004820152602660248201527f4f776e61626c653a206e6577206f776e657220697320746865207a65726f206160448201526564647265737360d01b6064820152608401610434565b6122b481612a01565b50565b60008381526039602052604090205483906001600160a01b031633146122ef5760405162461bcd60e51b815260040161043490613a83565b6000848152603b6020526040902060018101541561235b5760405162461bcd60e51b815260206004820152602360248201527f77726f6e6720706c6179657220696e64657820746f2073746172742073687566604482015262666c6560e81b6064820152608401610434565b805460ff191660031781556000858152603c6020526040902061237f908585612deb565b50600080516020613d3983398151915285826001015460036040516123a693929190613b1f565b60405180910390a15050505050565b600081815260396020908152604080832054603c90925280832090516001600160a01b03909216916123e7919061380b565b6000604051808303816000865af19150503d8060008114612424576040519150601f19603f3d011682016040523d82523d6000602084013e612429565b606091505b505090508061247a5760405162461bcd60e51b815260206004820152601b60248201527f4572726f722063616c6c696e672067616d6520636f6e747261637400000000006044820152606401610434565b5050565b6000805b828110156124b95761249484826124c0565b156124a757816124a381613cae565b9250505b806124b181613cae565b915050612482565b5092915050565b600061010082106125085760405162461bcd60e51b8152602060048201526012602482015271696e646578206f7574206f662072616e676560701b6044820152606401610434565b508151600160ff83161b16151592915050565b6000858152603b60209081526040808320878452601181018352928190208151928301909152548152600182015461255391906124c0565b156125b45760405162461bcd60e51b815260206004820152602b60248201527f5468697320706c6179657220686173206465637279707465642074686973206360448201526a61726420616c726561647960a81b6064820152608401610434565b60008581526011820160205260409020546126db5761262281600a0160010186815481106125f257634e487b7160e01b600052603260045260246000fd5b600091825260209182902001548451604080519384019052600f8501548352909161261d90896124c0565b612c49565b600d820180548790811061264657634e487b7160e01b600052603260045260246000fd5b90600052602060002001819055506126aa81600a01600201868154811061267d57634e487b7160e01b600052603260045260246000fd5b600091825260209182902001548482015160408051938401905260108501548352909161261d90896124c0565b600e82018054879081106126ce57634e487b7160e01b600052603260045260246000fd5b6000918252602090912001555b6035546040805180820182528651815260208088015181830152825160808082018552898501518286019081526060808c015190840152825284518086018652908a0151815260a08a015181840152818301528351808501855260c08a0151815260e08a015181840152845161010081018652895181528984015193810193909352600b870180546001600160a01b039097169663c9219a7a9693949293830191908d90811061279b57634e487b7160e01b600052603260045260246000fd5b9060005260206000200154815260200187600a016003018c815481106127d157634e487b7160e01b600052603260045260246000fd5b9060005260206000200154815260200187600a016002018c8154811061280757634e487b7160e01b600052603260045260246000fd5b9060005260206000200154815260200187600a016004018c8154811061283d57634e487b7160e01b600052603260045260246000fd5b906000526020600020015481526020018760080188600101548154811061287457634e487b7160e01b600052603260045260246000fd5b90600052602060002001548152602001876009018860010154815481106128ab57634e487b7160e01b600052603260045260246000fd5b90600052602060002001548152506040518563ffffffff1660e01b81526004016128d894939291906138a6565b60006040518083038186803b1580156128f057600080fd5b505afa158015612904573d6000803e3d6000fd5b50505050826000015181600a01600201868154811061293357634e487b7160e01b600052603260045260246000fd5b9060005260206000200181905550826020015181600a01600401868154811061296c57634e487b7160e01b600052603260045260246000fd5b60009182526020808320909101929092558681526011830190915260409020600180830154825460ff9091169190911b179055505050505050565b6000546001600160a01b03163314610c2a5760405162461bcd60e51b815260206004820181905260248201527f4f776e61626c653a2063616c6c6572206973206e6f7420746865206f776e65726044820152606401610434565b600080546001600160a01b038381166001600160a01b0319831681178455604051919092169283917f8be0079c531659141344cd1fd0a4f28419497f9722a3daafe3b4186f6b6457e09190a35050565b600080600080516020613d1983398151915284850990506000600080516020613d1983398151915284850990506000600080516020613d1983398151915282600080516020613d1983398151915285620292fc090890506000600080516020613d198339815191528084600080516020613d1983398151915287620292f809096001089050612aef8282600080516020613d19833981519152612d30565b15979650505050505050565b60008085158015612b0a575084155b15612b19575082905081612c40565b83158015612b25575084155b15612b34575084905083612c40565b6000600080516020613d1983398151915285880990506000600080516020613d1983398151915285880990506000600080516020613d1983398151915280838509620292f80990506000600080516020613d1983398151915280898b09600080516020613d19833981519152898d090890506000612bd584600080516020613d1983398151915287620292fc09600080516020613d19833981519152612d30565b9050600080516020613d19833981519152612c01600080516020613d1983398151915285600108612d79565b83099650600080516020613d19833981519152612c36612c31600186600080516020613d19833981519152612d30565b612d79565b8209955050505050505b94509492505050565b60007f183227397098d014dc2822db40c0ac2e9419f4243cdcb848a1f0fac9f8000000831115612cab5760405162461bcd60e51b815260206004820152600d60248201526c496e76616c69642064656c746160981b6044820152606401610434565b612cb58484612a51565b612d015760405162461bcd60e51b815260206004820152601860248201527f4e6f74206f6e2062616279206a75626a756220637572766500000000000000006044820152606401610434565b8115612d0e575081612d29565b612d2683600080516020613d19833981519152613c22565b90505b9392505050565b600083838111612d4757612d448382613c0a565b90505b8280612d6357634e487b7160e01b600052601260045260246000fd5b6000612d6f8684613c22565b0895945050505050565b600061061d82612d986002600080516020613d19833981519152613c22565b600080516020613d19833981519152600060405160208152602080820152602060408201528460608201528360808201528260a082015260208160c08360055afa8080156101a957505051949350505050565b828054612df790613c73565b90600052602060002090601f016020900481019282612e195760008555612e5f565b82601f10612e325782800160ff19823516178555612e5f565b82800160010185558215612e5f579182015b82811115612e5f578235825591602001919060010190612e44565b50612e6b929150612e6f565b5090565b5b80821115612e6b5760008155600101612e70565b6000604051604081018181106001600160401b0382111715612ea857612ea8613cf5565b80604052508091508284604085011115612ec157600080fd5b60005b6002811015612ee3578135835260209283019290910190600101612ec4565b50505092915050565b80356001600160a01b0381168114612f0357600080fd5b919050565b600082601f830112612f18578081fd5b81356020612f2d612f2883613be7565b613bb7565b80838252828201915082860187848660081b8901011115612f4c578586fd5b855b85811015612f7657612f608983613002565b8452928401926101009190910190600101612f4e565b5090979650505050505050565b600082601f830112612f93578081fd5b81356020612fa3612f2883613be7565b80838252828201915082860187848660061b8901011115612fc2578586fd5b855b85811015612f7657604080838b031215612fdc578788fd5b612fe4613b4b565b83358152868401358782015285529385019390910190600101612fc4565b600082601f830112613012578081fd5b6040516101008082018281106001600160401b038211171561303657613036613cf5565b6040528184828101871015613049578485fd5b8492505b600883101561306d5780358252600192909201916020918201910161304d565b509195945050505050565b600082601f830112613088578081fd5b81356020613098612f2883613be7565b80838252828201915082860187848660051b89010111156130b7578586fd5b855b85811015612f76578135845292840192908401906001016130b9565b600082601f8301126130e5578081fd5b815160206130f5612f2883613be7565b80838252828201915082860187848660051b8901011115613114578586fd5b855b85811015612f7657815184529284019290840190600101613116565b60008083601f840112613143578182fd5b5081356001600160401b03811115613159578182fd5b60208301915083602082850101111561317157600080fd5b9250929050565b600060208284031215613189578081fd5b613191613b73565b9135825250919050565b6000602082840312156131ac578081fd5b6131b4613b73565b9151825250919050565b803560ff81168114612f0357600080fd5b6000602082840312156131e0578081fd5b612d2982612eec565b6000602082840312156131fa578081fd5b81516001600160401b0381111561320f578182fd5b61321b848285016130d5565b949350505050565b600060208284031215613234578081fd5b8151612d2981613d0b565b600060208284031215613250578081fd5b81516001600160401b0380821115613266578283fd5b9083019060a08286031215613279578283fd5b613281613b95565b825161328c81613d0b565b815260208301518281111561329f578485fd5b6132ab878286016130d5565b6020830152506040830151828111156132c2578485fd5b6132ce878286016130d5565b6040830152506132e1866060850161319b565b60608201526132f3866080850161319b565b608082015295945050505050565b600060208284031215613312578081fd5b5035919050565b6000806040838503121561332b578081fd5b8235915061333b60208401612eec565b90509250929050565b60008060008060808587031215613359578182fd5b8435935061336960208601612eec565b93969395505050506040820135916060013590565b60008060008060808587031215613393578182fd5b843593506020808601356001600160401b03808211156133b1578485fd5b6133bd89838a01612f08565b95506040915081880135818111156133d3578586fd5b6133df8a828b01612f83565b9550506060880135818111156133f3578485fd5b88019050601f8082018a13613406578485fd5b8135613414612f2882613be7565b8082825286820191508685018d888560061b8801011115613433578889fd5b8895505b8386101561346a578d8582011261344c578889fd5b6134568e82612e84565b835260019590950194918701918601613437565b50999c989b5096995050505050505050565b60008060006101408486031215613491578081fd5b833592506134a28560208601613002565b91506101208401356001600160401b03808211156134be578283fd5b9085019060a082880312156134d1578283fd5b6134d9613b95565b82356134e481613d0b565b81526020830135828111156134f7578485fd5b61350389828601613078565b60208301525060408301358281111561351a578485fd5b61352689828601613078565b6040830152506135398860608501613178565b606082015261354b8860808501613178565b60808201528093505050509250925092565b600080600060408486031215613571578081fd5b8335925060208401356001600160401b0381111561358d578182fd5b61359986828701613132565b9497909650939450505050565b600080600080608085870312156135bb578182fd5b843593506135cc8660208701613178565b925060408501356001600160401b03808211156135e7578384fd5b6135f388838901612f08565b93506060870135915080821115613608578283fd5b5061361587828801612f83565b91505092959194509250565b600080600080600060808688031215613638578283fd5b853594506136498760208801613178565b93506040860135925060608601356001600160401b0381111561366a578182fd5b61367688828901613132565b969995985093965092949392505050565b60008060408385031215613699578182fd5b50508035926020909101359150565b6000806000806000608086880312156136bf578283fd5b85359450602086013593506136d6604087016131be565b925060608601356001600160401b0381111561366a578182fd5b600060208284031215613701578081fd5b612d29826131be565b8060005b600281101561047557613722848351613738565b604093909301926020919091019060010161370e565b8060005b600281101561047557815184526020938401939091019060010161373c565b6000815180845260208085019450808401835b8381101561378a5781518752958201959082019060010161376e565b509495945050505050565b600381106137a5576137a5613cdf565b9052565b6137b4828251613795565b6000602082015160a060208501526137cf60a085018261375b565b9050604083015184820360408601526137e8828261375b565b915050606083015151606085015260808301515160808501528091505092915050565b600080835482600182811c91508083168061382757607f831692505b602080841082141561384757634e487b7160e01b87526022600452602487fd5b81801561385b576001811461386c57613898565b60ff19861689528489019650613898565b60008a815260209020885b868110156138905781548b820152908501908301613877565b505084890196505b509498975050505050505050565b61020081016138b58287613738565b6138c2604083018661370a565b6138cf60c0830185613738565b61010082018360005b60088110156138f75781518352602092830192909101906001016138d8565b50505095945050505050565b60006101206139128388613738565b61391f604084018761370a565b61392c60c0840186613738565b8061010084015261393f8184018561375b565b979650505050505050565b60e08152600061395d60e083018a61375b565b828103602084015261396f818a61375b565b90508281036040840152613983818961375b565b90508281036060840152613997818861375b565b955160808401525050915160a08301525160c090910152949350505050565b6020810161061d8284613795565b6020808252600e908201526d125b9d985b1a590819d85b59525960921b604082015260600190565b6020808252600e908201526d6e6f7420796f7572207475726e2160901b604082015260600190565b60208082526012908201527110da1958dac81cdd185d194819985a5b195960721b604082015260600190565b60208082526023908201527f6e756d626572206f66206465637279707465642063617264732069732077726f6040820152626e672160e81b606082015260800190565b60208082526019908201527f43616c6c6572206973206e6f742067616d65206f776e65722e00000000000000604082015260600190565b60a081526000613acd60a08301886137a9565b8281036020840152613adf81886137a9565b60408401969096525050606081019290925260809091015292915050565b604081526000613b1060408301856137a9565b90508260208301529392505050565b838152602081018390526060810160088310613b3d57613b3d613cdf565b826040830152949350505050565b604080519081016001600160401b0381118282101715613b6d57613b6d613cf5565b60405290565b604051602081016001600160401b0381118282101715613b6d57613b6d613cf5565b60405160a081016001600160401b0381118282101715613b6d57613b6d613cf5565b604051601f8201601f191681016001600160401b0381118282101715613bdf57613bdf613cf5565b604052919050565b60006001600160401b03821115613c0057613c00613cf5565b5060051b60200190565b60008219821115613c1d57613c1d613cc9565b500190565b600082821015613c3457613c34613cc9565b500390565b600060ff821660ff841680821015613c5357613c53613cc9565b90039392505050565b600081613c6b57613c6b613cc9565b506000190190565b600181811c90821680613c8757607f821691505b60208210811415613ca857634e487b7160e01b600052602260045260246000fd5b50919050565b6000600019821415613cc257613cc2613cc9565b5060010190565b634e487b7160e01b600052601160045260246000fd5b634e487b7160e01b600052602160045260246000fd5b634e487b7160e01b600052604160045260246000fd5b600381106122b457600080fdfe30644e72e131a029b85045b68181585d2833e84879b9709143e1f593f0000001bfd41db4bc23153024e205447615431e6600eddc0989e56f47eb218514b2682aa26469706673582212205f3de8fc0ea97ad57c760b6cce532cc37e63cf80797272edeaca2d691981ccb464736f6c63430008040033",
  "linkReferences": {
    "contracts/shuffle/Deck.sol": {
      "zkShuffleCrypto": [
        {
          "length": 20,
          "start": 6622
        },
        {
          "length": 20,
          "start": 6969
        },
        {
          "length": 20,
          "start": 8705
        }
      ]
    }
  },
  "deployedLinkReferences": {
    "contracts/shuffle/Deck.sol": {
      "zkShuffleCrypto": [
        {
          "length": 20,
          "start": 4122
        },
        {
          "length": 20,
          "start": 4469
        },
        {
          "length": 20,
          "start": 6205
        }
      ]
    }
  }
}