{
  "_format": "hh-sol-artifact-1",
  "contractName": "CurveBabyJubJub",
  "sourceName": "contracts/shuffle/Shuffle.sol",
  "abi": [
    {
      "inputs": [],
      "name": "A",
      "outputs": [
        {
          "internalType": "uint256",
          "name": "",
          "type": "uint256"
        }
      ],
      "stateMutability": "view",
      "type": "function"
    },
    {
      "inputs": [],
      "name": "D",
      "outputs": [
        {
          "internalType": "uint256",
          "name": "",
          "type": "uint256"
        }
      ],
      "stateMutability": "view",
      "type": "function"
    },
    {
      "inputs": [],
      "name": "Q",
      "outputs": [
        {
          "internalType": "uint256",
          "name": "",
          "type": "uint256"
        }
      ],
      "stateMutability": "view",
      "type": "function"
    }
  ],
  "bytecode": "0x610132610053600b82828239805160001a607314610046577f4e487b7100000000000000000000000000000000000000000000000000000000600052600060045260246000fd5b30600052607381538281f3fe730000000000000000000000000000000000000000301460806040526004361060475760003560e01c80630f529ba214604c578063e493ef8c146066578063f446c1d0146080575b600080fd5b6052609a565b604051605d919060e3565b60405180910390f35b606c60a1565b6040516077919060e3565b60405180910390f35b608660c5565b6040516091919060e3565b60405180910390f35b620292f881565b7f30644e72e131a029b85045b68181585d2833e84879b9709143e1f593f000000181565b620292fc81565b6000819050919050565b60dd8160cc565b82525050565b600060208201905060f6600083018460d6565b9291505056fea26469706673582212204f702bbe67e74f8706488513d41fb2e54ac049182ad9933bb6ce0d6145a2dd6864736f6c63430008100033",
  "linkReferences": {},
  "deployedLinkReferences": {}
}