{
  "_format": "hh-sol-artifact-1",
  "contractName": "Shuffle",
  "sourceName": "contracts/shuffle/Shuffle.sol",
  "abi": [
    {
      "inputs": [
        {
          "internalType": "address",
          "name": "shuffleEncryptContract_",
          "type": "address"
        },
        {
          "internalType": "address",
          "name": "decryptContract_",
          "type": "address"
        }
      ],
      "stateMutability": "nonpayable",
      "type": "constructor"
    },
    {
      "anonymous": false,
      "inputs": [
        {
          "indexed": true,
          "internalType": "address",
          "name": "previousOwner",
          "type": "address"
        },
        {
          "indexed": true,
          "internalType": "address",
          "name": "newOwner",
          "type": "address"
        }
      ],
      "name": "OwnershipTransferred",
      "type": "event"
    },
    {
      "inputs": [],
      "name": "INVALID_CARD_INDEX",
      "outputs": [
        {
          "internalType": "uint256",
          "name": "",
          "type": "uint256"
        }
      ],
      "stateMutability": "view",
      "type": "function"
    },
    {
      "inputs": [
        {
          "internalType": "address",
          "name": "permanentAccount",
          "type": "address"
        },
        {
          "internalType": "uint256",
          "name": "cardIdx",
          "type": "uint256"
        },
        {
          "internalType": "uint256",
          "name": "curPlayerIdx",
          "type": "uint256"
        },
        {
          "internalType": "uint256[8]",
          "name": "proof",
          "type": "uint256[8]"
        },
        {
          "internalType": "uint256[2]",
          "name": "decryptedCard",
          "type": "uint256[2]"
        },
        {
          "internalType": "uint256[2]",
          "name": "initDelta",
          "type": "uint256[2]"
        },
        {
          "internalType": "uint256",
          "name": "gameId",
          "type": "uint256"
        }
      ],
      "name": "deal",
      "outputs": [],
      "stateMutability": "nonpayable",
      "type": "function"
    },
    {
      "inputs": [],
      "name": "decryptVerifier",
      "outputs": [
        {
          "internalType": "contract IDecryptVerifier",
          "name": "",
          "type": "address"
        }
      ],
      "stateMutability": "view",
      "type": "function"
    },
    {
      "inputs": [
        {
          "internalType": "uint256",
          "name": "",
          "type": "uint256"
        }
      ],
      "name": "numPlayers",
      "outputs": [
        {
          "internalType": "uint256",
          "name": "",
          "type": "uint256"
        }
      ],
      "stateMutability": "view",
      "type": "function"
    },
    {
      "inputs": [],
      "name": "owner",
      "outputs": [
        {
          "internalType": "address",
          "name": "",
          "type": "address"
        }
      ],
      "stateMutability": "view",
      "type": "function"
    },
    {
      "inputs": [
        {
          "internalType": "uint256",
          "name": "",
          "type": "uint256"
        }
      ],
      "name": "playerIndexes",
      "outputs": [
        {
          "internalType": "uint256",
          "name": "",
          "type": "uint256"
        }
      ],
      "stateMutability": "view",
      "type": "function"
    },
    {
      "inputs": [
        {
          "internalType": "uint256",
          "name": "gameId",
          "type": "uint256"
        }
      ],
      "name": "queryAggregatedPk",
      "outputs": [
        {
          "internalType": "uint256[2]",
          "name": "",
          "type": "uint256[2]"
        }
      ],
      "stateMutability": "view",
      "type": "function"
    },
    {
      "inputs": [
        {
          "internalType": "uint256",
          "name": "index",
          "type": "uint256"
        },
        {
          "internalType": "uint256",
          "name": "gameId",
          "type": "uint256"
        }
      ],
      "name": "queryCardFromDeck",
      "outputs": [
        {
          "internalType": "uint256[4]",
          "name": "card",
          "type": "uint256[4]"
        }
      ],
      "stateMutability": "view",
      "type": "function"
    },
    {
      "inputs": [
        {
          "internalType": "uint256",
          "name": "index",
          "type": "uint256"
        },
        {
          "internalType": "uint256",
          "name": "gameId",
          "type": "uint256"
        }
      ],
      "name": "queryCardInDeal",
      "outputs": [
        {
          "internalType": "uint256[4]",
          "name": "card",
          "type": "uint256[4]"
        }
      ],
      "stateMutability": "view",
      "type": "function"
    },
    {
      "inputs": [
        {
          "internalType": "uint256",
          "name": "gameId",
          "type": "uint256"
        }
      ],
      "name": "queryDeck",
      "outputs": [
        {
          "components": [
            {
              "internalType": "uint256[52]",
              "name": "X0",
              "type": "uint256[52]"
            },
            {
              "internalType": "uint256[52]",
              "name": "X1",
              "type": "uint256[52]"
            },
            {
              "internalType": "uint256[2]",
              "name": "Selector",
              "type": "uint256[2]"
            }
          ],
          "internalType": "struct Deck",
          "name": "",
          "type": "tuple"
        }
      ],
      "stateMutability": "view",
      "type": "function"
    },
    {
      "inputs": [
        {
          "internalType": "address",
          "name": "permanentAccount",
          "type": "address"
        },
        {
          "internalType": "uint256[2]",
          "name": "pk",
          "type": "uint256[2]"
        },
        {
          "internalType": "uint256",
          "name": "gameId",
          "type": "uint256"
        }
      ],
      "name": "register",
      "outputs": [],
      "stateMutability": "nonpayable",
      "type": "function"
    },
    {
      "inputs": [],
      "name": "renounceOwnership",
      "outputs": [],
      "stateMutability": "nonpayable",
      "type": "function"
    },
    {
      "inputs": [
        {
          "internalType": "uint256",
          "name": "cardIndex",
          "type": "uint256"
        },
        {
          "internalType": "uint256",
          "name": "gameId",
          "type": "uint256"
        }
      ],
      "name": "search",
      "outputs": [
        {
          "internalType": "uint256",
          "name": "",
          "type": "uint256"
        }
      ],
      "stateMutability": "view",
      "type": "function"
    },
    {
      "inputs": [
        {
          "internalType": "address",
          "name": "gameContract_",
          "type": "address"
        }
      ],
      "name": "setGameContract",
      "outputs": [],
      "stateMutability": "nonpayable",
      "type": "function"
    },
    {
      "inputs": [
        {
          "internalType": "uint256",
          "name": "numPlayers_",
          "type": "uint256"
        },
        {
          "internalType": "uint256",
          "name": "gameId",
          "type": "uint256"
        }
      ],
      "name": "setGameSettings",
      "outputs": [],
      "stateMutability": "nonpayable",
      "type": "function"
    },
    {
      "inputs": [
        {
          "internalType": "address",
          "name": "permanentAccount",
          "type": "address"
        },
        {
          "internalType": "uint256[8]",
          "name": "proof",
          "type": "uint256[8]"
        },
        {
          "internalType": "uint256",
          "name": "nonce",
          "type": "uint256"
        },
        {
          "internalType": "uint256[52]",
          "name": "shuffledX0",
          "type": "uint256[52]"
        },
        {
          "internalType": "uint256[52]",
          "name": "shuffledX1",
          "type": "uint256[52]"
        },
        {
          "internalType": "uint256[2]",
          "name": "selector",
          "type": "uint256[2]"
        },
        {
          "internalType": "uint256",
          "name": "gameId",
          "type": "uint256"
        }
      ],
      "name": "shuffle",
      "outputs": [],
      "stateMutability": "nonpayable",
      "type": "function"
    },
    {
      "inputs": [],
      "name": "shuffleEncryptVerifier",
      "outputs": [
        {
          "internalType": "contract IShuffleEncryptVerifier",
          "name": "",
          "type": "address"
        }
      ],
      "stateMutability": "view",
      "type": "function"
    },
    {
      "inputs": [
        {
          "internalType": "uint256",
          "name": "",
          "type": "uint256"
        }
      ],
      "name": "states",
      "outputs": [
        {
          "internalType": "enum State",
          "name": "",
          "type": "uint8"
        }
      ],
      "stateMutability": "view",
      "type": "function"
    },
    {
      "inputs": [
        {
          "internalType": "address",
          "name": "newOwner",
          "type": "address"
        }
      ],
      "name": "transferOwnership",
      "outputs": [],
      "stateMutability": "nonpayable",
      "type": "function"
    }
  ],
  "bytecode": "0x60806040523480156200001157600080fd5b506040516200558138038062005581833981810160405281019062000037919062000217565b620000576200004b620000e160201b60201c565b620000e960201b60201c565b81600160006101000a81548173ffffffffffffffffffffffffffffffffffffffff021916908373ffffffffffffffffffffffffffffffffffffffff16021790555080600260006101000a81548173ffffffffffffffffffffffffffffffffffffffff021916908373ffffffffffffffffffffffffffffffffffffffff16021790555050506200025e565b600033905090565b60008060009054906101000a900473ffffffffffffffffffffffffffffffffffffffff169050816000806101000a81548173ffffffffffffffffffffffffffffffffffffffff021916908373ffffffffffffffffffffffffffffffffffffffff1602179055508173ffffffffffffffffffffffffffffffffffffffff168173ffffffffffffffffffffffffffffffffffffffff167f8be0079c531659141344cd1fd0a4f28419497f9722a3daafe3b4186f6b6457e060405160405180910390a35050565b600080fd5b600073ffffffffffffffffffffffffffffffffffffffff82169050919050565b6000620001df82620001b2565b9050919050565b620001f181620001d2565b8114620001fd57600080fd5b50565b6000815190506200021181620001e6565b92915050565b60008060408385031215620002315762000230620001ad565b5b6000620002418582860162000200565b9250506020620002548582860162000200565b9150509250929050565b615313806200026e6000396000f3fe608060405234801561001057600080fd5b50600436106101215760003560e01c806387aa5fef116100ad578063e1ede94f11610071578063e1ede94f1461032e578063f09db3571461034a578063f2fde38b14610368578063f5e357dd14610384578063fe8ed579146103a057610121565b806387aa5fef146102505780638da5cb5b14610280578063978969131461029e578063b42c2488146102ce578063c68ee9cd146102fe57610121565b806352c09b11116100f457806352c09b11146101be5780635fe24308146101da57806362aaa0a9146101f85780636c1f9f4414610216578063715018a61461024657610121565b8063017a910514610126578063175a2bd114610156578063291c424014610172578063405ebd4d146101a2575b600080fd5b610140600480360381019061013b9190613e21565b6103d0565b60405161014d9190613ec5565b60405180910390f35b610170600480360381019061016b9190613ee0565b6103f0565b005b61018c60048036038101906101879190613ee0565b6104f1565b6040516101999190613fcb565b60405180910390f35b6101bc60048036038101906101b79190614044565b6106bb565b005b6101d860048036038101906101d3919061431a565b610707565b005b6101e2610b75565b6040516101ef9190614421565b60405180910390f35b610200610b9b565b60405161020d919061444b565b60405180910390f35b610230600480360381019061022b9190613e21565b610ba2565b60405161023d919061444b565b60405180910390f35b61024e610bba565b005b61026a60048036038101906102659190613e21565b610bce565b60405161027791906144ea565b60405180910390f35b610288610cb6565b6040516102959190614514565b60405180910390f35b6102b860048036038101906102b39190613e21565b610cdf565b6040516102c5919061444b565b60405180910390f35b6102e860048036038101906102e39190613e21565b610cf7565b6040516102f5919061465a565b60405180910390f35b61031860048036038101906103139190613ee0565b610e7a565b604051610325919061444b565b60405180910390f35b61034860048036038101906103439190614676565b610f95565b005b6103526114e5565b60405161035f91906146ea565b60405180910390f35b610382600480360381019061037d9190614044565b61150b565b005b61039e60048036038101906103999190614705565b61158e565b005b6103ba60048036038101906103b59190613ee0565b611daa565b6040516103c79190613fcb565b60405180910390f35b60736020528060005260406000206000915054906101000a900460ff1681565b3373ffffffffffffffffffffffffffffffffffffffff16600360009054906101000a900473ffffffffffffffffffffffffffffffffffffffff1673ffffffffffffffffffffffffffffffffffffffff1614610480576040517f08c379a000000000000000000000000000000000000000000000000000000000815260040161047790614808565b60405180910390fd5b8160046000838152602001908152602001600020819055506000607260008381526020019081526020016000208190555060006073600083815260200190815260200160002060006101000a81548160ff021916908360028111156104e8576104e7613e4e565b5b02179055505050565b6104f9613c82565b8160028081111561050d5761050c613e4e565b5b6073600083815260200190815260200160002060009054906101000a900460ff1660028111156105405761053f613e4e565b5b14610580576040517f08c379a00000000000000000000000000000000000000000000000000000000081526004016105779061489a565b60405180910390fd5b6070600084815260200190815260200160002060000184603481106105a8576105a76148ba565b5b6004020160000154826000600481106105c4576105c36148ba565b5b6020020181815250506070600084815260200190815260200160002060000184603481106105f5576105f46148ba565b5b600402016001015482600160048110610611576106106148ba565b5b602002018181525050607060008481526020019081526020016000206000018460348110610642576106416148ba565b5b60040201600201548260026004811061065e5761065d6148ba565b5b60200201818152505060706000848152602001908152602001600020600001846034811061068f5761068e6148ba565b5b6004020160030154826003600481106106ab576106aa6148ba565b5b6020020181815250505092915050565b6106c3611f5e565b80600360006101000a81548173ffffffffffffffffffffffffffffffffffffffff021916908373ffffffffffffffffffffffffffffffffffffffff16021790555050565b3373ffffffffffffffffffffffffffffffffffffffff16600360009054906101000a900473ffffffffffffffffffffffffffffffffffffffff1673ffffffffffffffffffffffffffffffffffffffff1614610797576040517f08c379a000000000000000000000000000000000000000000000000000000000815260040161078e90614808565b60405180910390fd5b600160028111156107ab576107aa613e4e565b5b6073600083815260200190815260200160002060009054906101000a900460ff1660028111156107de576107dd613e4e565b5b1461081e576040517f08c379a000000000000000000000000000000000000000000000000000000000815260040161081590614935565b60405180910390fd5b60716000828152602001908152602001600020600001607260008381526020019081526020016000205481548110610859576108586148ba565b5b9060005260206000200160009054906101000a900473ffffffffffffffffffffffffffffffffffffffff1673ffffffffffffffffffffffffffffffffffffffff168773ffffffffffffffffffffffffffffffffffffffff16146108f1576040517f08c379a00000000000000000000000000000000000000000000000000000000081526004016108e8906149a1565b60405180910390fd5b600160009054906101000a900473ffffffffffffffffffffffffffffffffffffffff1673ffffffffffffffffffffffffffffffffffffffff166347766d9160405180604001604052808960006008811061094e5761094d6148ba565b5b602002015181526020018960016008811061096c5761096b6148ba565b5b6020020151815250604051806040016040528060405180604001604052808c60026008811061099e5761099d6148ba565b5b602002015181526020018c6003600881106109bc576109bb6148ba565b5b6020020151815250815260200160405180604001604052808c6004600881106109e8576109e76148ba565b5b602002015181526020018c600560088110610a0657610a056148ba565b5b602002015181525081525060405180604001604052808b600660088110610a3057610a2f6148ba565b5b602002015181526020018b600760088110610a4e57610a4d6148ba565b5b6020020151815250610a638a8a8a8a8a611fdc565b6040518563ffffffff1660e01b8152600401610a829493929190614ae1565b60006040518083038186803b158015610a9a57600080fd5b505afa158015610aae573d6000803e3d6000fd5b50505050610abe848484846122db565b6001607260008381526020019081526020016000206000828254610ae29190614b57565b925050819055506004600082815260200190815260200160002054607260008381526020019081526020016000205403610b6c5760026073600083815260200190815260200160002060006101000a81548160ff02191690836002811115610b4d57610b4c613e4e565b5b0217905550600060726000838152602001908152602001600020819055505b50505050505050565b600160009054906101000a900473ffffffffffffffffffffffffffffffffffffffff1681565b620f423f81565b60046020528060005260406000206000915090505481565b610bc2611f5e565b610bcc6000612419565b565b610bd6613ca4565b60006002811115610bea57610be9613e4e565b5b6073600084815260200190815260200160002060009054906101000a900460ff166002811115610c1d57610c1c613e4e565b5b03610c5d576040517f08c379a0000000000000000000000000000000000000000000000000000000008152600401610c5490614bd7565b60405180910390fd5b60716000838152602001908152602001600020600201600280602002604051908101604052809291908260028015610caa576020028201915b815481526020019060010190808311610c96575b50505050509050919050565b60008060009054906101000a900473ffffffffffffffffffffffffffffffffffffffff16905090565b60726020528060005260406000206000915090505481565b610cff613cc6565b60006002811115610d1357610d12613e4e565b5b6073600084815260200190815260200160002060009054906101000a900460ff166002811115610d4657610d45613e4e565b5b03610d86576040517f08c379a0000000000000000000000000000000000000000000000000000000008152600401610d7d90614c43565b60405180910390fd5b6005600083815260200190815260200160002060405180606001604052908160008201603480602002604051908101604052809291908260348015610de0576020028201915b815481526020019060010190808311610dcc575b5050505050815260200160348201603480602002604051908101604052809291908260348015610e25576020028201915b815481526020019060010190808311610e11575b5050505050815260200160688201600280602002604051908101604052809291908260028015610e6a576020028201915b815481526020019060010190808311610e56575b5050505050815250509050919050565b6000600160046000848152602001908152602001600020546001901b610ea09190614c63565b6070600084815260200190815260200160002060d0018460348110610ec857610ec76148ba565b5b015414610f0a576040517f08c379a0000000000000000000000000000000000000000000000000000000008152600401610f0190614d09565b60405180910390fd5b6000607060008481526020019081526020016000206000018460348110610f3457610f336148ba565b5b6004020160020154905060005b6034811015610f86578160066034018260348110610f6257610f616148ba565b5b015403610f73578092505050610f8f565b8080610f7e90614d29565b915050610f41565b50620f423f9150505b92915050565b3373ffffffffffffffffffffffffffffffffffffffff16600360009054906101000a900473ffffffffffffffffffffffffffffffffffffffff1673ffffffffffffffffffffffffffffffffffffffff1614611025576040517f08c379a000000000000000000000000000000000000000000000000000000000815260040161101c90614808565b60405180910390fd5b6000600281111561103957611038613e4e565b5b6073600083815260200190815260200160002060009054906101000a900460ff16600281111561106c5761106b613e4e565b5b146110ac576040517f08c379a00000000000000000000000000000000000000000000000000000000081526004016110a390614dbd565b60405180910390fd5b6110e6826000600281106110c3576110c26148ba565b5b6020020151836001600281106110dc576110db6148ba565b5b60200201516124dd565b611125576040517f08c379a000000000000000000000000000000000000000000000000000000000815260040161111c90614e29565b60405180910390fd5b60716000828152602001908152602001600020600001839080600181540180825580915050600190039060005260206000200160009091909190916101000a81548173ffffffffffffffffffffffffffffffffffffffff021916908373ffffffffffffffffffffffffffffffffffffffff16021790555060716000828152602001908152602001600020600101826000600281106111c6576111c56148ba565b5b60200201519080600181540180825580915050600190039060005260206000200160009091909190915055607160008281526020019081526020016000206001018260016002811061121b5761121a6148ba565b5b60200201519080600181540180825580915050600190039060005260206000200160009091909190915055600160726000838152602001908152602001600020600082825461126a9190614b57565b9250508190555060046000828152602001908152602001600020546072600083815260200190815260200160002054036114e05760016073600083815260200190815260200160002060006101000a81548160ff021916908360028111156112d5576112d4613e4e565b5b021790555060006072600083815260200190815260200160002081905550604051806040016040528060716000848152602001908152602001600020600101600081548110611327576113266148ba565b5b90600052602060002001548152602001607160008481526020019081526020016000206001016001815481106113605761135f6148ba565b5b906000526020600020015481525060716000838152602001908152602001600020600201906002611392929190613cf9565b506000600190505b60046000838152602001908152602001600020548110156114d55761149d607160008481526020019081526020016000206002016000600281106113e1576113e06148ba565b5b01546071600085815260200190815260200160002060020160016002811061140c5761140b6148ba565b5b0154607160008681526020019081526020016000206001018460026114319190614e49565b81548110611442576114416148ba565b5b90600052602060002001546071600087815260200190815260200160002060010160018660026114729190614e49565b61147c9190614b57565b8154811061148d5761148c6148ba565b5b906000526020600020015461268a565b607160008481526020019081526020016000206002019060026114c1929190613cf9565b5080806114cd90614d29565b91505061139a565b506114df816129de565b5b505050565b600260009054906101000a900473ffffffffffffffffffffffffffffffffffffffff1681565b611513611f5e565b600073ffffffffffffffffffffffffffffffffffffffff168173ffffffffffffffffffffffffffffffffffffffff1603611582576040517f08c379a000000000000000000000000000000000000000000000000000000000815260040161157990614f15565b60405180910390fd5b61158b81612419565b50565b806002808111156115a2576115a1613e4e565b5b6073600083815260200190815260200160002060009054906101000a900460ff1660028111156115d5576115d4613e4e565b5b14611615576040517f08c379a000000000000000000000000000000000000000000000000000000000815260040161160c9061489a565b60405180910390fd5b3373ffffffffffffffffffffffffffffffffffffffff16600360009054906101000a900473ffffffffffffffffffffffffffffffffffffffff1673ffffffffffffffffffffffffffffffffffffffff16146116a5576040517f08c379a000000000000000000000000000000000000000000000000000000000815260040161169c90614808565b60405180910390fd5b8773ffffffffffffffffffffffffffffffffffffffff166071600084815260200190815260200160002060000187815481106116e4576116e36148ba565b5b9060005260206000200160009054906101000a900473ffffffffffffffffffffffffffffffffffffffff1673ffffffffffffffffffffffffffffffffffffffff1614611765576040517f08c379a000000000000000000000000000000000000000000000000000000000815260040161175c90614f81565b60405180910390fd5b6000866001901b6070600085815260200190815260200160002060d0018960348110611794576117936148ba565b5b015416146117d7576040517f08c379a00000000000000000000000000000000000000000000000000000000081526004016117ce90615013565b60405180910390fd5b60006070600084815260200190815260200160002060d0018860348110611801576118006148ba565b5b01540361196b5760006118158885856138ee565b905060056000848152602001908152602001600020600001886034811061183f5761183e6148ba565b5b0154607060008581526020019081526020016000206000018960348110611869576118686148ba565b5b600402016000018190555060056000848152602001908152602001600020603401886034811061189c5761189b6148ba565b5b01546070600085815260200190815260200160002060000189603481106118c6576118c56148ba565b5b6004020160020181905550806000600281106118e5576118e46148ba565b5b6020020151607060008581526020019081526020016000206000018960348110611912576119116148ba565b5b600402016001018190555080600160028110611931576119306148ba565b5b602002015160706000858152602001908152602001600020600001896034811061195e5761195d6148ba565b5b6004020160030181905550505b600260009054906101000a900473ffffffffffffffffffffffffffffffffffffffff1673ffffffffffffffffffffffffffffffffffffffff1663c9219a7a6040518060400160405280886000600881106119c8576119c76148ba565b5b60200201518152602001886001600881106119e6576119e56148ba565b5b6020020151815250604051806040016040528060405180604001604052808b600260088110611a1857611a176148ba565b5b602002015181526020018b600360088110611a3657611a356148ba565b5b6020020151815250815260200160405180604001604052808b600460088110611a6257611a616148ba565b5b602002015181526020018b600560088110611a8057611a7f6148ba565b5b602002015181525081525060405180604001604052808a600660088110611aaa57611aa96148ba565b5b602002015181526020018a600760088110611ac857611ac76148ba565b5b60200201518152506040518061010001604052808a600060028110611af057611aef6148ba565b5b602002015181526020018a600160028110611b0e57611b0d6148ba565b5b60200201518152602001607060008a81526020019081526020016000206000018e60348110611b4057611b3f6148ba565b5b60040201600001548152602001607060008a81526020019081526020016000206000018e60348110611b7557611b746148ba565b5b60040201600101548152602001607060008a81526020019081526020016000206000018e60348110611baa57611ba96148ba565b5b60040201600201548152602001607060008a81526020019081526020016000206000018e60348110611bdf57611bde6148ba565b5b60040201600301548152602001607160008a81526020019081526020016000206001018d6002611c0f9190614e49565b81548110611c2057611c1f6148ba565b5b90600052602060002001548152602001607160008a815260200190815260200160002060010160018e6002611c559190614e49565b611c5f9190614b57565b81548110611c7057611c6f6148ba565b5b90600052602060002001548152506040518563ffffffff1660e01b8152600401611c9d94939291906150b7565b60006040518083038186803b158015611cb557600080fd5b505afa158015611cc9573d6000803e3d6000fd5b5050505083600060028110611ce157611ce06148ba565b5b6020020151607060008481526020019081526020016000206000018860348110611d0e57611d0d6148ba565b5b600402016002018190555083600160028110611d2d57611d2c6148ba565b5b6020020151607060008481526020019081526020016000206000018860348110611d5a57611d596148ba565b5b6004020160030181905550856001901b6070600084815260200190815260200160002060d0018860348110611d9257611d916148ba565b5b01600082825417925050819055505050505050505050565b611db2613c82565b81600280811115611dc657611dc5613e4e565b5b6073600083815260200190815260200160002060009054906101000a900460ff166002811115611df957611df8613e4e565b5b14611e39576040517f08c379a0000000000000000000000000000000000000000000000000000000008152600401611e309061489a565b60405180910390fd5b600560008481526020019081526020016000206000018460348110611e6157611e606148ba565b5b015482600060048110611e7757611e766148ba565b5b602002018181525050600560008481526020019081526020016000206034018460348110611ea857611ea76148ba565b5b015482600160048110611ebe57611ebd6148ba565b5b60200201818152505060056000848152602001908152602001600020606801600060028110611ef057611eef6148ba565b5b015482600260048110611f0657611f056148ba565b5b60200201818152505060056000848152602001908152602001600020606801600160028110611f3857611f376148ba565b5b015482600360048110611f4e57611f4d6148ba565b5b6020020181815250505092915050565b611f66613a41565b73ffffffffffffffffffffffffffffffffffffffff16611f84610cb6565b73ffffffffffffffffffffffffffffffffffffffff1614611fda576040517f08c379a0000000000000000000000000000000000000000000000000000000008152600401611fd19061514a565b60405180910390fd5b565b611fe4613d39565b8581600060d78110611ff957611ff86148ba565b5b6020020181815250506071600083815260200190815260200160002060020160006002811061202b5761202a6148ba565b5b015481600160d78110612041576120406148ba565b5b60200201818152505060716000838152602001908152602001600020600201600160028110612073576120726148ba565b5b015481600260d78110612089576120886148ba565b5b60200201818152505060005b60348110156121d5576005600084815260200190815260200160002060000181603481106120c6576120c56148ba565b5b0154826003836120d69190614b57565b60d781106120e7576120e66148ba565b5b602002018181525050600560008481526020019081526020016000206034018160348110612118576121176148ba565b5b0154826037836121289190614b57565b60d78110612139576121386148ba565b5b602002018181525050858160348110612155576121546148ba565b5b602002015182606b836121689190614b57565b60d78110612179576121786148ba565b5b602002018181525050848160348110612195576121946148ba565b5b602002015182609f836121a89190614b57565b60d781106121b9576121b86148ba565b5b60200201818152505080806121cd90614d29565b915050612095565b50600560008381526020019081526020016000206068016000600281106121ff576121fe6148ba565b5b01548160d360d78110612215576122146148ba565b5b60200201818152505060056000838152602001908152602001600020606801600160028110612247576122466148ba565b5b01548160d460d7811061225d5761225c6148ba565b5b6020020181815250508260006002811061227a576122796148ba565b5b60200201518160d560d78110612293576122926148ba565b5b602002018181525050826001600281106122b0576122af6148ba565b5b60200201518160d660d781106122c9576122c86148ba565b5b60200201818152505095945050505050565b60005b6034811015612384578481603481106122fa576122f96148ba565b5b6020020151600560008481526020019081526020016000206000018260348110612327576123266148ba565b5b018190555083816034811061233f5761233e6148ba565b5b602002015160056000848152602001908152602001600020603401826034811061236c5761236b6148ba565b5b0181905550808061237c90614d29565b9150506122de565b5081600060028110612399576123986148ba565b5b6020020151600560008381526020019081526020016000206068016000600281106123c7576123c66148ba565b5b0181905550816001600281106123e0576123df6148ba565b5b60200201516005600083815260200190815260200160002060680160016002811061240e5761240d6148ba565b5b018190555050505050565b60008060009054906101000a900473ffffffffffffffffffffffffffffffffffffffff169050816000806101000a81548173ffffffffffffffffffffffffffffffffffffffff021916908373ffffffffffffffffffffffffffffffffffffffff1602179055508173ffffffffffffffffffffffffffffffffffffffff168173ffffffffffffffffffffffffffffffffffffffff167f8be0079c531659141344cd1fd0a4f28419497f9722a3daafe3b4186f6b6457e060405160405180910390a35050565b6000807f30644e72e131a029b85045b68181585d2833e84879b9709143e1f593f00000018061250f5761250e61516a565b5b848509905060007f30644e72e131a029b85045b68181585d2833e84879b9709143e1f593f0000001806125455761254461516a565b5b848509905060007f30644e72e131a029b85045b68181585d2833e84879b9709143e1f593f00000018061257b5761257a61516a565b5b827f30644e72e131a029b85045b68181585d2833e84879b9709143e1f593f0000001806125ab576125aa61516a565b5b85620292fc0908905060007f30644e72e131a029b85045b68181585d2833e84879b9709143e1f593f0000001806125e5576125e461516a565b5b7f30644e72e131a029b85045b68181585d2833e84879b9709143e1f593f0000001806126145761261361516a565b5b847f30644e72e131a029b85045b68181585d2833e84879b9709143e1f593f0000001806126445761264361516a565b5b87620292f809096001089050600061267d83837f30644e72e131a029b85045b68181585d2833e84879b9709143e1f593f0000001613a49565b1494505050505092915050565b612692613ca4565b6000851480156126a25750600084145b156126c35760405180604001604052808481526020018381525090506129d6565b6000831480156126d35750600084145b156126f45760405180604001604052808681526020018581525090506129d6565b60007f30644e72e131a029b85045b68181585d2833e84879b9709143e1f593f0000001806127255761272461516a565b5b848709905060007f30644e72e131a029b85045b68181585d2833e84879b9709143e1f593f00000018061275b5761275a61516a565b5b848709905060007f30644e72e131a029b85045b68181585d2833e84879b9709143e1f593f0000001806127915761279061516a565b5b7f30644e72e131a029b85045b68181585d2833e84879b9709143e1f593f0000001806127c0576127bf61516a565b5b838509620292f809905060007f30644e72e131a029b85045b68181585d2833e84879b9709143e1f593f0000001806127fb576127fa61516a565b5b7f30644e72e131a029b85045b68181585d2833e84879b9709143e1f593f00000018061282a5761282961516a565b5b888a097f30644e72e131a029b85045b68181585d2833e84879b9709143e1f593f00000018061285c5761285b61516a565b5b888c0908905060006128c3847f30644e72e131a029b85045b68181585d2833e84879b9709143e1f593f0000001806128975761289661516a565b5b87620292fc097f30644e72e131a029b85045b68181585d2833e84879b9709143e1f593f0000001613a49565b90507f30644e72e131a029b85045b68181585d2833e84879b9709143e1f593f0000001806128f4576128f361516a565b5b61292f7f30644e72e131a029b85045b68181585d2833e84879b9709143e1f593f0000001806129265761292561516a565b5b85600108613a8d565b830986600060028110612945576129446148ba565b5b6020020181815250507f30644e72e131a029b85045b68181585d2833e84879b9709143e1f593f00000018061297d5761297c61516a565b5b6129b16129ac6001867f30644e72e131a029b85045b68181585d2833e84879b9709143e1f593f0000001613a49565b613a8d565b8209866001600281106129c7576129c66148ba565b5b60200201818152505050505050505b949350505050565b6129e6613cc6565b60005b6034811015612a2757600082600001518260348110612a0b57612a0a6148ba565b5b6020020181815250508080612a1f90614d29565b9150506129e9565b507f0bb77a6ad63e739b4eacb2e09d6277c12ab8d8010534e0b62893f3f6bb9570518160200151600060348110612a6157612a606148ba565b5b6020020181815250507f162d7e417903fa1c82f2d227e35b846b1133cfca4f558b5feb9fdcd5f81dd9028160200151600160348110612aa357612aa26148ba565b5b6020020181815250507f061c1436d1c3008037e887c8234dcf7c33c947ad93695b8000fcb4ab70477e3e8160200151600260348110612ae557612ae46148ba565b5b6020020181815250507f1b16e357953d68d73398c838aa883cc65ddae2aef75a4bc437e4232afdbe43c88160200151600360348110612b2757612b266148ba565b5b6020020181815250507f1961ff2315812fd2f3e459a258f5ded2dde68cd35c79c8b9fb443e1860e1fbe48160200151600460348110612b6957612b686148ba565b5b6020020181815250507f172dba8d231345b865223308fe44ba307c159de512787257113e2a7137f831b48160200151600560348110612bab57612baa6148ba565b5b6020020181815250507f2c6bfc7fe056ed38e26ec136ec8aec5f63ecc4b52c44afba967649cf1e6e23118160200151600660348110612bed57612bec6148ba565b5b6020020181815250507f10c347ae3592776a678f9fc29ecd029f8297367209a4f28f7cb49b09bffd41458160200151600760348110612c2f57612c2e6148ba565b5b6020020181815250507f0a677185fd6cd905b6a544b1006f4b3ea4a0dd596d47cabdab76a305859d928f8160200151600860348110612c7157612c706148ba565b5b6020020181815250507e56bb35a182e54545be6d1ea242a6b0afdaecc266c1aadfb94d32b8d5c3dc968160200151600960348110612cb257612cb16148ba565b5b6020020181815250507f2fc449e2dd0c5349d06092adc126e213858984584e429842d87bcc705837c7658160200151600a60348110612cf457612cf36148ba565b5b6020020181815250507f1e63a5693d8b144378b08379f7ffdcabeb15e2e1490037b346c892925926574c8160200151600b60348110612d3657612d356148ba565b5b6020020181815250507f05d90e36c0fc967d6887b01380ca8f7264e45fd56692179d6346636a0ce10a698160200151600c60348110612d7857612d776148ba565b5b6020020181815250507f0ddd95af0dc7f8e96c42e8f3691617c0db82583abe3b5e9187051005b9d6cd618160200151600d60348110612dba57612db96148ba565b5b6020020181815250507f0d2c8ddcfdd735e9fdd0d51538022ba533cfa83b81d2acec70b17f505c17f0488160200151600e60348110612dfc57612dfb6148ba565b5b6020020181815250507f2d66d2bb7bd385a5e2965d03466bc0579ce96b37ef9541be1aff46d0122696488160200151600f60348110612e3e57612e3d6148ba565b5b6020020181815250507f1dfcdbf7e39fd2a9abeb0bba9446dc44db475f7a7533b645b568483ef44445c18160200151601060348110612e8057612e7f6148ba565b5b6020020181815250507f0973a33d37dcd6bac5fbb80bd94667df758a27a55f74f2f47e9f346dd3599e5b8160200151601160348110612ec257612ec16148ba565b5b6020020181815250507f07ea98448dca17ae8d59c3e84258ae1b8e6b603cc01d67c6a65d88ba0119879d8160200151601260348110612f0457612f036148ba565b5b6020020181815250507f28f4a492bbfdf5eed5ad1b304b95fb96040be5e4281bd288b1955f61bfac0afa8160200151601360348110612f4657612f456148ba565b5b6020020181815250507f04c35ccbb891b482efb0d9615a446bf4965e59c524c5e99e5048d21370c4d1718160200151601460348110612f8857612f876148ba565b5b6020020181815250507f0403f4c5f05d58ecdd3cba7f28c8a0cff1200cc996701751bd159f7a929a83ae8160200151601560348110612fca57612fc96148ba565b5b6020020181815250507f080bb2c9aa710cdece43712df035d5580ee2f909f70c86f3ee311a1bf11ec90e816020015160166034811061300c5761300b6148ba565b5b6020020181815250507f2822909a7b938c9f0f2032d0004b3364f776e7097baf972e96b53a0af21e46cf816020015160176034811061304e5761304d6148ba565b5b6020020181815250507f0b720cb8666a37228a60d13a78a44d755167cc280f0954db82b110cdec03dd2981602001516018603481106130905761308f6148ba565b5b6020020181815250507f1a0ca12c0b9d5ceaee4e186c1eb77be10992112608ce9b20abeec370ac26a2d881602001516019603481106130d2576130d16148ba565b5b6020020181815250507f216b057078fda7e68f74840d69ddd2d9339fa5087224930aeb7b917c6b177ddd8160200151601a60348110613114576131136148ba565b5b6020020181815250507f239a26d12954771a03d624b21a260f447412b746b66eede628a2f0af3be0a2128160200151601b60348110613156576131556148ba565b5b6020020181815250507f2290daef092cdb12c7c1d72dd140aa1025d8e8c07373278b43229b7cc0ca11a38160200151601c60348110613198576131976148ba565b5b6020020181815250507f1de5305a20483a9b39f575599249f4aef3d3e9fc48c762a9751eebef9612bee28160200151601d603481106131da576131d96148ba565b5b6020020181815250507f1390b1c9d9a82d2159b46c2bb964b4b2f33fce1689896c95545db5582db57f2e8160200151601e6034811061321c5761321b6148ba565b5b6020020181815250507f26fea02c1cb0b62f637363a8456633b4fce66bff1447b0c5b9e86c0d74b80e8f8160200151601f6034811061325e5761325d6148ba565b5b6020020181815250507f277f7b5cc9bfe6b5986519722f530a0573e13bb9e79b3d53b89b9bdcb8212d3f81602001516020603481106132a05761329f6148ba565b5b6020020181815250507f1547e0c5efe888ce946b013b8243b78a5f678ea941c867f5892706ff56e4816481602001516021603481106132e2576132e16148ba565b5b6020020181815250507f2ad530c497ea4713f4970a7f62956537cfc8588f07ddc027dd4fd0c6c10e5a438160200151602260348110613324576133236148ba565b5b6020020181815250507f1056ab97cf05bcdb2105fbc0b84f38b0965027abf7ca5361ac09f68adeb56eed8160200151602360348110613366576133656148ba565b5b6020020181815250507f226bea5ceca4c99040ef2ebf3c5c51cfc588f331437889263f1a2b987d24fd8481602001516024603481106133a8576133a76148ba565b5b6020020181815250507f0c52c9ec80c576338a26cdde50a9e65e85b87472c7fa91e20e755826d904f62b81602001516025603481106133ea576133e96148ba565b5b6020020181815250507f2aebb7ffc8598c5238f2fdb7cb853b11eef3b252d7ebe49f6ef75ec72e38ec4f816020015160266034811061342c5761342b6148ba565b5b6020020181815250507f092d4b125f827c10993cfadbfc2596532d4065212df9f63a767e853152cf1323816020015160276034811061346e5761346d6148ba565b5b6020020181815250507f1cc142514ccfce20877d91b82265542f585acc7abd05bb4ccbba837abced761a81602001516028603481106134b0576134af6148ba565b5b6020020181815250507f06184da392a17823e9c1d38cb50980b17150ffa411965b03f0b0200d9557daa981602001516029603481106134f2576134f16148ba565b5b6020020181815250507f2de1f83ba2bf5ef20a63881b4af4fb1149cc71d27a9d3f7471d3bab13401d72e8160200151602a60348110613534576135336148ba565b5b6020020181815250507f294b01e9bef3cbeec553d6e01ae9c7e9f0da12a81d5f874fa8820850b29446ef8160200151602b60348110613576576135756148ba565b5b6020020181815250507f1f5b4e9c9f3998ac1115c24cff5d56475b73fe0600bec2656accb54c6858db108160200151602c603481106135b8576135b76148ba565b5b6020020181815250507f15ed766f45161e8cf3f750978ea18828b8cdf8211494307002aac2bb819446428160200151602d603481106135fa576135f96148ba565b5b6020020181815250507f1d98dcee4ad7e854ab175c4c9d2596db3ff4d366f2b4768245f1b191c9abd2dc8160200151602e6034811061363c5761363b6148ba565b5b6020020181815250507f0eea43c2e39c9465cfc56a2b80f746b1ff0389129e0eedf33600020246d66e128160200151602f6034811061367e5761367d6148ba565b5b6020020181815250507f267076b8c3d79269cb83185bd7758f05fb0029c23e2f429ac2a16cc7b449a17981602001516030603481106136c0576136bf6148ba565b5b6020020181815250507f1930694c542b3f428ca02285f978b47ecf06de207dc299736c06766d7f2e17e68160200151603160348110613702576137016148ba565b5b6020020181815250507f23f14882a28cc7ba2b752c5eb037c0606451d81fc6a58b4c647e7fca3c3e941c8160200151603260348110613744576137436148ba565b5b6020020181815250507f081ee42bc135a4e8e89208103bdf883a591cab8babacfcf201789f78bf9bcb318160200151603360348110613786576137856148ba565b5b602002018181525050660fffffffffffff81604001516000600281106137af576137ae6148ba565b5b602002018181525050660aed8c0af2428a81604001516001600281106137d8576137d76148ba565b5b6020020181815250506000820361383c57806006600082015181600001906034613803929190613d5c565b5060208201518160340190603461381b929190613d5c565b50604082015181606801906002613833929190613cf9565b509050506138ea565b806006600082015181600001906034613856929190613d5c565b5060208201518160340190603461386e929190613d5c565b50604082015181606801906002613886929190613cf9565b5090505080600560008481526020019081526020016000206000820151816000019060346138b5929190613d5c565b506020820151816034019060346138cd929190613d5c565b506040820151816068019060026138e5929190613cf9565b509050505b5050565b6138f6613ca4565b600084856001901b60056000868152602001908152602001600020606801600060028110613927576139266148ba565b5b015416901c9050600085866001901b6005600087815260200190815260200160002060680160016002811061395f5761395e6148ba565b5b015416901c90506139b2600560008681526020019081526020016000206000018760348110613991576139906148ba565b5b0154866000600281106139a7576139a66148ba565b5b602002015184613aed565b836000600281106139c6576139c56148ba565b5b602002018181525050613a1b6005600086815260200190815260200160002060340187603481106139fa576139f96148ba565b5b015486600160028110613a1057613a0f6148ba565b5b602002015183613aed565b83600160028110613a2f57613a2e6148ba565b5b60200201818152505050509392505050565b600033905090565b600080849050838511613a65578281613a629190614b57565b90505b8280613a7457613a7361516a565b5b60008583613a829190614c63565b089150509392505050565b6000613ae68260027f30644e72e131a029b85045b68181585d2833e84879b9709143e1f593f0000001613ac09190614c63565b7f30644e72e131a029b85045b68181585d2833e84879b9709143e1f593f0000001613c2f565b9050919050565b60007f183227397098d014dc2822db40c0ac2e9419f4243cdcb848a1f0fac9f8000000831115613b52576040517f08c379a0000000000000000000000000000000000000000000000000000000008152600401613b49906151e5565b60405180910390fd5b613b5c84846124dd565b613b9b576040517f08c379a0000000000000000000000000000000000000000000000000000000008152600401613b9290615251565b60405180910390fd5b6000821480613baa5750600182145b613be9576040517f08c379a0000000000000000000000000000000000000000000000000000000008152600401613be0906152bd565b60405180910390fd5b60018203613bf957829050613c28565b827f30644e72e131a029b85045b68181585d2833e84879b9709143e1f593f0000001613c259190614c63565b90505b9392505050565b600060405160208152602080820152602060408201528460608201528360808201528260a082015260208160c08360055afa8060008114613c735782519350613c78565b600080fd5b5050509392505050565b6040518060800160405280600490602082028036833780820191505090505090565b6040518060400160405280600290602082028036833780820191505090505090565b6040518060600160405280613cd9613d9c565b8152602001613ce6613d9c565b8152602001613cf3613ca4565b81525090565b8260028101928215613d28579160200282015b82811115613d27578251825591602001919060010190613d0c565b5b509050613d359190613dbf565b5090565b60405180611ae0016040528060d790602082028036833780820191505090505090565b8260348101928215613d8b579160200282015b82811115613d8a578251825591602001919060010190613d6f565b5b509050613d989190613dbf565b5090565b604051806106800160405280603490602082028036833780820191505090505090565b5b80821115613dd8576000816000905550600101613dc0565b5090565b6000604051905090565b600080fd5b6000819050919050565b613dfe81613deb565b8114613e0957600080fd5b50565b600081359050613e1b81613df5565b92915050565b600060208284031215613e3757613e36613de6565b5b6000613e4584828501613e0c565b91505092915050565b7f4e487b7100000000000000000000000000000000000000000000000000000000600052602160045260246000fd5b60038110613e8e57613e8d613e4e565b5b50565b6000819050613e9f82613e7d565b919050565b6000613eaf82613e91565b9050919050565b613ebf81613ea4565b82525050565b6000602082019050613eda6000830184613eb6565b92915050565b60008060408385031215613ef757613ef6613de6565b5b6000613f0585828601613e0c565b9250506020613f1685828601613e0c565b9150509250929050565b600060049050919050565b600081905092915050565b6000819050919050565b613f4981613deb565b82525050565b6000613f5b8383613f40565b60208301905092915050565b6000602082019050919050565b613f7d81613f20565b613f878184613f2b565b9250613f9282613f36565b8060005b83811015613fc3578151613faa8782613f4f565b9650613fb583613f67565b925050600181019050613f96565b505050505050565b6000608082019050613fe06000830184613f74565b92915050565b600073ffffffffffffffffffffffffffffffffffffffff82169050919050565b600061401182613fe6565b9050919050565b61402181614006565b811461402c57600080fd5b50565b60008135905061403e81614018565b92915050565b60006020828403121561405a57614059613de6565b5b60006140688482850161402f565b91505092915050565b600080fd5b6000601f19601f8301169050919050565b7f4e487b7100000000000000000000000000000000000000000000000000000000600052604160045260246000fd5b6140bf82614076565b810181811067ffffffffffffffff821117156140de576140dd614087565b5b80604052505050565b60006140f1613ddc565b90506140fd82826140b6565b919050565b600067ffffffffffffffff82111561411d5761411c614087565b5b602082029050919050565b600080fd5b600061414061413b84614102565b6140e7565b9050806020840283018581111561415a57614159614128565b5b835b81811015614183578061416f8882613e0c565b84526020840193505060208101905061415c565b5050509392505050565b600082601f8301126141a2576141a1614071565b5b60086141af84828561412d565b91505092915050565b600067ffffffffffffffff8211156141d3576141d2614087565b5b602082029050919050565b60006141f16141ec846141b8565b6140e7565b9050806020840283018581111561420b5761420a614128565b5b835b8181101561423457806142208882613e0c565b84526020840193505060208101905061420d565b5050509392505050565b600082601f83011261425357614252614071565b5b60346142608482856141de565b91505092915050565b600067ffffffffffffffff82111561428457614283614087565b5b602082029050919050565b60006142a261429d84614269565b6140e7565b905080602084028301858111156142bc576142bb614128565b5b835b818110156142e557806142d18882613e0c565b8452602084019350506020810190506142be565b5050509392505050565b600082601f83011261430457614303614071565b5b600261431184828561428f565b91505092915050565b6000806000806000806000610ea0888a03121561433a57614339613de6565b5b60006143488a828b0161402f565b97505060206143598a828b0161418d565b96505061012061436b8a828b01613e0c565b95505061014061437d8a828b0161423e565b9450506107c061438f8a828b0161423e565b935050610e406143a18a828b016142ef565b925050610e806143b38a828b01613e0c565b91505092959891949750929550565b6000819050919050565b60006143e76143e26143dd84613fe6565b6143c2565b613fe6565b9050919050565b60006143f9826143cc565b9050919050565b600061440b826143ee565b9050919050565b61441b81614400565b82525050565b60006020820190506144366000830184614412565b92915050565b61444581613deb565b82525050565b6000602082019050614460600083018461443c565b92915050565b600060029050919050565b600081905092915050565b6000819050919050565b6000602082019050919050565b61449c81614466565b6144a68184614471565b92506144b18261447c565b8060005b838110156144e25781516144c98782613f4f565b96506144d483614486565b9250506001810190506144b5565b505050505050565b60006040820190506144ff6000830184614493565b92915050565b61450e81614006565b82525050565b60006020820190506145296000830184614505565b92915050565b600060349050919050565b600081905092915050565b6000819050919050565b6000602082019050919050565b6145658161452f565b61456f818461453a565b925061457a82614545565b8060005b838110156145ab5781516145928782613f4f565b965061459d8361454f565b92505060018101905061457e565b505050505050565b600081905092915050565b6145c781614466565b6145d181846145b3565b92506145dc8261447c565b8060005b8381101561460d5781516145f48782613f4f565b96506145ff83614486565b9250506001810190506145e0565b505050505050565b610d408201600082015161462c600085018261455c565b50602082015161464061068085018261455c565b506040820151614654610d008501826145be565b50505050565b6000610d40820190506146706000830184614615565b92915050565b60008060006080848603121561468f5761468e613de6565b5b600061469d8682870161402f565b93505060206146ae868287016142ef565b92505060606146bf86828701613e0c565b9150509250925092565b60006146d4826143ee565b9050919050565b6146e4816146c9565b82525050565b60006020820190506146ff60008301846146db565b92915050565b6000806000806000806000610200888a03121561472557614724613de6565b5b60006147338a828b0161402f565b97505060206147448a828b01613e0c565b96505060406147558a828b01613e0c565b95505060606147668a828b0161418d565b9450506101606147788a828b016142ef565b9350506101a061478a8a828b016142ef565b9250506101e061479c8a828b01613e0c565b91505092959891949750929550565b600082825260208201905092915050565b7f43616c6c6572206973206e6f742067616d6520636f6e74726163740000000000600082015250565b60006147f2601b836147ab565b91506147fd826147bc565b602082019050919050565b60006020820190508181036000830152614821816147e5565b9050919050565b7f436f6e7472616374206d75737420626520696e206465616c696e67207068617360008201527f6520746f2063616c6c20746869732066756e6374696f6e000000000000000000602082015250565b60006148846037836147ab565b915061488f82614828565b604082019050919050565b600060208201905081810360008301526148b381614877565b9050919050565b7f4e487b7100000000000000000000000000000000000000000000000000000000600052603260045260246000fd5b7f4e6f7420696e2073687566666c65207068617365000000000000000000000000600082015250565b600061491f6014836147ab565b915061492a826148e9565b602082019050919050565b6000602082019050818103600083015261494e81614912565b9050919050565b7f4e6f7420796f7572207475726e20796574000000000000000000000000000000600082015250565b600061498b6011836147ab565b915061499682614955565b602082019050919050565b600060208201905081810360008301526149ba8161497e565b9050919050565b600060029050919050565b600081905092915050565b6000819050919050565b60006149ed83836145be565b60408301905092915050565b6000602082019050919050565b614a0f816149c1565b614a1981846149cc565b9250614a24826149d7565b8060005b83811015614a55578151614a3c87826149e1565b9650614a47836149f9565b925050600181019050614a28565b505050505050565b600060d79050919050565b600081905092915050565b6000819050919050565b6000602082019050919050565b614a9381614a5d565b614a9d8184614a68565b9250614aa882614a73565b8060005b83811015614ad9578151614ac08782613f4f565b9650614acb83614a7d565b925050600181019050614aac565b505050505050565b6000611be082019050614af76000830187614493565b614b046040830186614a06565b614b1160c0830185614493565b614b1f610100830184614a8a565b95945050505050565b7f4e487b7100000000000000000000000000000000000000000000000000000000600052601160045260246000fd5b6000614b6282613deb565b9150614b6d83613deb565b9250828201905080821115614b8557614b84614b28565b5b92915050565b7f6167677265676174656420706b206973206e6f74207265616479000000000000600082015250565b6000614bc1601a836147ab565b9150614bcc82614b8b565b602082019050919050565b60006020820190508181036000830152614bf081614bb4565b9050919050565b7f6465636b206973206e6f74207265616479000000000000000000000000000000600082015250565b6000614c2d6011836147ab565b9150614c3882614bf7565b602082019050919050565b60006020820190508181036000830152614c5c81614c20565b9050919050565b6000614c6e82613deb565b9150614c7983613deb565b9250828203905081811115614c9157614c90614b28565b5b92915050565b7f4361726420686173206e6f74206265656e2066756c6c7920646563727970746560008201527f6400000000000000000000000000000000000000000000000000000000000000602082015250565b6000614cf36021836147ab565b9150614cfe82614c97565b604082019050919050565b60006020820190508181036000830152614d2281614ce6565b9050919050565b6000614d3482613deb565b91507fffffffffffffffffffffffffffffffffffffffffffffffffffffffffffffffff8203614d6657614d65614b28565b5b600182019050919050565b7f4e6f7420696e2072656769737465722070686173650000000000000000000000600082015250565b6000614da76015836147ab565b9150614db282614d71565b602082019050919050565b60006020820190508181036000830152614dd681614d9a565b9050919050565b7f496e76616c6964207075626c6963206b65790000000000000000000000000000600082015250565b6000614e136012836147ab565b9150614e1e82614ddd565b602082019050919050565b60006020820190508181036000830152614e4281614e06565b9050919050565b6000614e5482613deb565b9150614e5f83613deb565b9250817fffffffffffffffffffffffffffffffffffffffffffffffffffffffffffffffff0483118215151615614e9857614e97614b28565b5b828202905092915050565b7f4f776e61626c653a206e6577206f776e657220697320746865207a65726f206160008201527f6464726573730000000000000000000000000000000000000000000000000000602082015250565b6000614eff6026836147ab565b9150614f0a82614ea3565b604082019050919050565b60006020820190508181036000830152614f2e81614ef2565b9050919050565b7f6e6f74207265636f676e697a656420706c617965720000000000000000000000600082015250565b6000614f6b6015836147ab565b9150614f7682614f35565b602082019050919050565b60006020820190508181036000830152614f9a81614f5e565b9050919050565b7f646574656374656420646f75626c65206465616c696e67207468652073616d6560008201527f2063617264000000000000000000000000000000000000000000000000000000602082015250565b6000614ffd6025836147ab565b915061500882614fa1565b604082019050919050565b6000602082019050818103600083015261502c81614ff0565b9050919050565b600060089050919050565b600081905092915050565b6000819050919050565b6000602082019050919050565b61506981615033565b615073818461503e565b925061507e82615049565b8060005b838110156150af5781516150968782613f4f565b96506150a183615053565b925050600181019050615082565b505050505050565b6000610200820190506150cd6000830187614493565b6150da6040830186614a06565b6150e760c0830185614493565b6150f5610100830184615060565b95945050505050565b7f4f776e61626c653a2063616c6c6572206973206e6f7420746865206f776e6572600082015250565b60006151346020836147ab565b915061513f826150fe565b602082019050919050565b6000602082019050818103600083015261516381615127565b9050919050565b7f4e487b7100000000000000000000000000000000000000000000000000000000600052601260045260246000fd5b7f496c6c2d666f726d617465642064656c74610000000000000000000000000000600082015250565b60006151cf6012836147ab565b91506151da82615199565b602082019050919050565b600060208201905081810360008301526151fe816151c2565b9050919050565b7f4e6f74206f6e2062616279206a75626a75622063757276650000000000000000600082015250565b600061523b6018836147ab565b915061524682615205565b602082019050919050565b6000602082019050818103600083015261526a8161522e565b9050919050565b7f496c6c2d666f726d617465642073656c6563746f720000000000000000000000600082015250565b60006152a76015836147ab565b91506152b282615271565b602082019050919050565b600060208201905081810360008301526152d68161529a565b905091905056fea2646970667358221220690079de1d6b37f308a6c3e64aac75bf7c4a430cd8b5b2d5567c3b182c02355964736f6c63430008100033",
  "linkReferences": {},
  "deployedLinkReferences": {}
}